{
  "address": "0x798D986239333d4fa9d7bDf1b143C3F022Ae580B",
  "abi": [
    {
      "inputs": [
        {
          "internalType": "address",
          "name": "rebateTokenAddress",
          "type": "address"
        },
        {
          "internalType": "address",
          "name": "owner",
          "type": "address"
        },
        {
          "internalType": "address",
          "name": "_merkleRootAdmin",
          "type": "address"
        },
        {
          "internalType": "uint256",
          "name": "_maxUsersToClaim",
          "type": "uint256"
        },
        {
          "internalType": "uint256",
          "name": "_timeElapsedForUpdate",
          "type": "uint256"
        },
        {
          "internalType": "uint256",
          "name": "_timeToReclaimRewards",
          "type": "uint256"
        }
      ],
      "stateMutability": "nonpayable",
      "type": "constructor"
    },
    {
      "anonymous": false,
      "inputs": [
        {
          "indexed": false,
          "internalType": "bytes32",
          "name": "merkleRoot",
          "type": "bytes32"
        },
        {
          "indexed": false,
          "internalType": "uint256",
          "name": "maxAmountToClaim",
          "type": "uint256"
        }
      ],
      "name": "MerkleRootUpdated",
      "type": "event"
    },
    {
      "anonymous": false,
      "inputs": [
        {
          "indexed": true,
          "internalType": "address",
          "name": "previousOwner",
          "type": "address"
        },
        {
          "indexed": true,
          "internalType": "address",
          "name": "newOwner",
          "type": "address"
        }
      ],
      "name": "OwnershipTransferred",
      "type": "event"
    },
    {
      "anonymous": false,
      "inputs": [
        {
          "indexed": true,
          "internalType": "address",
          "name": "user",
          "type": "address"
        },
        {
          "indexed": false,
          "internalType": "uint256",
          "name": "reward",
          "type": "uint256"
        }
      ],
      "name": "RewardPaid",
      "type": "event"
    },
    {
      "inputs": [
        {
          "internalType": "address",
          "name": "",
          "type": "address"
        }
      ],
      "name": "addressExists",
      "outputs": [
        {
          "internalType": "bool",
          "name": "",
          "type": "bool"
        }
      ],
      "stateMutability": "view",
      "type": "function"
    },
    {
      "inputs": [],
      "name": "amountClaimed",
      "outputs": [
        {
          "internalType": "uint256",
          "name": "",
          "type": "uint256"
        }
      ],
      "stateMutability": "view",
      "type": "function"
    },
    {
      "inputs": [
        {
          "internalType": "bytes32[]",
          "name": "proof",
          "type": "bytes32[]"
        },
        {
          "internalType": "uint256",
          "name": "amount",
          "type": "uint256"
        }
      ],
      "name": "claimReward",
      "outputs": [],
      "stateMutability": "nonpayable",
      "type": "function"
    },
    {
      "inputs": [
        {
          "internalType": "uint256",
          "name": "",
          "type": "uint256"
        }
      ],
      "name": "claimedAddresses",
      "outputs": [
        {
          "internalType": "address",
          "name": "",
          "type": "address"
        }
      ],
      "stateMutability": "view",
      "type": "function"
    },
    {
      "inputs": [],
      "name": "lastUpdated",
      "outputs": [
        {
          "internalType": "uint256",
          "name": "",
          "type": "uint256"
        }
      ],
      "stateMutability": "view",
      "type": "function"
    },
    {
      "inputs": [],
      "name": "maxAmountToClaim",
      "outputs": [
        {
          "internalType": "uint256",
          "name": "",
          "type": "uint256"
        }
      ],
      "stateMutability": "view",
      "type": "function"
    },
    {
      "inputs": [],
      "name": "maxUsersToClaim",
      "outputs": [
        {
          "internalType": "uint256",
          "name": "",
          "type": "uint256"
        }
      ],
      "stateMutability": "view",
      "type": "function"
    },
    {
      "inputs": [],
      "name": "merkleRoot",
      "outputs": [
        {
          "internalType": "bytes32",
          "name": "",
          "type": "bytes32"
        }
      ],
      "stateMutability": "view",
      "type": "function"
    },
    {
      "inputs": [],
      "name": "merkleRootAdmin",
      "outputs": [
        {
          "internalType": "address",
          "name": "",
          "type": "address"
        }
      ],
      "stateMutability": "view",
      "type": "function"
    },
    {
      "inputs": [],
      "name": "owner",
      "outputs": [
        {
          "internalType": "address",
          "name": "",
          "type": "address"
        }
      ],
      "stateMutability": "view",
      "type": "function"
    },
    {
      "inputs": [],
      "name": "rebateToken",
      "outputs": [
        {
          "internalType": "contract IERC20",
          "name": "",
          "type": "address"
        }
      ],
      "stateMutability": "view",
      "type": "function"
    },
    {
      "inputs": [
        {
          "internalType": "address",
          "name": "account",
          "type": "address"
        }
      ],
      "name": "reclaimUnusedReward",
      "outputs": [],
      "stateMutability": "nonpayable",
      "type": "function"
    },
    {
      "inputs": [],
      "name": "renounceOwnership",
      "outputs": [],
      "stateMutability": "nonpayable",
      "type": "function"
    },
    {
      "inputs": [],
      "name": "timeElapsedForUpdate",
      "outputs": [
        {
          "internalType": "uint256",
          "name": "",
          "type": "uint256"
        }
      ],
      "stateMutability": "view",
      "type": "function"
    },
    {
      "inputs": [],
      "name": "timeToReclaimRewards",
      "outputs": [
        {
          "internalType": "uint256",
          "name": "",
          "type": "uint256"
        }
      ],
      "stateMutability": "view",
      "type": "function"
    },
    {
      "inputs": [
        {
          "internalType": "address",
          "name": "newOwner",
          "type": "address"
        }
      ],
      "name": "transferOwnership",
      "outputs": [],
      "stateMutability": "nonpayable",
      "type": "function"
    },
    {
      "inputs": [
        {
          "internalType": "uint256",
          "name": "_maxUsersToClaim",
          "type": "uint256"
        }
      ],
      "name": "updateMaxUsersToClaim",
      "outputs": [],
      "stateMutability": "nonpayable",
      "type": "function"
    },
    {
      "inputs": [
        {
          "internalType": "bytes32",
          "name": "_merkleRoot",
          "type": "bytes32"
        },
        {
          "internalType": "uint256",
          "name": "_maxAmountToClaim",
          "type": "uint256"
        }
      ],
      "name": "updateMerkleRoot",
      "outputs": [],
      "stateMutability": "nonpayable",
      "type": "function"
    },
    {
      "inputs": [
        {
          "internalType": "address",
          "name": "_merkleRootAdmin",
          "type": "address"
        }
      ],
      "name": "updateMerkleRootAdmin",
      "outputs": [],
      "stateMutability": "nonpayable",
      "type": "function"
    },
    {
      "inputs": [
        {
          "internalType": "uint256",
          "name": "_timeElapsedForUpdate",
          "type": "uint256"
        }
      ],
      "name": "updateTimeElapsedForUpdate",
      "outputs": [],
      "stateMutability": "nonpayable",
      "type": "function"
    },
    {
      "inputs": [
        {
          "internalType": "uint256",
          "name": "_timeToReclaimRewards",
          "type": "uint256"
        }
      ],
      "name": "updateTimeToReclaimRewards",
      "outputs": [],
      "stateMutability": "nonpayable",
      "type": "function"
    }
  ],
  "transactionHash": "0x45a8a77b93c355093c265bf11fa0143ae0e789cb911e6232d672bbaa0e6a3dfd",
  "args": [
    "0x84F5c2cFba754E76DD5aE4fB369CfC920425E12b",
    "0x8705b41F9193f05ba166a1D5C0771E9cB2Ca0aa3",
    "0xE7A4B3A6db8607Ebc8407f739a1D0D6A3167Bb94",
    50,
    86400,
    259200
  ],
  "numDeployments": 1,
  "solcInputHash": "fc9007b35d3d3c731d80d8c81c0548ad",
  "bytecode": "0x60a06040523480156200001157600080fd5b506040516200170438038062001704833981016040819052620000349162000243565b6200003f3362000105565b818111620000ba5760405162461bcd60e51b815260206004820152603460248201527f5f74696d65546f5265636c61696d52657761726473206c657373207468616e2060448201527f74696d65456c6170736564466f7255706461746500000000000000000000000060648201526084015b60405180910390fd5b6001600160a01b03868116608052600280546001600160a01b03191691861691909117905560068390556007829055600a819055620000f98562000155565b505050505050620002a9565b600080546001600160a01b038381166001600160a01b0319831681178455604051919092169283917f8be0079c531659141344cd1fd0a4f28419497f9722a3daafe3b4186f6b6457e09190a35050565b6000546001600160a01b03163314620001b15760405162461bcd60e51b815260206004820181905260248201527f4f776e61626c653a2063616c6c6572206973206e6f7420746865206f776e65726044820152606401620000b1565b6001600160a01b038116620002185760405162461bcd60e51b815260206004820152602660248201527f4f776e61626c653a206e6577206f776e657220697320746865207a65726f206160448201526564647265737360d01b6064820152608401620000b1565b620002238162000105565b50565b80516001600160a01b03811681146200023e57600080fd5b919050565b60008060008060008060c087890312156200025d57600080fd5b620002688762000226565b9550620002786020880162000226565b9450620002886040880162000226565b9350606087015192506080870151915060a087015190509295509295509295565b608051611423620002e1600039600081816101bf015281816104aa01528181610691015281816107060152610c7201526114236000f3fe608060405234801561001057600080fd5b50600436106101375760003560e01c80635eeaa8d0116100b8578063a50252221161007c578063a502522214610265578063ad6b5d0414610298578063d0b06f5d146102a1578063dc08be91146102aa578063f2fde38b146102b3578063f3094297146102c657600080fd5b80635eeaa8d01461021d5780636d983800146102265780636fdba0b014610239578063715018a61461024c5780638da5cb5b1461025457600080fd5b80631d346268116100ff5780631d346268146101ba5780632eb4a7ab146101e157806332923a57146101f857806346577f0b1461020b5780635745c3291461021457600080fd5b806303bdbbd51461013c57806303c159571461015157806309423cb5146101645780630e90c159146101775780630f231ad5146101a7575b600080fd5b61014f61014a366004611161565b6102d9565b005b61014f61015f36600461117a565b6103be565b61014f61017236600461119c565b6105da565b61018a610185366004611161565b610730565b6040516001600160a01b0390911681526020015b60405180910390f35b61014f6101b536600461119c565b61075a565b61018a7f000000000000000000000000000000000000000000000000000000000000000081565b6101ea60045481565b60405190815260200161019e565b60025461018a906001600160a01b031681565b6101ea60085481565b6101ea600a5481565b6101ea60075481565b61014f610234366004611161565b610878565b61014f610247366004611161565b6108f7565b61014f610976565b6000546001600160a01b031661018a565b61028861027336600461119c565b60016020526000908152604090205460ff1681565b604051901515815260200161019e565b6101ea60095481565b6101ea60055481565b6101ea60065481565b61014f6102c136600461119c565b6109ac565b61014f6102d43660046111db565b610a44565b6000546001600160a01b0316331461030c5760405162461bcd60e51b81526004016103039061129f565b60405180910390fd5b8060000361035c5760405162461bcd60e51b815260206004820181905260248201527f5f74696d65546f5265636c61696d526577617264732063616e277420626520306044820152606401610303565b60075481116103b95760405162461bcd60e51b8152602060048201526024808201527f76616c7565206c657373207468616e2074696d65456c6170736564466f7255706044820152636461746560e01b6064820152608401610303565b600a55565b6002546001600160a01b031633146104185760405162461bcd60e51b815260206004820152601f60248201527f63616c6c65722063616e277420757064617465206d65726b6c6520726f6f74006044820152606401610303565b60075460055461042890426112ea565b1015806104355750600554155b6104935760405162461bcd60e51b815260206004820152602960248201527f43616e6e6f7420757064617465206265666f72652074696d65456c6170736564604482015268466f7255706461746560b81b6064820152608401610303565b6040516370a0823160e01b815230600482015281907f00000000000000000000000000000000000000000000000000000000000000006001600160a01b0316906370a0823190602401602060405180830381865afa1580156104f9573d6000803e3d6000fd5b505050506040513d601f19601f8201168201806040525081019061051d91906112fd565b10156105765760405162461bcd60e51b815260206004820152602260248201527f42616c616e6365206c657373207468616e206d6178416d6f756e74546f436c61604482015261696d60f01b6064820152608401610303565b42600555610582610cd4565b61058e6003600061112f565b60006009556008819055600482905560408051838152602081018390527fecb6e184c8c1ff50ab199b30650a76b7eb56fe2f261becc6284e0a3a1707be48910160405180910390a15050565b6000546001600160a01b031633146106045760405162461bcd60e51b81526004016103039061129f565b600a5460055461061490426112ea565b101561066e5760405162461bcd60e51b815260206004820152602360248201527f74696d65206c657373207468616e2074696d65546f5265636c61696d5265776160448201526272647360e81b6064820152608401610303565b6040516370a0823160e01b815230600482015261072d9082906001600160a01b037f000000000000000000000000000000000000000000000000000000000000000016906370a0823190602401602060405180830381865afa1580156106d8573d6000803e3d6000fd5b505050506040513d601f19601f820116820180604052508101906106fc91906112fd565b6001600160a01b037f0000000000000000000000000000000000000000000000000000000000000000169190610d3b565b50565b6003818154811061074057600080fd5b6000918252602090912001546001600160a01b0316905081565b6000546001600160a01b031633146107845760405162461bcd60e51b81526004016103039061129f565b6001600160a01b0381166107da5760405162461bcd60e51b815260206004820152601e60248201527f5f6d65726b6c65526f6f7441646d696e2063616e2774206265207a65726f00006044820152606401610303565b6000546001600160a01b03166001600160a01b0316816001600160a01b0316036108565760405162461bcd60e51b815260206004820152602760248201527f5f6d65726b6c65526f6f7441646d696e2063616e27742062652073616d652061604482015266399027bbb732b960c91b6064820152608401610303565b600280546001600160a01b0319166001600160a01b0392909216919091179055565b6000546001600160a01b031633146108a25760405162461bcd60e51b81526004016103039061129f565b806000036108f25760405162461bcd60e51b815260206004820181905260248201527f5f74696d65456c6170736564466f725570646174652063616e277420626520306044820152606401610303565b600755565b6000546001600160a01b031633146109215760405162461bcd60e51b81526004016103039061129f565b806000036109715760405162461bcd60e51b815260206004820152601b60248201527f5f6d61785573657273546f436c61696d2063616e2774206265203000000000006044820152606401610303565b600655565b6000546001600160a01b031633146109a05760405162461bcd60e51b81526004016103039061129f565b6109aa6000610d92565b565b6000546001600160a01b031633146109d65760405162461bcd60e51b81526004016103039061129f565b6001600160a01b038116610a3b5760405162461bcd60e51b815260206004820152602660248201527f4f776e61626c653a206e6577206f776e657220697320746865207a65726f206160448201526564647265737360d01b6064820152608401610303565b61072d81610d92565b600454610a875760405162461bcd60e51b8152602060048201526011602482015270115b5c1d1e4813595c9adb1948149bdbdd607a1b6044820152606401610303565b3360009081526001602052604090205460ff1615610ae05760405162461bcd60e51b8152602060048201526016602482015275149958985d1948185b1c9958591e4818db185a5b595960521b6044820152606401610303565b6000600954600854610af291906112ea565b905060008111610b445760405162461bcd60e51b815260206004820152601d60248201527f416c6c20726562617465732068617665206265656e20436c61696d65640000006044820152606401610303565b610b4f833384610de2565b610b8b5760405162461bcd60e51b815260206004820152600d60248201526c24b73b30b634b210283937b7b360991b6044820152606401610303565b3360008181526001602081905260408220805460ff191682179055600380549182018155918290527fc2575a0e9e593c00f959f8c92f12db2869c3395a3b0502d05e2516446f71f85b0180546001600160a01b03191690921790915560065490541115610c3a5760405162461bcd60e51b815260206004820152601a60248201527f4578636565646564204d6178206e756d62657220636c61696d730000000000006044820152606401610303565b6000818310610c495781610c4b565b825b90508060096000828254610c5f9190611316565b90915550610c9990506001600160a01b037f0000000000000000000000000000000000000000000000000000000000000000163383610d3b565b60405181815233907fe2403640ba68fed3a2f88b7557551d1993f84b99bb10ff833f0cf8db0c5e04869060200160405180910390a250505050565b60035460005b81811015610d37576001600060038381548110610cf957610cf9611329565b60009182526020808320909101546001600160a01b031683528201929092526040019020805460ff1916905580610d2f8161133f565b915050610cda565b5050565b604080516001600160a01b038416602482015260448082018490528251808303909101815260649091019091526020810180516001600160e01b031663a9059cbb60e01b179052610d8d908490610e50565b505050565b600080546001600160a01b038381166001600160a01b0319831681178455604051919092169283917f8be0079c531659141344cd1fd0a4f28419497f9722a3daafe3b4186f6b6457e09190a35050565b604080516001600160a01b0384166020820152908101829052600090819060600160408051601f1981840301815282825280516020918201209083015201604051602081830303815290604052805190602001209050610e458560045483610f22565b9150505b9392505050565b6000610ea5826040518060400160405280602081526020017f5361666545524332303a206c6f772d6c6576656c2063616c6c206661696c6564815250856001600160a01b0316610f389092919063ffffffff16565b805190915015610d8d5780806020019051810190610ec39190611358565b610d8d5760405162461bcd60e51b815260206004820152602a60248201527f5361666545524332303a204552433230206f7065726174696f6e20646964206e6044820152691bdd081cdd58d8d9595960b21b6064820152608401610303565b600082610f2f8584610f4f565b14949350505050565b6060610f478484600085610fc5565b949350505050565b600081815b8451811015610fbb576000858281518110610f7157610f71611329565b60200260200101519050808311610f975760008381526020829052604090209250610fa8565b600081815260208490526040902092505b5080610fb38161133f565b915050610f54565b5090505b92915050565b6060824710156110265760405162461bcd60e51b815260206004820152602660248201527f416464726573733a20696e73756666696369656e742062616c616e636520666f6044820152651c8818d85b1b60d21b6064820152608401610303565b6001600160a01b0385163b61107d5760405162461bcd60e51b815260206004820152601d60248201527f416464726573733a2063616c6c20746f206e6f6e2d636f6e74726163740000006044820152606401610303565b600080866001600160a01b03168587604051611099919061139e565b60006040518083038185875af1925050503d80600081146110d6576040519150601f19603f3d011682016040523d82523d6000602084013e6110db565b606091505b50915091506110eb8282866110f6565b979650505050505050565b60608315611105575081610e49565b8251156111155782518084602001fd5b8160405162461bcd60e51b815260040161030391906113ba565b508054600082559060005260206000209081019061072d91905b8082111561115d5760008155600101611149565b5090565b60006020828403121561117357600080fd5b5035919050565b6000806040838503121561118d57600080fd5b50508035926020909101359150565b6000602082840312156111ae57600080fd5b81356001600160a01b0381168114610e4957600080fd5b634e487b7160e01b600052604160045260246000fd5b600080604083850312156111ee57600080fd5b823567ffffffffffffffff8082111561120657600080fd5b818501915085601f83011261121a57600080fd5b813560208282111561122e5761122e6111c5565b8160051b604051601f19603f83011681018181108682111715611253576112536111c5565b60405292835281830193508481018201928984111561127157600080fd5b948201945b8386101561128f57853585529482019493820193611276565b9997909101359750505050505050565b6020808252818101527f4f776e61626c653a2063616c6c6572206973206e6f7420746865206f776e6572604082015260600190565b634e487b7160e01b600052601160045260246000fd5b81810381811115610fbf57610fbf6112d4565b60006020828403121561130f57600080fd5b5051919050565b80820180821115610fbf57610fbf6112d4565b634e487b7160e01b600052603260045260246000fd5b600060018201611351576113516112d4565b5060010190565b60006020828403121561136a57600080fd5b81518015158114610e4957600080fd5b60005b8381101561139557818101518382015260200161137d565b50506000910152565b600082516113b081846020870161137a565b9190910192915050565b60208152600082518060208401526113d981604085016020870161137a565b601f01601f1916919091016040019291505056fea26469706673582212204f44bd8c437b741ef0d59be2a88b9a94f09c4fa4d69c017b316545ca3891bca664736f6c63430008110033",
  "devdoc": {
    "details": "Contract that distributes rewards to users based on a merkle proof that is computed offchain and updated on a regular basis by the admin. The contract assumes that rebateToken balance will be transferred directly by the program creator. The merkle root can be updated by the admin only if block.timestamp >= _timeElapsedForUpdate. Rewards will be claimed on a first cum first serve basis until the total amount claimed is less than the cap set for the ongoing epoch. There is also a cap on the total number of users that can claim tokens in a given epoch. This is done because of gas limitation while resetting the addressExists variable. Admin can reclaim unused rewards after a certain amount of inactivity",
    "kind": "dev",
    "methods": {
      "claimReward(bytes32[],uint256)": {
        "params": {
          "amount": "The amount that can be claimed by msg.sender.",
          "proof": "The merkle proof for msg.senders distribution."
        }
      },
      "constructor": {
        "params": {
          "_maxUsersToClaim": "Maximum numbers of users that can claim fees during an epoch.",
          "_timeElapsedForUpdate": "The time after which the next distribution can be updated.",
          "_timeToReclaimRewards": "The time after which an admin can claim unused rewards.",
          "owner": "address of the owner.",
          "rebateTokenAddress": "address of the token that will be used to pay rebates."
        }
      },
      "owner()": {
        "details": "Returns the address of the current owner."
      },
      "reclaimUnusedReward(address)": {
        "params": {
          "account": "The address of the account to which the unused tokens need to be transferred."
        }
      },
      "renounceOwnership()": {
        "details": "Leaves the contract without owner. It will not be possible to call `onlyOwner` functions anymore. Can only be called by the current owner. NOTE: Renouncing ownership will leave the contract without an owner, thereby removing any functionality that is only available to the owner."
      },
      "transferOwnership(address)": {
        "details": "Transfers ownership of the contract to a new account (`newOwner`). Can only be called by the current owner."
      },
      "updateMaxUsersToClaim(uint256)": {
        "params": {
          "_maxUsersToClaim": "new maxUsersToClaim value."
        }
      },
      "updateMerkleRoot(bytes32,uint256)": {
        "params": {
          "_maxAmountToClaim": "Total amount of tokens that can be claimed during an epoch.",
          "_merkleRoot": "The merkleRoot of the reward distribution."
        }
      },
      "updateMerkleRootAdmin(address)": {
        "params": {
          "_merkleRootAdmin": "new merkleRootAdmin value."
        }
      },
      "updateTimeElapsedForUpdate(uint256)": {
        "params": {
          "_timeElapsedForUpdate": "new timeElapsedForUpdate value."
        }
      },
      "updateTimeToReclaimRewards(uint256)": {
        "params": {
          "_timeToReclaimRewards": "new timeToReclaimRewards value."
        }
      }
    },
    "version": 1
  },
  "userdoc": {
    "events": {
      "MerkleRootUpdated(bytes32,uint256)": {
        "notice": "Emitted when the merkle root is updated."
      },
      "RewardPaid(address,uint256)": {
        "notice": "Emitted when reward is paid to a user."
      }
    },
    "kind": "user",
    "methods": {
      "addressExists(address)": {
        "notice": "This mapping is used to check if an address has already claimed amount."
      },
      "amountClaimed()": {
        "notice": "the number of tokens claimed in a given epoch."
      },
      "claimReward(bytes32[],uint256)": {
        "notice": "Users can claim the rewards allocated to them."
      },
      "claimedAddresses(uint256)": {
        "notice": "List of addresses that have already claimed rebate for a given epoch."
      },
      "lastUpdated()": {
        "notice": "The time when the merkleRoot was updated."
      },
      "maxAmountToClaim()": {
        "notice": "The maximum amount of tokens that can be claimed in a given epoch."
      },
      "maxUsersToClaim()": {
        "notice": "The maximum number of users that can claim rebates in a given epoch."
      },
      "merkleRoot()": {
        "notice": "The merkle root of the distribution for the current epoch."
      },
      "merkleRootAdmin()": {
        "notice": "Address that can update the merkel root"
      },
      "rebateToken()": {
        "notice": "Address of the token used to give rebates."
      },
      "reclaimUnusedReward(address)": {
        "notice": "Allows admin to reclaim unused rewards after a period of inactivity."
      },
      "timeElapsedForUpdate()": {
        "notice": "The time after which the merkle root can be updated."
      },
      "timeToReclaimRewards()": {
        "notice": "the time after which an admin claim unused rewards."
      },
      "updateMaxUsersToClaim(uint256)": {
        "notice": "allows admin to update maxUsersToClaim variable."
      },
      "updateMerkleRoot(bytes32,uint256)": {
        "notice": "Admin updates the merkleRoot and maximum amount to claim for a particular period."
      },
      "updateMerkleRootAdmin(address)": {
        "notice": "allows admin to update merkleRootAdmin variable"
      },
      "updateTimeElapsedForUpdate(uint256)": {
        "notice": "allows admin to update timeElapsedForUpdate variable"
      },
      "updateTimeToReclaimRewards(uint256)": {
        "notice": "allows admin to update timeToReclaimRewards variable"
      }
    },
    "version": 1
  },
  "storageLayout": {
    "storage": [
      {
        "astId": 10071,
        "contract": "contracts/RebateHandler.sol:RebateHandler",
        "label": "_owner",
        "offset": 0,
        "slot": "0",
        "type": "t_address"
      },
      {
        "astId": 15033,
        "contract": "contracts/RebateHandler.sol:RebateHandler",
        "label": "addressExists",
        "offset": 0,
        "slot": "1",
        "type": "t_mapping(t_address,t_bool)"
      },
      {
        "astId": 15040,
        "contract": "contracts/RebateHandler.sol:RebateHandler",
        "label": "merkleRootAdmin",
        "offset": 0,
        "slot": "2",
        "type": "t_address"
      },
      {
        "astId": 15044,
        "contract": "contracts/RebateHandler.sol:RebateHandler",
        "label": "claimedAddresses",
        "offset": 0,
        "slot": "3",
        "type": "t_array(t_address)dyn_storage"
      },
      {
        "astId": 15047,
        "contract": "contracts/RebateHandler.sol:RebateHandler",
        "label": "merkleRoot",
        "offset": 0,
        "slot": "4",
        "type": "t_bytes32"
      },
      {
        "astId": 15050,
        "contract": "contracts/RebateHandler.sol:RebateHandler",
        "label": "lastUpdated",
        "offset": 0,
        "slot": "5",
        "type": "t_uint256"
      },
      {
        "astId": 15053,
        "contract": "contracts/RebateHandler.sol:RebateHandler",
        "label": "maxUsersToClaim",
        "offset": 0,
        "slot": "6",
        "type": "t_uint256"
      },
      {
        "astId": 15056,
        "contract": "contracts/RebateHandler.sol:RebateHandler",
        "label": "timeElapsedForUpdate",
        "offset": 0,
        "slot": "7",
        "type": "t_uint256"
      },
      {
        "astId": 15059,
        "contract": "contracts/RebateHandler.sol:RebateHandler",
        "label": "maxAmountToClaim",
        "offset": 0,
        "slot": "8",
        "type": "t_uint256"
      },
      {
        "astId": 15062,
        "contract": "contracts/RebateHandler.sol:RebateHandler",
        "label": "amountClaimed",
        "offset": 0,
        "slot": "9",
        "type": "t_uint256"
      },
      {
        "astId": 15065,
        "contract": "contracts/RebateHandler.sol:RebateHandler",
        "label": "timeToReclaimRewards",
        "offset": 0,
        "slot": "10",
        "type": "t_uint256"
      }
    ],
    "types": {
      "t_address": {
        "encoding": "inplace",
        "label": "address",
        "numberOfBytes": "20"
      },
      "t_array(t_address)dyn_storage": {
        "base": "t_address",
        "encoding": "dynamic_array",
        "label": "address[]",
        "numberOfBytes": "32"
      },
      "t_bool": {
        "encoding": "inplace",
        "label": "bool",
        "numberOfBytes": "1"
      },
      "t_bytes32": {
        "encoding": "inplace",
        "label": "bytes32",
        "numberOfBytes": "32"
      },
      "t_mapping(t_address,t_bool)": {
        "encoding": "mapping",
        "key": "t_address",
        "label": "mapping(address => bool)",
        "numberOfBytes": "32",
        "value": "t_bool"
      },
      "t_uint256": {
        "encoding": "inplace",
        "label": "uint256",
        "numberOfBytes": "32"
      }
    }
  }
}