{
  "address": "0xEdbbCBff9631bD372671943D41713d3EA37CDaDE",
  "abi": [
    {
      "inputs": [
        {
          "internalType": "address",
          "name": "rewardTokenAddress",
          "type": "address"
        },
        {
          "internalType": "address",
          "name": "owner",
          "type": "address"
        },
        {
          "internalType": "address",
          "name": "_merkleRootAdmin",
          "type": "address"
        },
        {
          "internalType": "uint256",
          "name": "_timeElapsedForUpdate",
          "type": "uint256"
        },
        {
          "internalType": "uint256",
          "name": "_timeToReclaimRewards",
          "type": "uint256"
        }
      ],
      "stateMutability": "nonpayable",
      "type": "constructor"
    },
    {
      "anonymous": false,
      "inputs": [
        {
          "indexed": false,
          "internalType": "bytes32",
          "name": "merkleRoot",
          "type": "bytes32"
        },
        {
          "indexed": false,
          "internalType": "uint256",
          "name": "maxAmountToClaim",
          "type": "uint256"
        }
      ],
      "name": "MerkleRootUpdated",
      "type": "event"
    },
    {
      "anonymous": false,
      "inputs": [
        {
          "indexed": true,
          "internalType": "address",
          "name": "previousOwner",
          "type": "address"
        },
        {
          "indexed": true,
          "internalType": "address",
          "name": "newOwner",
          "type": "address"
        }
      ],
      "name": "OwnershipTransferred",
      "type": "event"
    },
    {
      "anonymous": false,
      "inputs": [
        {
          "indexed": true,
          "internalType": "address",
          "name": "user",
          "type": "address"
        },
        {
          "indexed": false,
          "internalType": "uint256",
          "name": "reward",
          "type": "uint256"
        }
      ],
      "name": "RewardPaid",
      "type": "event"
    },
    {
      "inputs": [
        {
          "internalType": "uint256",
          "name": "",
          "type": "uint256"
        },
        {
          "internalType": "address",
          "name": "",
          "type": "address"
        }
      ],
      "name": "addressExists",
      "outputs": [
        {
          "internalType": "bool",
          "name": "",
          "type": "bool"
        }
      ],
      "stateMutability": "view",
      "type": "function"
    },
    {
      "inputs": [],
      "name": "amountClaimed",
      "outputs": [
        {
          "internalType": "uint256",
          "name": "",
          "type": "uint256"
        }
      ],
      "stateMutability": "view",
      "type": "function"
    },
    {
      "inputs": [
        {
          "internalType": "bytes32[]",
          "name": "proof",
          "type": "bytes32[]"
        },
        {
          "internalType": "uint256",
          "name": "amount",
          "type": "uint256"
        }
      ],
      "name": "claimReward",
      "outputs": [],
      "stateMutability": "nonpayable",
      "type": "function"
    },
    {
      "inputs": [],
      "name": "lastUpdated",
      "outputs": [
        {
          "internalType": "uint256",
          "name": "",
          "type": "uint256"
        }
      ],
      "stateMutability": "view",
      "type": "function"
    },
    {
      "inputs": [],
      "name": "lastUpdatedTimeElapsed",
      "outputs": [
        {
          "internalType": "uint256",
          "name": "",
          "type": "uint256"
        }
      ],
      "stateMutability": "view",
      "type": "function"
    },
    {
      "inputs": [],
      "name": "maxAmountToClaim",
      "outputs": [
        {
          "internalType": "uint256",
          "name": "",
          "type": "uint256"
        }
      ],
      "stateMutability": "view",
      "type": "function"
    },
    {
      "inputs": [],
      "name": "merkleRoot",
      "outputs": [
        {
          "internalType": "bytes32",
          "name": "",
          "type": "bytes32"
        }
      ],
      "stateMutability": "view",
      "type": "function"
    },
    {
      "inputs": [],
      "name": "merkleRootAdmin",
      "outputs": [
        {
          "internalType": "address",
          "name": "",
          "type": "address"
        }
      ],
      "stateMutability": "view",
      "type": "function"
    },
    {
      "inputs": [],
      "name": "owner",
      "outputs": [
        {
          "internalType": "address",
          "name": "",
          "type": "address"
        }
      ],
      "stateMutability": "view",
      "type": "function"
    },
    {
      "inputs": [
        {
          "internalType": "address",
          "name": "account",
          "type": "address"
        }
      ],
      "name": "reclaimUnusedReward",
      "outputs": [],
      "stateMutability": "nonpayable",
      "type": "function"
    },
    {
      "inputs": [],
      "name": "renounceOwnership",
      "outputs": [],
      "stateMutability": "nonpayable",
      "type": "function"
    },
    {
      "inputs": [],
      "name": "rewardToken",
      "outputs": [
        {
          "internalType": "contract IERC20",
          "name": "",
          "type": "address"
        }
      ],
      "stateMutability": "view",
      "type": "function"
    },
    {
      "inputs": [],
      "name": "timeElapsedForUpdate",
      "outputs": [
        {
          "internalType": "uint256",
          "name": "",
          "type": "uint256"
        }
      ],
      "stateMutability": "view",
      "type": "function"
    },
    {
      "inputs": [],
      "name": "timeToReclaimRewards",
      "outputs": [
        {
          "internalType": "uint256",
          "name": "",
          "type": "uint256"
        }
      ],
      "stateMutability": "view",
      "type": "function"
    },
    {
      "inputs": [
        {
          "internalType": "address",
          "name": "newOwner",
          "type": "address"
        }
      ],
      "name": "transferOwnership",
      "outputs": [],
      "stateMutability": "nonpayable",
      "type": "function"
    },
    {
      "inputs": [
        {
          "internalType": "bytes32",
          "name": "_merkleRoot",
          "type": "bytes32"
        },
        {
          "internalType": "uint256",
          "name": "_maxAmountToClaim",
          "type": "uint256"
        }
      ],
      "name": "updateMerkleRoot",
      "outputs": [],
      "stateMutability": "nonpayable",
      "type": "function"
    },
    {
      "inputs": [
        {
          "internalType": "address",
          "name": "_merkleRootAdmin",
          "type": "address"
        }
      ],
      "name": "updateMerkleRootAdmin",
      "outputs": [],
      "stateMutability": "nonpayable",
      "type": "function"
    },
    {
      "inputs": [
        {
          "internalType": "uint256",
          "name": "_timeElapsedForUpdate",
          "type": "uint256"
        }
      ],
      "name": "updateTimeElapsedForUpdate",
      "outputs": [],
      "stateMutability": "nonpayable",
      "type": "function"
    },
    {
      "inputs": [
        {
          "internalType": "uint256",
          "name": "_timeToReclaimRewards",
          "type": "uint256"
        }
      ],
      "name": "updateTimeToReclaimRewards",
      "outputs": [],
      "stateMutability": "nonpayable",
      "type": "function"
    }
  ],
  "transactionHash": "0x44846a6db3d96c6131ca8f23bd4aa61c6f707055a90961c1317f1148cba3c8ad",
  "args": [
    "0x84F5c2cFba754E76DD5aE4fB369CfC920425E12b",
    "0x8705b41F9193f05ba166a1D5C0771E9cB2Ca0aa3",
    "0xE7A4B3A6db8607Ebc8407f739a1D0D6A3167Bb94",
    2419200,
    5184000
  ],
  "numDeployments": 1,
  "solcInputHash": "bd1bff968c7d391ab2e5e5523b621a63",
  "bytecode": "0x60a06040523480156200001157600080fd5b50604051620015bf380380620015bf833981016040819052620000349162000241565b6200003f3362000103565b818111620000ba5760405162461bcd60e51b815260206004820152603460248201527f5f74696d65546f5265636c61696d52657761726473206c657373207468616e2060448201527f74696d65456c6170736564466f7255706461746500000000000000000000000060648201526084015b60405180910390fd5b6001600160a01b03858116608052600380546001600160a01b0319169185169190911790556007829055600a81905542600655620000f88462000153565b50505050506200029e565b600080546001600160a01b038381166001600160a01b0319831681178455604051919092169283917f8be0079c531659141344cd1fd0a4f28419497f9722a3daafe3b4186f6b6457e09190a35050565b6000546001600160a01b03163314620001af5760405162461bcd60e51b815260206004820181905260248201527f4f776e61626c653a2063616c6c6572206973206e6f7420746865206f776e65726044820152606401620000b1565b6001600160a01b038116620002165760405162461bcd60e51b815260206004820152602660248201527f4f776e61626c653a206e6577206f776e657220697320746865207a65726f206160448201526564647265737360d01b6064820152608401620000b1565b620002218162000103565b50565b80516001600160a01b03811681146200023c57600080fd5b919050565b600080600080600060a086880312156200025a57600080fd5b620002658662000224565b9450620002756020870162000224565b9350620002856040870162000224565b6060870151608090970151959894975095949392505050565b6080516112e9620002d6600039600081816102860152818161047901528181610661015281816106d60152610b9701526112e96000f3fe608060405234801561001057600080fd5b50600436106101215760003560e01c80635eeaa8d0116100ad578063ad6b5d0411610071578063ad6b5d0414610249578063d0b06f5d14610252578063f2fde38b1461025b578063f30942971461026e578063f7c618c11461028157600080fd5b80635eeaa8d01461020b5780636d98380014610214578063715018a6146102275780638da5cb5b1461022f5780639d64fe4b1461024057600080fd5b80632eb4a7ab116100f45780632eb4a7ab1461017457806330d22c391461019057806332923a57146101ce57806346577f0b146101f95780635745c3291461020257600080fd5b806303bdbbd51461012657806303c159571461013b57806309423cb51461014e5780630f231ad514610161575b600080fd5b610139610134366004610fed565b6102a8565b005b610139610149366004611006565b61038d565b61013961015c366004611044565b6105aa565b61013961016f366004611044565b610700565b61017d60045481565b6040519081526020015b60405180910390f35b6101be61019e36600461105f565b600260209081526000928352604080842090915290825290205460ff1681565b6040519015158152602001610187565b6003546101e1906001600160a01b031681565b6040516001600160a01b039091168152602001610187565b61017d60085481565b61017d600a5481565b61017d60075481565b610139610222366004610fed565b61081e565b610139610916565b6000546001600160a01b03166101e1565b61017d60065481565b61017d60095481565b61017d60055481565b610139610269366004611044565b61094c565b61013961027c3660046110a1565b6109e4565b6101e17f000000000000000000000000000000000000000000000000000000000000000081565b6000546001600160a01b031633146102db5760405162461bcd60e51b81526004016102d290611165565b60405180910390fd5b8060000361032b5760405162461bcd60e51b815260206004820181905260248201527f5f74696d65546f5265636c61696d526577617264732063616e2774206265203060448201526064016102d2565b60075481116103885760405162461bcd60e51b8152602060048201526024808201527f76616c7565206c657373207468616e2074696d65456c6170736564466f7255706044820152636461746560e01b60648201526084016102d2565b600a55565b6003546001600160a01b031633146103e75760405162461bcd60e51b815260206004820152601f60248201527f63616c6c65722063616e277420757064617465206d65726b6c6520726f6f740060448201526064016102d2565b6007546005546103f790426111b0565b1015806104045750600554155b6104625760405162461bcd60e51b815260206004820152602960248201527f43616e6e6f7420757064617465206265666f72652074696d65456c6170736564604482015268466f7255706461746560b81b60648201526084016102d2565b6040516370a0823160e01b815230600482015281907f00000000000000000000000000000000000000000000000000000000000000006001600160a01b0316906370a0823190602401602060405180830381865afa1580156104c8573d6000803e3d6000fd5b505050506040513d601f19601f820116820180604052508101906104ec91906111c3565b10156105455760405162461bcd60e51b815260206004820152602260248201527f42616c616e6365206c657373207468616e206d6178416d6f756e74546f436c61604482015261696d60f01b60648201526084016102d2565b4260055560018054906000610559836111dc565b909155505060006009556008819055600482905560408051838152602081018390527fecb6e184c8c1ff50ab199b30650a76b7eb56fe2f261becc6284e0a3a1707be48910160405180910390a15050565b6000546001600160a01b031633146105d45760405162461bcd60e51b81526004016102d290611165565b600a546005546105e490426111b0565b101561063e5760405162461bcd60e51b815260206004820152602360248201527f74696d65206c657373207468616e2074696d65546f5265636c61696d5265776160448201526272647360e81b60648201526084016102d2565b6040516370a0823160e01b81523060048201526106fd9082906001600160a01b037f000000000000000000000000000000000000000000000000000000000000000016906370a0823190602401602060405180830381865afa1580156106a8573d6000803e3d6000fd5b505050506040513d601f19601f820116820180604052508101906106cc91906111c3565b6001600160a01b037f0000000000000000000000000000000000000000000000000000000000000000169190610bf9565b50565b6000546001600160a01b0316331461072a5760405162461bcd60e51b81526004016102d290611165565b6001600160a01b0381166107805760405162461bcd60e51b815260206004820152601e60248201527f5f6d65726b6c65526f6f7441646d696e2063616e2774206265207a65726f000060448201526064016102d2565b6000546001600160a01b03166001600160a01b0316816001600160a01b0316036107fc5760405162461bcd60e51b815260206004820152602760248201527f5f6d65726b6c65526f6f7441646d696e2063616e27742062652073616d652061604482015266399027bbb732b960c91b60648201526084016102d2565b600380546001600160a01b0319166001600160a01b0392909216919091179055565b6000546001600160a01b031633146108485760405162461bcd60e51b81526004016102d290611165565b806000036108985760405162461bcd60e51b815260206004820181905260248201527f5f74696d65456c6170736564466f725570646174652063616e2774206265203060448201526064016102d2565b6007546006546108a890426111b0565b101561090d5760405162461bcd60e51b815260206004820152602e60248201527f43616e6e6f7420757064617465206265666f72652074696d65456c617073656460448201526d466f7255706461746520656e647360901b60648201526084016102d2565b42600655600755565b6000546001600160a01b031633146109405760405162461bcd60e51b81526004016102d290611165565b61094a6000610c50565b565b6000546001600160a01b031633146109765760405162461bcd60e51b81526004016102d290611165565b6001600160a01b0381166109db5760405162461bcd60e51b815260206004820152602660248201527f4f776e61626c653a206e6577206f776e657220697320746865207a65726f206160448201526564647265737360d01b60648201526084016102d2565b6106fd81610c50565b600454610a275760405162461bcd60e51b8152602060048201526011602482015270115b5c1d1e4813595c9adb1948149bdbdd607a1b60448201526064016102d2565b600154600090815260026020908152604080832033845290915290205460ff1615610a8d5760405162461bcd60e51b815260206004820152601660248201527514995dd85c9908185b1c9958591e4818db185a5b595960521b60448201526064016102d2565b6000600954600854610a9f91906111b0565b905060008111610af15760405162461bcd60e51b815260206004820152601d60248201527f416c6c20726577617264732068617665206265656e20436c61696d656400000060448201526064016102d2565b610afc833384610ca0565b610b385760405162461bcd60e51b815260206004820152600d60248201526c24b73b30b634b210283937b7b360991b60448201526064016102d2565b6001805460009081526002602090815260408083203384529091528120805460ff1916909217909155818310610b6e5781610b70565b825b90508060096000828254610b8491906111f5565b90915550610bbe90506001600160a01b037f0000000000000000000000000000000000000000000000000000000000000000163383610bf9565b60405181815233907fe2403640ba68fed3a2f88b7557551d1993f84b99bb10ff833f0cf8db0c5e04869060200160405180910390a250505050565b604080516001600160a01b038416602482015260448082018490528251808303909101815260649091019091526020810180516001600160e01b031663a9059cbb60e01b179052610c4b908490610d0e565b505050565b600080546001600160a01b038381166001600160a01b0319831681178455604051919092169283917f8be0079c531659141344cd1fd0a4f28419497f9722a3daafe3b4186f6b6457e09190a35050565b604080516001600160a01b0384166020820152908101829052600090819060600160408051601f1981840301815282825280516020918201209083015201604051602081830303815290604052805190602001209050610d038560045483610de0565b9150505b9392505050565b6000610d63826040518060400160405280602081526020017f5361666545524332303a206c6f772d6c6576656c2063616c6c206661696c6564815250856001600160a01b0316610df69092919063ffffffff16565b805190915015610c4b5780806020019051810190610d819190611208565b610c4b5760405162461bcd60e51b815260206004820152602a60248201527f5361666545524332303a204552433230206f7065726174696f6e20646964206e6044820152691bdd081cdd58d8d9595960b21b60648201526084016102d2565b600082610ded8584610e0d565b14949350505050565b6060610e058484600085610e83565b949350505050565b600081815b8451811015610e79576000858281518110610e2f57610e2f61122a565b60200260200101519050808311610e555760008381526020829052604090209250610e66565b600081815260208490526040902092505b5080610e71816111dc565b915050610e12565b5090505b92915050565b606082471015610ee45760405162461bcd60e51b815260206004820152602660248201527f416464726573733a20696e73756666696369656e742062616c616e636520666f6044820152651c8818d85b1b60d21b60648201526084016102d2565b6001600160a01b0385163b610f3b5760405162461bcd60e51b815260206004820152601d60248201527f416464726573733a2063616c6c20746f206e6f6e2d636f6e747261637400000060448201526064016102d2565b600080866001600160a01b03168587604051610f579190611264565b60006040518083038185875af1925050503d8060008114610f94576040519150601f19603f3d011682016040523d82523d6000602084013e610f99565b606091505b5091509150610fa9828286610fb4565b979650505050505050565b60608315610fc3575081610d07565b825115610fd35782518084602001fd5b8160405162461bcd60e51b81526004016102d29190611280565b600060208284031215610fff57600080fd5b5035919050565b6000806040838503121561101957600080fd5b50508035926020909101359150565b80356001600160a01b038116811461103f57600080fd5b919050565b60006020828403121561105657600080fd5b610d0782611028565b6000806040838503121561107257600080fd5b8235915061108260208401611028565b90509250929050565b634e487b7160e01b600052604160045260246000fd5b600080604083850312156110b457600080fd5b823567ffffffffffffffff808211156110cc57600080fd5b818501915085601f8301126110e057600080fd5b81356020828211156110f4576110f461108b565b8160051b604051601f19603f830116810181811086821117156111195761111961108b565b60405292835281830193508481018201928984111561113757600080fd5b948201945b838610156111555785358552948201949382019361113c565b9997909101359750505050505050565b6020808252818101527f4f776e61626c653a2063616c6c6572206973206e6f7420746865206f776e6572604082015260600190565b634e487b7160e01b600052601160045260246000fd5b81810381811115610e7d57610e7d61119a565b6000602082840312156111d557600080fd5b5051919050565b6000600182016111ee576111ee61119a565b5060010190565b80820180821115610e7d57610e7d61119a565b60006020828403121561121a57600080fd5b81518015158114610d0757600080fd5b634e487b7160e01b600052603260045260246000fd5b60005b8381101561125b578181015183820152602001611243565b50506000910152565b60008251611276818460208701611240565b9190910192915050565b602081526000825180602084015261129f816040850160208701611240565b601f01601f1916919091016040019291505056fea2646970667358221220934f914c9f22307802d22883fe5b658910d06c022966a338ea26dca8c6313afc64736f6c63430008110033",
  "devdoc": {
    "details": "Contract that distributes rewards to users based on a merkle proof that is computed offchain and updated on a regular basis by the admin. The contract assumes that rewardToken balance will be transferred directly by the program creator. The merkle root can be updated by the admin only if block.timestamp >= _timeElapsedForUpdate. Rewards will be claimed on a first come first serve basis until the total amount claimed is less than the cap set for the ongoing epoch. Admin can reclaim unused rewards after a certain amount of inactivity",
    "kind": "dev",
    "methods": {
      "claimReward(bytes32[],uint256)": {
        "params": {
          "amount": "The amount that can be claimed by msg.sender.",
          "proof": "The merkle proof for msg.senders distribution."
        }
      },
      "constructor": {
        "params": {
          "_timeElapsedForUpdate": "The time after which the next distribution can be updated.",
          "_timeToReclaimRewards": "The time after which an admin can claim unused rewards.",
          "owner": "address of the owner.",
          "rewardTokenAddress": "address of the token that will be used to pay rewards."
        }
      },
      "owner()": {
        "details": "Returns the address of the current owner."
      },
      "reclaimUnusedReward(address)": {
        "params": {
          "account": "The address of the account to which the unused tokens need to be transferred."
        }
      },
      "renounceOwnership()": {
        "details": "Leaves the contract without owner. It will not be possible to call `onlyOwner` functions anymore. Can only be called by the current owner. NOTE: Renouncing ownership will leave the contract without an owner, thereby removing any functionality that is only available to the owner."
      },
      "transferOwnership(address)": {
        "details": "Transfers ownership of the contract to a new account (`newOwner`). Can only be called by the current owner."
      },
      "updateMerkleRoot(bytes32,uint256)": {
        "params": {
          "_maxAmountToClaim": "Total amount of tokens that can be claimed during an epoch.",
          "_merkleRoot": "The merkleRoot of the reward distribution."
        }
      },
      "updateMerkleRootAdmin(address)": {
        "params": {
          "_merkleRootAdmin": "new merkleRootAdmin value."
        }
      },
      "updateTimeElapsedForUpdate(uint256)": {
        "details": "don't allow to update unless previous time has passed",
        "params": {
          "_timeElapsedForUpdate": "new timeElapsedForUpdate value."
        }
      },
      "updateTimeToReclaimRewards(uint256)": {
        "params": {
          "_timeToReclaimRewards": "new timeToReclaimRewards value. TODO: admin can manipulate this, add a check on times"
        }
      }
    },
    "stateVariables": {
      "epochNonce": {
        "details": "as a merkle root update is needed to start the rewards, the initial nonce is 1"
      }
    },
    "version": 1
  },
  "userdoc": {
    "events": {
      "MerkleRootUpdated(bytes32,uint256)": {
        "notice": "Emitted when the merkle root is updated."
      },
      "RewardPaid(address,uint256)": {
        "notice": "Emitted when reward is paid to a user."
      }
    },
    "kind": "user",
    "methods": {
      "addressExists(uint256,address)": {
        "notice": "This mapping is used to check if an address has already claimed amount. Every epoch has unique nonce."
      },
      "amountClaimed()": {
        "notice": "the number of tokens claimed in a given epoch."
      },
      "claimReward(bytes32[],uint256)": {
        "notice": "Users can claim the rewards allocated to them."
      },
      "lastUpdated()": {
        "notice": "The time when the merkleRoot was updated."
      },
      "lastUpdatedTimeElapsed()": {
        "notice": "The time when the timeElapsedForUpdate was updated."
      },
      "maxAmountToClaim()": {
        "notice": "The maximum amount of tokens that can be claimed in a given epoch."
      },
      "merkleRoot()": {
        "notice": "The merkle root of the distribution for the current epoch."
      },
      "merkleRootAdmin()": {
        "notice": "Address that can update the merkle root"
      },
      "reclaimUnusedReward(address)": {
        "notice": "Allows admin to reclaim unused rewards after a period of inactivity."
      },
      "rewardToken()": {
        "notice": "Address of the token used to give rebates."
      },
      "timeElapsedForUpdate()": {
        "notice": "The time after which the merkle root can be updated."
      },
      "timeToReclaimRewards()": {
        "notice": "the time after which an admin can claim unused rewards."
      },
      "updateMerkleRoot(bytes32,uint256)": {
        "notice": "Admin updates the merkleRoot and maximum amount to claim for a particular period."
      },
      "updateMerkleRootAdmin(address)": {
        "notice": "allows admin to update merkleRootAdmin variable"
      },
      "updateTimeElapsedForUpdate(uint256)": {
        "notice": "allows admin to update timeElapsedForUpdate variable"
      },
      "updateTimeToReclaimRewards(uint256)": {
        "notice": "allows admin to update timeToReclaimRewards variable"
      }
    },
    "version": 1
  },
  "storageLayout": {
    "storage": [
      {
        "astId": 10071,
        "contract": "contracts/ReferralHandler.sol:ReferralHandler",
        "label": "_owner",
        "offset": 0,
        "slot": "0",
        "type": "t_address"
      },
      {
        "astId": 15514,
        "contract": "contracts/ReferralHandler.sol:ReferralHandler",
        "label": "epochNonce",
        "offset": 0,
        "slot": "1",
        "type": "t_uint256"
      },
      {
        "astId": 15521,
        "contract": "contracts/ReferralHandler.sol:ReferralHandler",
        "label": "addressExists",
        "offset": 0,
        "slot": "2",
        "type": "t_mapping(t_uint256,t_mapping(t_address,t_bool))"
      },
      {
        "astId": 15528,
        "contract": "contracts/ReferralHandler.sol:ReferralHandler",
        "label": "merkleRootAdmin",
        "offset": 0,
        "slot": "3",
        "type": "t_address"
      },
      {
        "astId": 15531,
        "contract": "contracts/ReferralHandler.sol:ReferralHandler",
        "label": "merkleRoot",
        "offset": 0,
        "slot": "4",
        "type": "t_bytes32"
      },
      {
        "astId": 15534,
        "contract": "contracts/ReferralHandler.sol:ReferralHandler",
        "label": "lastUpdated",
        "offset": 0,
        "slot": "5",
        "type": "t_uint256"
      },
      {
        "astId": 15537,
        "contract": "contracts/ReferralHandler.sol:ReferralHandler",
        "label": "lastUpdatedTimeElapsed",
        "offset": 0,
        "slot": "6",
        "type": "t_uint256"
      },
      {
        "astId": 15540,
        "contract": "contracts/ReferralHandler.sol:ReferralHandler",
        "label": "timeElapsedForUpdate",
        "offset": 0,
        "slot": "7",
        "type": "t_uint256"
      },
      {
        "astId": 15543,
        "contract": "contracts/ReferralHandler.sol:ReferralHandler",
        "label": "maxAmountToClaim",
        "offset": 0,
        "slot": "8",
        "type": "t_uint256"
      },
      {
        "astId": 15546,
        "contract": "contracts/ReferralHandler.sol:ReferralHandler",
        "label": "amountClaimed",
        "offset": 0,
        "slot": "9",
        "type": "t_uint256"
      },
      {
        "astId": 15549,
        "contract": "contracts/ReferralHandler.sol:ReferralHandler",
        "label": "timeToReclaimRewards",
        "offset": 0,
        "slot": "10",
        "type": "t_uint256"
      }
    ],
    "types": {
      "t_address": {
        "encoding": "inplace",
        "label": "address",
        "numberOfBytes": "20"
      },
      "t_bool": {
        "encoding": "inplace",
        "label": "bool",
        "numberOfBytes": "1"
      },
      "t_bytes32": {
        "encoding": "inplace",
        "label": "bytes32",
        "numberOfBytes": "32"
      },
      "t_mapping(t_address,t_bool)": {
        "encoding": "mapping",
        "key": "t_address",
        "label": "mapping(address => bool)",
        "numberOfBytes": "32",
        "value": "t_bool"
      },
      "t_mapping(t_uint256,t_mapping(t_address,t_bool))": {
        "encoding": "mapping",
        "key": "t_uint256",
        "label": "mapping(uint256 => mapping(address => bool))",
        "numberOfBytes": "32",
        "value": "t_mapping(t_address,t_bool)"
      },
      "t_uint256": {
        "encoding": "inplace",
        "label": "uint256",
        "numberOfBytes": "32"
      }
    }
  }
}