{
  "address": "0x78C8b241005268895F8aB78c0fe8f72867CD63c2",
  "abi": [
    {
      "inputs": [
        {
          "internalType": "Token18",
          "name": "asset_",
          "type": "address"
        },
        {
          "internalType": "contract IController",
          "name": "controller_",
          "type": "address"
        },
        {
          "internalType": "contract IProduct",
          "name": "long_",
          "type": "address"
        },
        {
          "internalType": "contract IProduct",
          "name": "short_",
          "type": "address"
        },
        {
          "internalType": "UFixed18",
          "name": "targetLeverage_",
          "type": "uint256"
        },
        {
          "internalType": "UFixed18",
          "name": "maxCollateral_",
          "type": "uint256"
        }
      ],
      "stateMutability": "nonpayable",
      "type": "constructor"
    },
    {
      "inputs": [],
      "name": "BalancedVaultDepositLimitExceeded",
      "type": "error"
    },
    {
      "inputs": [],
      "name": "BalancedVaultRedemptionLimitExceeded",
      "type": "error"
    },
    {
      "inputs": [
        {
          "internalType": "uint256",
          "name": "value",
          "type": "uint256"
        }
      ],
      "name": "Fixed18OverflowError",
      "type": "error"
    },
    {
      "inputs": [
        {
          "internalType": "int256",
          "name": "value",
          "type": "int256"
        }
      ],
      "name": "UFixed18UnderflowError",
      "type": "error"
    },
    {
      "inputs": [
        {
          "internalType": "uint256",
          "name": "version",
          "type": "uint256"
        }
      ],
      "name": "UInitializableAlreadyInitializedError",
      "type": "error"
    },
    {
      "inputs": [],
      "name": "UInitializableNotInitializingError",
      "type": "error"
    },
    {
      "inputs": [],
      "name": "UInitializableZeroVersionError",
      "type": "error"
    },
    {
      "anonymous": false,
      "inputs": [
        {
          "indexed": true,
          "internalType": "address",
          "name": "account",
          "type": "address"
        },
        {
          "indexed": true,
          "internalType": "address",
          "name": "spender",
          "type": "address"
        },
        {
          "indexed": false,
          "internalType": "UFixed18",
          "name": "value",
          "type": "uint256"
        }
      ],
      "name": "Approval",
      "type": "event"
    },
    {
      "anonymous": false,
      "inputs": [
        {
          "indexed": true,
          "internalType": "address",
          "name": "sender",
          "type": "address"
        },
        {
          "indexed": true,
          "internalType": "address",
          "name": "account",
          "type": "address"
        },
        {
          "indexed": false,
          "internalType": "UFixed18",
          "name": "assets",
          "type": "uint256"
        }
      ],
      "name": "Claim",
      "type": "event"
    },
    {
      "anonymous": false,
      "inputs": [
        {
          "indexed": false,
          "internalType": "contract IProduct",
          "name": "product",
          "type": "address"
        },
        {
          "indexed": false,
          "internalType": "UFixed18",
          "name": "targetCollateral",
          "type": "uint256"
        }
      ],
      "name": "CollateralUpdated",
      "type": "event"
    },
    {
      "anonymous": false,
      "inputs": [
        {
          "indexed": true,
          "internalType": "address",
          "name": "sender",
          "type": "address"
        },
        {
          "indexed": true,
          "internalType": "address",
          "name": "account",
          "type": "address"
        },
        {
          "indexed": false,
          "internalType": "uint256",
          "name": "version",
          "type": "uint256"
        },
        {
          "indexed": false,
          "internalType": "UFixed18",
          "name": "assets",
          "type": "uint256"
        }
      ],
      "name": "Deposit",
      "type": "event"
    },
    {
      "anonymous": false,
      "inputs": [
        {
          "indexed": false,
          "internalType": "uint256",
          "name": "version",
          "type": "uint256"
        }
      ],
      "name": "Initialized",
      "type": "event"
    },
    {
      "anonymous": false,
      "inputs": [
        {
          "indexed": false,
          "internalType": "contract IProduct",
          "name": "product",
          "type": "address"
        },
        {
          "indexed": false,
          "internalType": "UFixed18",
          "name": "targetPosition",
          "type": "uint256"
        }
      ],
      "name": "PositionUpdated",
      "type": "event"
    },
    {
      "anonymous": false,
      "inputs": [
        {
          "indexed": true,
          "internalType": "address",
          "name": "sender",
          "type": "address"
        },
        {
          "indexed": true,
          "internalType": "address",
          "name": "account",
          "type": "address"
        },
        {
          "indexed": false,
          "internalType": "uint256",
          "name": "version",
          "type": "uint256"
        },
        {
          "indexed": false,
          "internalType": "UFixed18",
          "name": "shares",
          "type": "uint256"
        }
      ],
      "name": "Redemption",
      "type": "event"
    },
    {
      "anonymous": false,
      "inputs": [
        {
          "indexed": true,
          "internalType": "address",
          "name": "from",
          "type": "address"
        },
        {
          "indexed": true,
          "internalType": "address",
          "name": "to",
          "type": "address"
        },
        {
          "indexed": false,
          "internalType": "UFixed18",
          "name": "value",
          "type": "uint256"
        }
      ],
      "name": "Transfer",
      "type": "event"
    },
    {
      "inputs": [
        {
          "internalType": "address",
          "name": "",
          "type": "address"
        },
        {
          "internalType": "address",
          "name": "",
          "type": "address"
        }
      ],
      "name": "allowance",
      "outputs": [
        {
          "internalType": "UFixed18",
          "name": "",
          "type": "uint256"
        }
      ],
      "stateMutability": "view",
      "type": "function"
    },
    {
      "inputs": [
        {
          "internalType": "address",
          "name": "spender",
          "type": "address"
        },
        {
          "internalType": "UFixed18",
          "name": "amount",
          "type": "uint256"
        }
      ],
      "name": "approve",
      "outputs": [
        {
          "internalType": "bool",
          "name": "",
          "type": "bool"
        }
      ],
      "stateMutability": "nonpayable",
      "type": "function"
    },
    {
      "inputs": [],
      "name": "asset",
      "outputs": [
        {
          "internalType": "Token18",
          "name": "",
          "type": "address"
        }
      ],
      "stateMutability": "view",
      "type": "function"
    },
    {
      "inputs": [
        {
          "internalType": "address",
          "name": "account",
          "type": "address"
        }
      ],
      "name": "balanceOf",
      "outputs": [
        {
          "internalType": "UFixed18",
          "name": "",
          "type": "uint256"
        }
      ],
      "stateMutability": "view",
      "type": "function"
    },
    {
      "inputs": [
        {
          "internalType": "address",
          "name": "account",
          "type": "address"
        }
      ],
      "name": "claim",
      "outputs": [],
      "stateMutability": "nonpayable",
      "type": "function"
    },
    {
      "inputs": [],
      "name": "collateral",
      "outputs": [
        {
          "internalType": "contract ICollateral",
          "name": "",
          "type": "address"
        }
      ],
      "stateMutability": "view",
      "type": "function"
    },
    {
      "inputs": [],
      "name": "controller",
      "outputs": [
        {
          "internalType": "contract IController",
          "name": "",
          "type": "address"
        }
      ],
      "stateMutability": "view",
      "type": "function"
    },
    {
      "inputs": [
        {
          "internalType": "UFixed18",
          "name": "shares",
          "type": "uint256"
        }
      ],
      "name": "convertToAssets",
      "outputs": [
        {
          "internalType": "UFixed18",
          "name": "",
          "type": "uint256"
        }
      ],
      "stateMutability": "view",
      "type": "function"
    },
    {
      "inputs": [
        {
          "internalType": "UFixed18",
          "name": "assets",
          "type": "uint256"
        }
      ],
      "name": "convertToShares",
      "outputs": [
        {
          "internalType": "UFixed18",
          "name": "",
          "type": "uint256"
        }
      ],
      "stateMutability": "view",
      "type": "function"
    },
    {
      "inputs": [],
      "name": "decimals",
      "outputs": [
        {
          "internalType": "uint8",
          "name": "",
          "type": "uint8"
        }
      ],
      "stateMutability": "pure",
      "type": "function"
    },
    {
      "inputs": [
        {
          "internalType": "UFixed18",
          "name": "assets",
          "type": "uint256"
        },
        {
          "internalType": "address",
          "name": "account",
          "type": "address"
        }
      ],
      "name": "deposit",
      "outputs": [],
      "stateMutability": "nonpayable",
      "type": "function"
    },
    {
      "inputs": [
        {
          "internalType": "string",
          "name": "name_",
          "type": "string"
        },
        {
          "internalType": "string",
          "name": "symbol_",
          "type": "string"
        }
      ],
      "name": "initialize",
      "outputs": [],
      "stateMutability": "nonpayable",
      "type": "function"
    },
    {
      "inputs": [],
      "name": "long",
      "outputs": [
        {
          "internalType": "contract IProduct",
          "name": "",
          "type": "address"
        }
      ],
      "stateMutability": "view",
      "type": "function"
    },
    {
      "inputs": [],
      "name": "maxCollateral",
      "outputs": [
        {
          "internalType": "UFixed18",
          "name": "",
          "type": "uint256"
        }
      ],
      "stateMutability": "view",
      "type": "function"
    },
    {
      "inputs": [
        {
          "internalType": "address",
          "name": "",
          "type": "address"
        }
      ],
      "name": "maxDeposit",
      "outputs": [
        {
          "internalType": "UFixed18",
          "name": "",
          "type": "uint256"
        }
      ],
      "stateMutability": "view",
      "type": "function"
    },
    {
      "inputs": [
        {
          "internalType": "address",
          "name": "account",
          "type": "address"
        }
      ],
      "name": "maxRedeem",
      "outputs": [
        {
          "internalType": "UFixed18",
          "name": "",
          "type": "uint256"
        }
      ],
      "stateMutability": "view",
      "type": "function"
    },
    {
      "inputs": [],
      "name": "name",
      "outputs": [
        {
          "internalType": "string",
          "name": "",
          "type": "string"
        }
      ],
      "stateMutability": "view",
      "type": "function"
    },
    {
      "inputs": [
        {
          "internalType": "UFixed18",
          "name": "shares",
          "type": "uint256"
        },
        {
          "internalType": "address",
          "name": "account",
          "type": "address"
        }
      ],
      "name": "redeem",
      "outputs": [],
      "stateMutability": "nonpayable",
      "type": "function"
    },
    {
      "inputs": [],
      "name": "short",
      "outputs": [
        {
          "internalType": "contract IProduct",
          "name": "",
          "type": "address"
        }
      ],
      "stateMutability": "view",
      "type": "function"
    },
    {
      "inputs": [],
      "name": "symbol",
      "outputs": [
        {
          "internalType": "string",
          "name": "",
          "type": "string"
        }
      ],
      "stateMutability": "view",
      "type": "function"
    },
    {
      "inputs": [],
      "name": "sync",
      "outputs": [],
      "stateMutability": "nonpayable",
      "type": "function"
    },
    {
      "inputs": [],
      "name": "targetLeverage",
      "outputs": [
        {
          "internalType": "UFixed18",
          "name": "",
          "type": "uint256"
        }
      ],
      "stateMutability": "view",
      "type": "function"
    },
    {
      "inputs": [],
      "name": "totalAssets",
      "outputs": [
        {
          "internalType": "UFixed18",
          "name": "",
          "type": "uint256"
        }
      ],
      "stateMutability": "view",
      "type": "function"
    },
    {
      "inputs": [],
      "name": "totalSupply",
      "outputs": [
        {
          "internalType": "UFixed18",
          "name": "",
          "type": "uint256"
        }
      ],
      "stateMutability": "view",
      "type": "function"
    },
    {
      "inputs": [],
      "name": "totalUnclaimed",
      "outputs": [
        {
          "internalType": "UFixed18",
          "name": "",
          "type": "uint256"
        }
      ],
      "stateMutability": "view",
      "type": "function"
    },
    {
      "inputs": [
        {
          "internalType": "address",
          "name": "to",
          "type": "address"
        },
        {
          "internalType": "UFixed18",
          "name": "amount",
          "type": "uint256"
        }
      ],
      "name": "transfer",
      "outputs": [
        {
          "internalType": "bool",
          "name": "",
          "type": "bool"
        }
      ],
      "stateMutability": "nonpayable",
      "type": "function"
    },
    {
      "inputs": [
        {
          "internalType": "address",
          "name": "from",
          "type": "address"
        },
        {
          "internalType": "address",
          "name": "to",
          "type": "address"
        },
        {
          "internalType": "UFixed18",
          "name": "amount",
          "type": "uint256"
        }
      ],
      "name": "transferFrom",
      "outputs": [
        {
          "internalType": "bool",
          "name": "",
          "type": "bool"
        }
      ],
      "stateMutability": "nonpayable",
      "type": "function"
    },
    {
      "inputs": [
        {
          "internalType": "address",
          "name": "account",
          "type": "address"
        }
      ],
      "name": "unclaimed",
      "outputs": [
        {
          "internalType": "UFixed18",
          "name": "",
          "type": "uint256"
        }
      ],
      "stateMutability": "view",
      "type": "function"
    }
  ],
  "transactionHash": "0xa2af1618c654ae19819795d506675ddf9249d0f2be02f9df4f5ae5281db22985",
  "args": [
    "0x52C64b8998eB7C80b6F526E99E29ABdcC86B841b",
    "0xa59ef0208418559770a48d7ae4f260a28763167b",
    "0x1cD33f4e6EdeeE8263aa07924c2760CF2EC8aAD0",
    "0x4243b34374cfB0a12f184b92F52035d03d4f7056",
    "2500000000000000000",
    "3000000000000000000000000"
  ],
  "numDeployments": 1,
  "solcInputHash": "94ea295a7a6bc6b98a398de94441381f",
  "bytecode": "0x6101606040523480156200001257600080fd5b5060405162003b3838038062003b388339810160408190526200003591620000f5565b6001600160a01b0380871661014052851660808190526040805163d8dfeb4560e01b8152905163d8dfeb45916004808201926020929091908290030181865afa15801562000087573d6000803e3d6000fd5b505050506040513d601f19601f82011682018060405250810190620000ad919062000171565b6001600160a01b0390811660a05293841660c0529190921660e052610100919091526101205250620001989050565b6001600160a01b0381168114620000f257600080fd5b50565b60008060008060008060c087890312156200010f57600080fd5b86516200011c81620000dc565b60208801519096506200012f81620000dc565b60408801519095506200014281620000dc565b60608801519094506200015581620000dc565b809350506080870151915060a087015190509295509295509295565b6000602082840312156200018457600080fd5b81516200019181620000dc565b9392505050565b60805160a05160c05160e0516101005161012051610140516138036200033560003960008181610300015281816106d20152818161080f015281816109b801526114720152600081816102a30152818161168c01526116c10152600081816103cf01526122a90152600081816102d901528181610cb201528181610ffc0152818161114f015281816113da01528181611b5901528181611bd601528181611d1601528181611fb70152818161201f015281816123040152818161248201526125be01526000818161021101528181610c3001528181610f6d0152818161109a01528181611321015281816119cf01528181611a4c01528181611c9f01528181611d9301528181611fd801528181611ffe015281816120490152818161209401528181612215015281816122da015281816123c701526125300152600081816103f601528181610831015281816110c50152818161117d0152818161135001528181611402015281816123f2015281816124aa015281816128da015261298c01526000818161045b01528181611f14015261216601526138036000f3fe608060405234801561001057600080fd5b50600436106101c45760003560e01c8063505bd3da116100f9578063c96f14b811610097578063d905777e11610071578063d905777e14610418578063dd62ed3e1461042b578063f77c479114610456578063fff6cae91461047d57600080fd5b8063c96f14b8146103c2578063d6c946ea146103ca578063d8dfeb45146103f157600080fd5b80637bde82f2116100d35780637bde82f21461038157806395d89b4114610394578063a9059cbb1461039c578063c6e6f592146103af57600080fd5b8063505bd3da146103485780636e553f651461035b57806370a082311461036e57600080fd5b806323b872dd1161016657806338bea4cb1161014057806338bea4cb146102d457806338d52e0f146102fb578063402d267d146103225780634cd88b761461033557600080fd5b806323b872dd1461028b578063251f47c11461029e578063313ce567146102c557600080fd5b806307bfce37116101a257806307bfce371461020c578063095ea7b31461024b57806318160ddd1461026e5780631e83409a1461027657600080fd5b806301e1d114146101c957806306fdde03146101e457806307a2d13a146101f9575b600080fd5b6101d1610485565b6040519081526020015b60405180910390f35b6101ec6104a4565b6040516101db9190613198565b6101d16102073660046131cb565b610532565b6102337f000000000000000000000000000000000000000000000000000000000000000081565b6040516001600160a01b0390911681526020016101db565b61025e610259366004613200565b61056f565b60405190151581526020016101db565b6101d16105dc565b61028961028436600461322a565b6105f5565b005b61025e610299366004613245565b610704565b6101d17f000000000000000000000000000000000000000000000000000000000000000081565b604051601281526020016101db565b6102337f000000000000000000000000000000000000000000000000000000000000000081565b6102337f000000000000000000000000000000000000000000000000000000000000000081565b6101d161033036600461322a565b610731565b610289610343366004613324565b61074a565b6101d161035636600461322a565b6108b2565b610289610369366004613388565b6108cb565b6101d161037c36600461322a565b6109ef565b61028961038f366004613388565b610a08565b6101ec610b22565b61025e6103aa366004613200565b610b2f565b6101d16103bd3660046131cb565b610b50565b6101d1610b86565b6101d17f000000000000000000000000000000000000000000000000000000000000000081565b6102337f000000000000000000000000000000000000000000000000000000000000000081565b6101d161042636600461322a565b610b9f565b6101d16104393660046133b4565b600260209081526000928352604080842090915290825290205481565b6102337f000000000000000000000000000000000000000000000000000000000000000081565b610289610bc4565b6000806104926000610be1565b50905061049e81610df1565b91505090565b600080546104b1906133de565b80601f01602080910402602001604051908101604052809291908181526020018280546104dd906133de565b801561052a5780601f106104ff5761010080835404028352916020019161052a565b820191906000526020600020905b81548152906001019060200180831161050d57829003601f168201915b505050505081565b60008061053f6000610be1565b50905061054b81610df1565b61055482610e55565b604083015260208201526105688184610e84565b9392505050565b3360008181526002602090815260408083206001600160a01b038716808552925280832085905551919290917f8c5be1e5ebec7d5bd14f71427d1e84f3dd0314c0f7b2291e5b200ac8c7c3b925906105ca9086815260200190565b60405180910390a35060015b92915050565b6000806105e96000610be1565b50905061049e81610e55565b600061060082610eb3565b506001600160a01b038316600090815260056020526040812080546006549290915591925061062f81836112f8565b6006556040518281526001600160a01b0385169033907f70eb43c4a8ae8c40502dcf22436c509c28d6ff421cf07c491be56984bd9870689060200160405180910390a3816000808061067f611304565b91945092509050600061069c8261069686866114aa565b906114aa565b90506106a881876114b6565b156106bb576106b88582886114ca565b94505b6106c588866114e1565b6106f96001600160a01b037f0000000000000000000000000000000000000000000000000000000000000000168a876114f8565b505050505050505050565b600061070f84610eb3565b505061071c84338461150c565b6107278484846115a9565b5060019392505050565b60008061073e6000610be1565b5090506105688161165c565b6001806107757f5db5abc19987c2b3729df7961b62b6bb0bae886dd47e3ce25bb3a3af34c6d80b5490565b1061079b57604051631e7a9d9560e01b8152600481018290526024015b60405180910390fd5b6107c47f5db5abc19987c2b3729df7961b62b6bb0bae886dd47e3ce25bb3a3af34c6d80b829055565b60017fad57d7911b7e3d6c3c79a68ba909a7f4ba41f9485e5207b12dee0d0c6af5398c5560006107f4848261345e565b506001610801838261345e565b506108556001600160a01b037f0000000000000000000000000000000000000000000000000000000000000000167f00000000000000000000000000000000000000000000000000000000000000006116e6565b60007fad57d7911b7e3d6c3c79a68ba909a7f4ba41f9485e5207b12dee0d0c6af5398c556040518181527fbe9b076dc5b65990cca9dd9d7366682482e7817a6f6bc7f4faf4dc32af497f32906020015b60405180910390a1505050565b6000806108be83610be1565b91505061056881846116fc565b60006108d682610eb3565b5090506108ec6108e58261165c565b8490611782565b1561090a57604051636726139b60e01b815260040160405180910390fd5b60075461091790846114aa565b60075580516009556001600160a01b0382166000908152600a602052604090205461094290846114aa565b6001600160a01b0383166000818152600a60209081526040808320949094558451600c8252918490209190915583518351908152908101869052909133917fdcbc1c05240f31ff3ad067ef1ee35ce4997762752e3a095284754544f4c709d7910160405180910390a36109df6001600160a01b037f0000000000000000000000000000000000000000000000000000000000000000163385611798565b6109ea8160006114e1565b505050565b6000806109fb83610be1565b91505061056881846117ad565b336001600160a01b03821614610a2357610a2381338461150c565b600080610a2f83610eb3565b91509150610a48610a41838386611833565b8590611782565b15610a66576040516322be0ced60e11b815260040160405180910390fd5b600854610a7390856114aa565b60085581516009556001600160a01b0383166000908152600b6020526040902054610a9e90856114aa565b6001600160a01b0384166000818152600b60209081526040808320949094558551600c8252918490209190915584518351908152908101879052909133917fa28d80c9910787c0c058ed9b50c577f1389264bf61563fa45529e0771976f562910160405180910390a3610b118385611855565b610b1c8260006114e1565b50505050565b600180546104b1906133de565b6000610b3a33610eb3565b5050610b473384846115a9565b50600192915050565b600080610b5d6000610be1565b509050610b6981610df1565b610b7282610e55565b6040830152602082015261056881846118e7565b600080610b936000610be1565b50905061049e81611916565b6000806000610bad84610be1565b91509150610bbc828286611833565b949350505050565b6000610bd06000610eb3565b509050610bde8160006114e1565b50565b610c0560405180606001604052806000815260200160008152602001600081525090565b610c2960405180606001604052806000815260200160008152602001600081525090565b6000610d377f00000000000000000000000000000000000000000000000000000000000000006001600160a01b031663c07f47d46040518163ffffffff1660e01b8152600401602060405180830381865afa158015610c8c573d6000803e3d6000fd5b505050506040513d601f19601f82011682018060405250810190610cb0919061351e565b7f00000000000000000000000000000000000000000000000000000000000000006001600160a01b031663c07f47d46040518163ffffffff1660e01b8152600401602060405180830381865afa158015610d0e573d6000803e3d6000fd5b505050506040513d601f19601f82011682018060405250810190610d32919061351e565b611945565b90506040518060600160405280828152602001610d5560095461195b565b8152602001610d756009546000908152600d602052604090206002015490565b8152506040518060600160405280838152602001610db7600c6000896001600160a01b03166001600160a01b031681526020019081526020016000205461195b565b81526001600160a01b03969096166000908152600c60209081526040808320548352600d8252909120600201549601959095529492505050565b600080600080610dff611304565b91945092509050600080610e178361069687876114aa565b610e266007546106968a611916565b9092509050610e358282611782565b610e40576000610e4a565b610e4a82826112f8565b979650505050505050565b6000600954826000015103610e6c57505060045490565b6105d6610e7b836007546118e7565b600454906114aa565b6000610e9283604001511590565b15610e9e5750806105d6565b602083015160408401516105689184916114ca565b610ed760405180606001604052806000815260200160008152602001600081525090565b610efb60405180606001604052806000815260200160008152602001600081525090565b610f0483611c42565b6009548251929450909250101561124357610f32610f2d600454610f2785610e55565b906112f8565b611e07565b610f3b82611916565b6006556000600781905560085581516009556040805160c081019182905263b7648fb960e01b9091523060c4820152807f00000000000000000000000000000000000000000000000000000000000000006001600160a01b031663b7648fb960e483016040805180830381865afa158015610fba573d6000803e3d6000fd5b505050506040513d601f19601f82011682018060405250810190610fde9190613586565b51815260405163b7648fb960e01b81523060048201526020909101907f00000000000000000000000000000000000000000000000000000000000000006001600160a01b03169063b7648fb9906024016040805180830381865afa15801561104a573d6000803e3d6000fd5b505050506040513d601f19601f8201168201806040525081019061106e9190613586565b51815260048054602083015260408051636610c76760e11b815230928101929092526001600160a01b037f0000000000000000000000000000000000000000000000000000000000000000811660248401529201917f0000000000000000000000000000000000000000000000000000000000000000169063cc218ece90604401602060405180830381865afa15801561110c573d6000803e3d6000fd5b505050506040513d601f19601f82011682018060405250810190611130919061351e565b8152604051636610c76760e11b81523060048201526001600160a01b037f0000000000000000000000000000000000000000000000000000000000000000811660248301526020909201917f0000000000000000000000000000000000000000000000000000000000000000169063cc218ece90604401602060405180830381865afa1580156111c4573d6000803e3d6000fd5b505050506040513d601f19601f820116820180604052508101906111e8919061351e565b81526020016111f684610df1565b905282516000908152600d602090815260409182902083518155908301516001820155908201516002820155606082015160038201556080820151600482015560a0909101516005909101555b6001600160a01b0383161580159061127357506001600160a01b0383166000908152600c60205260409020548151115b156112f3576001600160a01b0383166000908152600360205260409020546112aa9084906112a590610f2785846117ad565b611e1a565b6112b481846116fc565b6001600160a01b038416600090815260056020908152604080832093909355600a8152828220829055600b81528282208290558351600c909152919020555b915091565b600061056882846135b8565b604051636610c76760e11b81523060048201526001600160a01b037f000000000000000000000000000000000000000000000000000000000000000081166024830152600091829182917f00000000000000000000000000000000000000000000000000000000000000009091169063cc218ece90604401602060405180830381865afa158015611399573d6000803e3d6000fd5b505050506040513d601f19601f820116820180604052508101906113bd919061351e565b604051636610c76760e11b81523060048201526001600160a01b037f0000000000000000000000000000000000000000000000000000000000000000811660248301527f0000000000000000000000000000000000000000000000000000000000000000169063cc218ece90604401602060405180830381865afa158015611449573d6000803e3d6000fd5b505050506040513d601f19601f8201168201806040525081019061146d919061351e565b61149f7f00000000000000000000000000000000000000000000000000000000000000006001600160a01b0316611e8e565b925092509250909192565b600061056882846135cb565b60006114c28383611e9a565b159392505050565b6000816114d784866135de565b610bbc919061360b565b6114ea81611ecf565b6114f482826120db565b5050565b6109ea6001600160a01b0384168383612331565b6001600160a01b0380841660009081526002602090815260408083209386168352929052205461153e90600019612394565b1561154857505050565b6001600160a01b0380841660009081526002602090815260408083209386168352929052205461157890826112f8565b6001600160a01b03938416600090815260026020908152604080832095909616825293909352929091209190915550565b6001600160a01b0383166000908152600360205260409020546115cc90826112f8565b6001600160a01b0380851660009081526003602052604080822093909355908416815220546115fb90826114aa565b6001600160a01b0380841660008181526003602052604090819020939093559151908516907fddf252ad1be2c89b69c2b068fc378daa952ba7f163c4a11628f55a4df523b3ef9061164f9085815260200190565b60405180910390a3505050565b6000611667826123aa565b1561167457506000919050565b600061168560075461069685610df1565b90506116b17f000000000000000000000000000000000000000000000000000000000000000082611782565b6116bc576000610568565b6105687f0000000000000000000000000000000000000000000000000000000000000000826112f8565b6114f46001600160a01b03831682600019612650565b6001600160a01b0381166000908152600c602052604081205483510361173b57506001600160a01b0381166000908152600560205260409020546105d6565b6001600160a01b0382166000908152600b602052604090205461056890611763908590610e84565b6001600160a01b038416600090815260056020526040902054906114aa565b600061178e8383611e9a565b6002149392505050565b6109ea6001600160a01b038416833084612765565b6001600160a01b0381166000908152600c60205260408120548351036117ec57506001600160a01b0381166000908152600360205260409020546105d6565b6001600160a01b0382166000908152600a6020526040902054610568906118149085906118e7565b6001600160a01b038416600090815260036020526040902054906114aa565b600061183e846123aa565b1561184b57506000610568565b610bbc83836117ad565b6001600160a01b03821660009081526003602052604090205461187890826112f8565b6001600160a01b03831660009081526003602052604090205560045461189e90826112f8565b6004556040518181526000906001600160a01b038416907fddf252ad1be2c89b69c2b068fc378daa952ba7f163c4a11628f55a4df523b3ef906020015b60405180910390a35050565b60006118f583602001511590565b156119015750806105d6565b604083015160208401516105689184916114ca565b600060095482600001510361192d57505060065490565b6105d661193c83600854610e84565b600654906114aa565b60008183106119545781610568565b5090919050565b600080611ae7611999611978670de0b6b3a764000060001961361f565b6000868152600d60205260409020600301546119939061279d565b906127ca565b6000858152600d6020526040902054611ae1906119b59061279d565b60405163083fa70f60e21b815260048101889052611993907f00000000000000000000000000000000000000000000000000000000000000006001600160a01b0316906320fe9c3c906024016040805180830381865afa158015611a1d573d6000803e3d6000fd5b505050506040513d601f19601f82011682018060405250810190611a419190613537565b516001600160a01b037f0000000000000000000000000000000000000000000000000000000000000000166320fe9c3c611a7c8b60016135cb565b6040518263ffffffff1660e01b8152600401611a9a91815260200190565b6040805180830381865afa158015611ab6573d6000803e3d6000fd5b505050506040513d601f19601f82011682018060405250810190611ada9190613537565b51906127e9565b906127f5565b90506000611c06611b20611b05670de0b6b3a764000060001961361f565b6000878152600d60205260409020600401546119939061279d565b6000868152600d6020526040902060010154611ae190611b3f9061279d565b60405163083fa70f60e21b815260048101899052611993907f00000000000000000000000000000000000000000000000000000000000000006001600160a01b0316906320fe9c3c906024016040805180830381865afa158015611ba7573d6000803e3d6000fd5b505050506040513d601f19601f82011682018060405250810190611bcb9190613537565b516001600160a01b037f0000000000000000000000000000000000000000000000000000000000000000166320fe9c3c611a7c8c60016135cb565b9050610bbc611c3d6000611ae184611c3787611c37600d60008d81526020019081526020016000206005015461279d565b90612801565b61280d565b611c6660405180606001604052806000815260200160008152602001600081525090565b611c8a60405180606001604052806000815260200160008152602001600081525090565b60405163f667f89760e01b81523060048201527f00000000000000000000000000000000000000000000000000000000000000006001600160a01b03169063f667f89790602401600060405180830381600087803b158015611ceb57600080fd5b505af1158015611cff573d6000803e3d6000fd5b505060405163f667f89760e01b81523060048201527f00000000000000000000000000000000000000000000000000000000000000006001600160a01b0316925063f667f8979150602401600060405180830381600087803b158015611d6457600080fd5b505af1158015611d78573d6000803e3d6000fd5b5050604051630472405960e51b8152306004820152600092507f00000000000000000000000000000000000000000000000000000000000000006001600160a01b03169150638e480b2090602401602060405180830381865afa158015611de3573d6000803e3d6000fd5b505050506040513d601f19601f82011682018060405250810190610d37919061351e565b600454611e1490826114aa565b60045550565b6001600160a01b038216600090815260036020526040902054611e3d90826114aa565b6001600160a01b0383166000818152600360205260408082209390935591519091907fddf252ad1be2c89b69c2b068fc378daa952ba7f163c4a11628f55a4df523b3ef906118db9085815260200190565b60006105d68230612834565b6000828280821115611eb1576002925050506105d6565b80821015611ec4576000925050506105d6565b506001949350505050565b6000806000611edc611304565b919450925090506000611ef785610f278461069688886114aa565b90506000611f0d82671bc16d674ec800006128a2565b9050611f9b7f00000000000000000000000000000000000000000000000000000000000000006001600160a01b031663ba2de9bc6040518163ffffffff1660e01b8152600401602060405180830381865afa158015611f70573d6000803e3d6000fd5b505050506040513d601f19601f82011682018060405250810190611f94919061351e565b82906114b6565b15611fa4575060005b600080611fb18787611782565b611ffc577f00000000000000000000000000000000000000000000000000000000000000007f000000000000000000000000000000000000000000000000000000000000000061203f565b7f00000000000000000000000000000000000000000000000000000000000000007f00000000000000000000000000000000000000000000000000000000000000005b9150915061208e827f00000000000000000000000000000000000000000000000000000000000000006001600160a01b0316846001600160a01b0316146120865787612088565b885b856128c1565b6120d1817f00000000000000000000000000000000000000000000000000000000000000006001600160a01b0316836001600160a01b0316146120865787612088565b5050505050505050565b60006120ea82610f2785610df1565b9050600061210c6121086008546004546114aa90919063ffffffff16565b1590565b612146576121416121386004546121306008546004546114aa90919063ffffffff16565b8591906114ca565b600754906114aa565b612153565b60075461215390836114aa565b90506121ec611f94671bc16d674ec800007f00000000000000000000000000000000000000000000000000000000000000006001600160a01b031663ba2de9bc6040518163ffffffff1660e01b8152600401602060405180830381865afa1580156121c2573d6000803e3d6000fd5b505050506040513d601f19601f820116820180604052508101906121e6919061351e565b90612a64565b156121f5575060005b8351604051637ece075d60e01b81526004810191909152600090612291907f00000000000000000000000000000000000000000000000000000000000000006001600160a01b031690637ece075d90602401606060405180830381865afa158015612264573d6000803e3d6000fd5b505050506040513d601f19601f82011682018060405250810190612288919061364f565b60400151612a79565b905060006122d3671bc16d674ec800006122cd8481877f0000000000000000000000000000000000000000000000000000000000000000612a64565b906128a2565b90506122ff7f000000000000000000000000000000000000000000000000000000000000000082612a84565b6123297f000000000000000000000000000000000000000000000000000000000000000082612a84565b505050505050565b6040516001600160a01b0383166024820152604481018290526109ea90849063a9059cbb60e01b906064015b60408051601f198184030181529190526020810180516001600160e01b03166001600160e01b031990931692909217909152612e32565b60006123a08383611e9a565b6001149392505050565b60405163416f9cef60e11b81523060048201526001600160a01b037f0000000000000000000000000000000000000000000000000000000000000000811660248301526000917f0000000000000000000000000000000000000000000000000000000000000000909116906382df39de90604401602060405180830381865afa15801561243b573d6000803e3d6000fd5b505050506040513d601f19601f8201168201806040525081019061245f91906136ab565b80612515575060405163416f9cef60e11b81523060048201526001600160a01b037f0000000000000000000000000000000000000000000000000000000000000000811660248301527f000000000000000000000000000000000000000000000000000000000000000016906382df39de90604401602060405180830381865afa1580156124f1573d6000803e3d6000fd5b505050506040513d601f19601f8201168201806040525081019061251591906136ab565b806125a35750604051630b194df360e31b81523060048201527f00000000000000000000000000000000000000000000000000000000000000006001600160a01b0316906358ca6f9890602401602060405180830381865afa15801561257f573d6000803e3d6000fd5b505050506040513d601f19601f820116820180604052508101906125a391906136ab565b806126315750604051630b194df360e31b81523060048201527f00000000000000000000000000000000000000000000000000000000000000006001600160a01b0316906358ca6f9890602401602060405180830381865afa15801561260d573d6000803e3d6000fd5b505050506040513d601f19601f8201168201806040525081019061263191906136ab565b806105d657506040820151151580156105d657506020820151156105d6565b8015806126ca5750604051636eb1769f60e11b81523060048201526001600160a01b03838116602483015284169063dd62ed3e90604401602060405180830381865afa1580156126a4573d6000803e3d6000fd5b505050506040513d601f19601f820116820180604052508101906126c8919061351e565b155b6127355760405162461bcd60e51b815260206004820152603660248201527f5361666545524332303a20617070726f76652066726f6d206e6f6e2d7a65726f60448201527520746f206e6f6e2d7a65726f20616c6c6f77616e636560501b6064820152608401610792565b6040516001600160a01b0383166024820152604481018290526109ea90849063095ea7b360e01b9060640161235d565b6040516001600160a01b0380851660248301528316604482015260648101829052610b1c9085906323b872dd60e01b9060840161235d565b6000816001600160ff1b038111156105d65760405162a07eb560e01b815260048101829052602401610792565b6000670de0b6b3a76400006127df838561361f565b61056891906136cd565b600061056882846136fb565b60006105688383612f04565b60006105688284613722565b600081818112156105d65760405163280f944f60e11b815260048101829052602401610792565b6040516370a0823160e01b81526001600160a01b038281166004830152600091908416906370a0823190602401602060405180830381865afa15801561287e573d6000803e3d6000fd5b505050506040513d601f19601f82011682018060405250810190610568919061351e565b6000816128b7670de0b6b3a7640000856135de565b610568919061360b565b6128cb8282611782565b15612973576001600160a01b037f00000000000000000000000000000000000000000000000000000000000000001663c3b35a7e308561290b86866112f8565b6040516001600160e01b031960e086901b1681526001600160a01b0393841660048201529290911660248301526044820152606401600060405180830381600087803b15801561295a57600080fd5b505af115801561296e573d6000803e3d6000fd5b505050505b61297d82826114b6565b15612a25576001600160a01b037f00000000000000000000000000000000000000000000000000000000000000001663f213159c30856129bd85876112f8565b6040516001600160e01b031960e086901b1681526001600160a01b0393841660048201529290911660248301526044820152606401600060405180830381600087803b158015612a0c57600080fd5b505af1158015612a20573d6000803e3d6000fd5b505050505b604080516001600160a01b0385168152602081018390527fdf43c689abc8d83e86b74634bbe0ba590e2ecb34f3f432a612c6edef3e532cbd91016108a5565b6000670de0b6b3a76400006128b783856135de565b60006105d682612f14565b604051631e0c6fb960e01b8152306004820152600090612b61906001600160a01b03851690631e0c6fb99060240160a060405180830381865afa158015612acf573d6000803e3d6000fd5b505050506040513d601f19601f82011682018060405250810190612af3919061374a565b60405163b7648fb960e01b81523060048201526001600160a01b0386169063b7648fb9906024015b6040805180830381865afa158015612b37573d6000803e3d6000fd5b505050506040513d601f19601f82011682018060405250810190612b5b9190613586565b90612f2b565b6000015190506000612c5d846001600160a01b03166359ea287d6040518163ffffffff1660e01b815260040160a060405180830381865afa158015612baa573d6000803e3d6000fd5b505050506040513d601f19601f82011682018060405250810190612bce919061374a565b856001600160a01b0316639a427d03876001600160a01b031663c07f47d46040518163ffffffff1660e01b8152600401602060405180830381865afa158015612c1b573d6000803e3d6000fd5b505050506040513d601f19601f82011682018060405250810190612c3f919061351e565b6040518263ffffffff1660e01b8152600401612b1b91815260200190565b6000015190506000846001600160a01b031663193775676040518163ffffffff1660e01b8152600401602060405180830381865afa158015612ca3573d6000803e3d6000fd5b505050506040513d601f19601f82011682018060405250810190612cc7919061351e565b90506000612cd58284611782565b612ce0576000612cea565b612cea82846112f8565b9050612cf685856114b6565b15612d65576001600160a01b0386166359218fe9612d1486886112f8565b6040518263ffffffff1660e01b8152600401612d3291815260200190565b600060405180830381600087803b158015612d4c57600080fd5b505af1158015612d60573d6000803e3d6000fd5b505050505b612d6f8585611782565b15612de8576001600160a01b03861663d7d7d6b8612d9783612d9189896112f8565b90612f5a565b6040518263ffffffff1660e01b8152600401612db591815260200190565b600060405180830381600087803b158015612dcf57600080fd5b505af1158015612de3573d6000803e3d6000fd5b505050505b604080516001600160a01b0388168152602081018790527f814d2340073b1f05a68bb3f6aab82bfc4eea78f35f7c2332caddf0c35865331e910160405180910390a1505050505050565b6000612e87826040518060400160405280602081526020017f5361666545524332303a206c6f772d6c6576656c2063616c6c206661696c6564815250856001600160a01b0316612f669092919063ffffffff16565b8051909150156109ea5780806020019051810190612ea591906136ab565b6109ea5760405162461bcd60e51b815260206004820152602a60248201527f5361666545524332303a204552433230206f7065726174696f6e20646964206e6044820152691bdd081cdd58d8d9595960b21b6064820152608401610792565b6000818312156119545781610568565b600080821215612f2757816000036105d6565b5090565b6040805180820190915260008082526020820152610568612f50848460200151612f75565b8360400151612fcc565b60006105688383611945565b6060610bbc848460008561301a565b604080518082019091526000808252602082015260408051808201909152825184518291612fa391906114aa565b8152602001612fc3846020015186602001516114aa90919063ffffffff16565b90529392505050565b604080518082019091526000808252602082015260408051808201909152825184518291612ffa91906112f8565b8152602001612fc3846020015186602001516112f890919063ffffffff16565b60608247101561307b5760405162461bcd60e51b815260206004820152602660248201527f416464726573733a20696e73756666696369656e742062616c616e636520666f6044820152651c8818d85b1b60d21b6064820152608401610792565b6001600160a01b0385163b6130d25760405162461bcd60e51b815260206004820152601d60248201527f416464726573733a2063616c6c20746f206e6f6e2d636f6e74726163740000006044820152606401610792565b600080866001600160a01b031685876040516130ee91906137b1565b60006040518083038185875af1925050503d806000811461312b576040519150601f19603f3d011682016040523d82523d6000602084013e613130565b606091505b5091509150610e4a8282866060831561314a575081610568565b82511561315a5782518084602001fd5b8160405162461bcd60e51b81526004016107929190613198565b60005b8381101561318f578181015183820152602001613177565b50506000910152565b60208152600082518060208401526131b7816040850160208701613174565b601f01601f19169190910160400192915050565b6000602082840312156131dd57600080fd5b5035919050565b80356001600160a01b03811681146131fb57600080fd5b919050565b6000806040838503121561321357600080fd5b61321c836131e4565b946020939093013593505050565b60006020828403121561323c57600080fd5b610568826131e4565b60008060006060848603121561325a57600080fd5b613263846131e4565b9250613271602085016131e4565b9150604084013590509250925092565b634e487b7160e01b600052604160045260246000fd5b600082601f8301126132a857600080fd5b813567ffffffffffffffff808211156132c3576132c3613281565b604051601f8301601f19908116603f011681019082821181831017156132eb576132eb613281565b8160405283815286602085880101111561330457600080fd5b836020870160208301376000602085830101528094505050505092915050565b6000806040838503121561333757600080fd5b823567ffffffffffffffff8082111561334f57600080fd5b61335b86838701613297565b9350602085013591508082111561337157600080fd5b5061337e85828601613297565b9150509250929050565b6000806040838503121561339b57600080fd5b823591506133ab602084016131e4565b90509250929050565b600080604083850312156133c757600080fd5b6133d0836131e4565b91506133ab602084016131e4565b600181811c908216806133f257607f821691505b60208210810361341257634e487b7160e01b600052602260045260246000fd5b50919050565b601f8211156109ea57600081815260208120601f850160051c8101602086101561343f5750805b601f850160051c820191505b818110156123295782815560010161344b565b815167ffffffffffffffff81111561347857613478613281565b61348c8161348684546133de565b84613418565b602080601f8311600181146134c157600084156134a95750858301515b600019600386901b1c1916600185901b178555612329565b600085815260208120601f198616915b828110156134f0578886015182559484019460019091019084016134d1565b508582101561350e5787850151600019600388901b60f8161c191681555b5050505050600190811b01905550565b60006020828403121561353057600080fd5b5051919050565b60006040828403121561354957600080fd5b6040516040810181811067ffffffffffffffff8211171561356c5761356c613281565b604052825181526020928301519281019290925250919050565b60006040828403121561359857600080fd5b6105688383613537565b634e487b7160e01b600052601160045260246000fd5b818103818111156105d6576105d66135a2565b808201808211156105d6576105d66135a2565b80820281158282048414176105d6576105d66135a2565b634e487b7160e01b600052601260045260246000fd5b60008261361a5761361a6135f5565b500490565b80820260008212600160ff1b8414161561363b5761363b6135a2565b81810583148215176105d6576105d66135a2565b60006060828403121561366157600080fd5b6040516060810181811067ffffffffffffffff8211171561368457613684613281565b80604052508251815260208301516020820152604083015160408201528091505092915050565b6000602082840312156136bd57600080fd5b8151801515811461056857600080fd5b6000826136dc576136dc6135f5565b600160ff1b8214600019841416156136f6576136f66135a2565b500590565b818103600083128015838313168383128216171561371b5761371b6135a2565b5092915050565b8082018281126000831280158216821582161715613742576137426135a2565b505092915050565b600060a0828403121561375c57600080fd5b6040516060810181811067ffffffffffffffff8211171561377f5761377f613281565b604052825181526137938460208501613537565b60208201526137a58460608501613537565b60408201529392505050565b600082516137c3818460208701613174565b919091019291505056fea264697066735822122011008e21f615565cf4877c21ee64eac089b41a434e9088e497e50e88da5959ee64736f6c63430008110033",
  "devdoc": {
    "details": "Vault deploys and rebalances collateral between the corresponding long and short markets, while attempting to      maintain `targetLeverage` with its open positions at any given time. Deposits are only gated in so much as to cap      the maximum amount of assets in the vault.      The vault has a \"delayed mint\" mechanism for shares on deposit. After depositing to the vault, a user must wait      until the next settlement of the underlying products in order for shares to be reflected in the getters.      The shares will be fully reflected in contract state when the next settlement occurs on the vault itself.      Similarly, when redeeming shares, underlying assets are not claimable until a settlement occurs.      Each state changing interaction triggers the `settle` flywheel in order to bring the vault to the      desired state.      In the event that there is not a settlement for a long period of time, keepers can call the `sync` method to      force settlement and rebalancing. This is most useful to prevent vault liquidation due to PnL changes      causing the vault to be in an unhealthy state (far away from target leverage)",
    "kind": "dev",
    "methods": {
      "approve(address,uint256)": {
        "params": {
          "amount": "Amount of shares that spender can operate on",
          "spender": "Address which can spend operate on shares"
        },
        "returns": {
          "_0": "bool true if the approval was successful, otherwise reverts"
        }
      },
      "balanceOf(address)": {
        "params": {
          "account": "Account to query balance of"
        },
        "returns": {
          "_0": "Number of shares held by `account`"
        }
      },
      "claim(address)": {
        "params": {
          "account": "The account to claim for"
        }
      },
      "convertToAssets(uint256)": {
        "params": {
          "shares": "Number of shares to convert to assets"
        },
        "returns": {
          "_0": "Amount of assets for the given shares"
        }
      },
      "convertToShares(uint256)": {
        "params": {
          "assets": "Number of assets to convert to shares"
        },
        "returns": {
          "_0": "Amount of shares for the given assets"
        }
      },
      "decimals()": {
        "returns": {
          "_0": "Decimal places of the share share token"
        }
      },
      "deposit(uint256,address)": {
        "params": {
          "account": "The account to deposit on behalf of",
          "assets": "The amount of assets to deposit"
        }
      },
      "initialize(string,string)": {
        "params": {
          "name_": "ERC20 asset name",
          "symbol_": "ERC20 asset symbol"
        }
      },
      "maxDeposit(address)": {
        "details": "Only exact when vault is synced, otherwise approximate",
        "returns": {
          "_0": "Maximum available deposit amount"
        }
      },
      "maxRedeem(address)": {
        "details": "Only exact when vault is synced, otherwise approximate",
        "params": {
          "account": "The account to redeem for"
        },
        "returns": {
          "_0": "Maximum available redeemable amount"
        }
      },
      "redeem(uint256,address)": {
        "details": "Does not return any assets to the user due to delayed settlement. Use `claim` to claim assets      If account is not msg.sender, requires prior spending approval",
        "params": {
          "account": "The account to redeem on behalf of",
          "shares": "The amount of shares to redeem"
        }
      },
      "sync()": {
        "details": "Should be called by a keeper when the vault approaches a liquidation state on either side"
      },
      "totalAssets()": {
        "returns": {
          "_0": "Amount of assets held by the vault"
        }
      },
      "totalSupply()": {
        "returns": {
          "_0": "Amount of shares currently issued"
        }
      },
      "totalUnclaimed()": {
        "returns": {
          "_0": "Total unclaimed assets in vault"
        }
      },
      "transfer(address,uint256)": {
        "params": {
          "amount": "Amount of shares to send",
          "to": "Address to send shares to"
        },
        "returns": {
          "_0": "bool true if the transfer was successful, otherwise reverts"
        }
      },
      "transferFrom(address,address,uint256)": {
        "params": {
          "amount": "Amount of shares to send",
          "from": "Address to send shares from",
          "to": "Address to send shares to"
        },
        "returns": {
          "_0": "bool true if the transfer was successful, otherwise reverts"
        }
      },
      "unclaimed(address)": {
        "params": {
          "account": "Account to query unclaimed balance of"
        },
        "returns": {
          "_0": "`account`'s unclaimed assets"
        }
      }
    },
    "stateVariables": {
      "_balanceOf": {
        "details": "Mapping of shares of the vault per user"
      },
      "_deposit": {
        "details": "Deposits that have not been settled, or have been settled but not yet processed by this contract"
      },
      "_deposits": {
        "details": "Mapping of pending (not yet converted to shares) per user"
      },
      "_latestVersion": {
        "details": "The latest version that a pending deposit or redemption has been placed"
      },
      "_latestVersions": {
        "details": "Mapping of the latest version that a pending deposit or redemption has been placed per user"
      },
      "_redemption": {
        "details": "Redemptions that have not been settled, or have been settled but not yet processed by this contract"
      },
      "_redemptions": {
        "details": "Mapping of pending (not yet withdrawn) per user"
      },
      "_totalSupply": {
        "details": "Total number of shares across all users"
      },
      "_totalUnclaimed": {
        "details": "Mapping of unclaimed underlying of the vault per user"
      },
      "_unclaimed": {
        "details": "Mapping of unclaimed underlying of the vault per user"
      },
      "_versions": {
        "details": "Mapping of versions of the vault state at a given oracle version"
      },
      "allowance": {
        "details": "Mapping of allowance across all users"
      },
      "asset": {
        "details": "The underlying asset of the vault"
      },
      "collateral": {
        "details": "The address of the Perennial collateral contract"
      },
      "controller": {
        "details": "The address of the Perennial controller contract"
      },
      "long": {
        "details": "The address of the Perennial product on the long side"
      },
      "maxCollateral": {
        "details": "The collateral cap for the vault"
      },
      "name": {
        "details": "The ERC20 name of the vault"
      },
      "short": {
        "details": "The address of the Perennial product on the short side"
      },
      "symbol": {
        "details": "The ERC20 symbol of the vault"
      },
      "targetLeverage": {
        "details": "The target leverage amount for the vault"
      }
    },
    "title": "BalancedVault",
    "version": 1
  },
  "userdoc": {
    "kind": "user",
    "methods": {
      "approve(address,uint256)": {
        "notice": "Sets `amount` as the allowance of `spender` over the caller's shares"
      },
      "balanceOf(address)": {
        "notice": "Number of shares held by `account`"
      },
      "claim(address)": {
        "notice": "Claims all claimable assets for account, sending assets to account"
      },
      "convertToAssets(uint256)": {
        "notice": "Converts a given amount of shares to assets"
      },
      "convertToShares(uint256)": {
        "notice": "Converts a given amount of assets to shares"
      },
      "decimals()": {
        "notice": "Returns the decimals places of the share token"
      },
      "deposit(uint256,address)": {
        "notice": "Deposits `assets` assets into the vault, returning shares to `account` after the deposit settles."
      },
      "initialize(string,string)": {
        "notice": "Initializes the contract state"
      },
      "maxDeposit(address)": {
        "notice": "The maximum available deposit amount"
      },
      "maxRedeem(address)": {
        "notice": "The maximum available redeemable amount"
      },
      "redeem(uint256,address)": {
        "notice": "Redeems `shares` shares from the vault"
      },
      "sync()": {
        "notice": "Rebalances the collateral and position of the vault without a deposit or withdraw"
      },
      "totalAssets()": {
        "notice": "The total amount of assets currently held by the vault"
      },
      "totalSupply()": {
        "notice": "The total amount of shares currently issued"
      },
      "totalUnclaimed()": {
        "notice": "Total unclaimed assets in vault"
      },
      "transfer(address,uint256)": {
        "notice": "Moves `amount` shares from the caller's account to `to`"
      },
      "transferFrom(address,address,uint256)": {
        "notice": "Moves `amount` shares from `from to `to`"
      },
      "unclaimed(address)": {
        "notice": "`account`'s unclaimed assets"
      }
    },
    "notice": "ERC4626 vault that manages a 50-50 position between long-short markets of the same payoff on Perennial.",
    "version": 1
  },
  "storageLayout": {
    "storage": [
      {
        "astId": 1001,
        "contract": "@equilibria/perennial-vaults/contracts/BalancedVault.sol:BalancedVault",
        "label": "name",
        "offset": 0,
        "slot": "0",
        "type": "t_string_storage"
      },
      {
        "astId": 1004,
        "contract": "@equilibria/perennial-vaults/contracts/BalancedVault.sol:BalancedVault",
        "label": "symbol",
        "offset": 0,
        "slot": "1",
        "type": "t_string_storage"
      },
      {
        "astId": 1012,
        "contract": "@equilibria/perennial-vaults/contracts/BalancedVault.sol:BalancedVault",
        "label": "allowance",
        "offset": 0,
        "slot": "2",
        "type": "t_mapping(t_address,t_mapping(t_address,t_userDefinedValueType(UFixed18)7879))"
      },
      {
        "astId": 1018,
        "contract": "@equilibria/perennial-vaults/contracts/BalancedVault.sol:BalancedVault",
        "label": "_balanceOf",
        "offset": 0,
        "slot": "3",
        "type": "t_mapping(t_address,t_userDefinedValueType(UFixed18)7879)"
      },
      {
        "astId": 1022,
        "contract": "@equilibria/perennial-vaults/contracts/BalancedVault.sol:BalancedVault",
        "label": "_totalSupply",
        "offset": 0,
        "slot": "4",
        "type": "t_userDefinedValueType(UFixed18)7879"
      },
      {
        "astId": 1028,
        "contract": "@equilibria/perennial-vaults/contracts/BalancedVault.sol:BalancedVault",
        "label": "_unclaimed",
        "offset": 0,
        "slot": "5",
        "type": "t_mapping(t_address,t_userDefinedValueType(UFixed18)7879)"
      },
      {
        "astId": 1032,
        "contract": "@equilibria/perennial-vaults/contracts/BalancedVault.sol:BalancedVault",
        "label": "_totalUnclaimed",
        "offset": 0,
        "slot": "6",
        "type": "t_userDefinedValueType(UFixed18)7879"
      },
      {
        "astId": 1036,
        "contract": "@equilibria/perennial-vaults/contracts/BalancedVault.sol:BalancedVault",
        "label": "_deposit",
        "offset": 0,
        "slot": "7",
        "type": "t_userDefinedValueType(UFixed18)7879"
      },
      {
        "astId": 1040,
        "contract": "@equilibria/perennial-vaults/contracts/BalancedVault.sol:BalancedVault",
        "label": "_redemption",
        "offset": 0,
        "slot": "8",
        "type": "t_userDefinedValueType(UFixed18)7879"
      },
      {
        "astId": 1043,
        "contract": "@equilibria/perennial-vaults/contracts/BalancedVault.sol:BalancedVault",
        "label": "_latestVersion",
        "offset": 0,
        "slot": "9",
        "type": "t_uint256"
      },
      {
        "astId": 1049,
        "contract": "@equilibria/perennial-vaults/contracts/BalancedVault.sol:BalancedVault",
        "label": "_deposits",
        "offset": 0,
        "slot": "10",
        "type": "t_mapping(t_address,t_userDefinedValueType(UFixed18)7879)"
      },
      {
        "astId": 1055,
        "contract": "@equilibria/perennial-vaults/contracts/BalancedVault.sol:BalancedVault",
        "label": "_redemptions",
        "offset": 0,
        "slot": "11",
        "type": "t_mapping(t_address,t_userDefinedValueType(UFixed18)7879)"
      },
      {
        "astId": 1060,
        "contract": "@equilibria/perennial-vaults/contracts/BalancedVault.sol:BalancedVault",
        "label": "_latestVersions",
        "offset": 0,
        "slot": "12",
        "type": "t_mapping(t_address,t_uint256)"
      },
      {
        "astId": 1066,
        "contract": "@equilibria/perennial-vaults/contracts/BalancedVault.sol:BalancedVault",
        "label": "_versions",
        "offset": 0,
        "slot": "13",
        "type": "t_mapping(t_uint256,t_struct(Version)3138_storage)"
      }
    ],
    "types": {
      "t_address": {
        "encoding": "inplace",
        "label": "address",
        "numberOfBytes": "20"
      },
      "t_mapping(t_address,t_mapping(t_address,t_userDefinedValueType(UFixed18)7879))": {
        "encoding": "mapping",
        "key": "t_address",
        "label": "mapping(address => mapping(address => UFixed18))",
        "numberOfBytes": "32",
        "value": "t_mapping(t_address,t_userDefinedValueType(UFixed18)7879)"
      },
      "t_mapping(t_address,t_uint256)": {
        "encoding": "mapping",
        "key": "t_address",
        "label": "mapping(address => uint256)",
        "numberOfBytes": "32",
        "value": "t_uint256"
      },
      "t_mapping(t_address,t_userDefinedValueType(UFixed18)7879)": {
        "encoding": "mapping",
        "key": "t_address",
        "label": "mapping(address => UFixed18)",
        "numberOfBytes": "32",
        "value": "t_userDefinedValueType(UFixed18)7879"
      },
      "t_mapping(t_uint256,t_struct(Version)3138_storage)": {
        "encoding": "mapping",
        "key": "t_uint256",
        "label": "mapping(uint256 => struct IBalancedVault.Version)",
        "numberOfBytes": "32",
        "value": "t_struct(Version)3138_storage"
      },
      "t_string_storage": {
        "encoding": "bytes",
        "label": "string",
        "numberOfBytes": "32"
      },
      "t_struct(Version)3138_storage": {
        "encoding": "inplace",
        "label": "struct IBalancedVault.Version",
        "members": [
          {
            "astId": 3122,
            "contract": "@equilibria/perennial-vaults/contracts/BalancedVault.sol:BalancedVault",
            "label": "longPosition",
            "offset": 0,
            "slot": "0",
            "type": "t_userDefinedValueType(UFixed18)7879"
          },
          {
            "astId": 3125,
            "contract": "@equilibria/perennial-vaults/contracts/BalancedVault.sol:BalancedVault",
            "label": "shortPosition",
            "offset": 0,
            "slot": "1",
            "type": "t_userDefinedValueType(UFixed18)7879"
          },
          {
            "astId": 3128,
            "contract": "@equilibria/perennial-vaults/contracts/BalancedVault.sol:BalancedVault",
            "label": "totalShares",
            "offset": 0,
            "slot": "2",
            "type": "t_userDefinedValueType(UFixed18)7879"
          },
          {
            "astId": 3131,
            "contract": "@equilibria/perennial-vaults/contracts/BalancedVault.sol:BalancedVault",
            "label": "longAssets",
            "offset": 0,
            "slot": "3",
            "type": "t_userDefinedValueType(UFixed18)7879"
          },
          {
            "astId": 3134,
            "contract": "@equilibria/perennial-vaults/contracts/BalancedVault.sol:BalancedVault",
            "label": "shortAssets",
            "offset": 0,
            "slot": "4",
            "type": "t_userDefinedValueType(UFixed18)7879"
          },
          {
            "astId": 3137,
            "contract": "@equilibria/perennial-vaults/contracts/BalancedVault.sol:BalancedVault",
            "label": "totalAssets",
            "offset": 0,
            "slot": "5",
            "type": "t_userDefinedValueType(UFixed18)7879"
          }
        ],
        "numberOfBytes": "192"
      },
      "t_uint256": {
        "encoding": "inplace",
        "label": "uint256",
        "numberOfBytes": "32"
      },
      "t_userDefinedValueType(UFixed18)7879": {
        "encoding": "inplace",
        "label": "UFixed18",
        "numberOfBytes": "32"
      }
    }
  }
}