{
  "address": "0x4B7C73d46f2ECaa76127b4F2304a4FaF5c47F66A",
  "abi": [
    {
      "inputs": [],
      "stateMutability": "nonpayable",
      "type": "constructor"
    },
    {
      "inputs": [],
      "name": "RoundIdMissing",
      "type": "error"
    },
    {
      "inputs": [],
      "name": "decimals",
      "outputs": [
        {
          "internalType": "uint8",
          "name": "",
          "type": "uint8"
        }
      ],
      "stateMutability": "view",
      "type": "function"
    },
    {
      "inputs": [
        {
          "internalType": "uint80",
          "name": "_roundId",
          "type": "uint80"
        }
      ],
      "name": "getRoundData",
      "outputs": [
        {
          "internalType": "uint80",
          "name": "roundId",
          "type": "uint80"
        },
        {
          "internalType": "int256",
          "name": "answer",
          "type": "int256"
        },
        {
          "internalType": "uint256",
          "name": "startedAt",
          "type": "uint256"
        },
        {
          "internalType": "uint256",
          "name": "updatedAt",
          "type": "uint256"
        },
        {
          "internalType": "uint80",
          "name": "answeredInRound",
          "type": "uint80"
        }
      ],
      "stateMutability": "view",
      "type": "function"
    },
    {
      "inputs": [],
      "name": "latestRoundData",
      "outputs": [
        {
          "internalType": "uint80",
          "name": "roundId",
          "type": "uint80"
        },
        {
          "internalType": "int256",
          "name": "answer",
          "type": "int256"
        },
        {
          "internalType": "uint256",
          "name": "startedAt",
          "type": "uint256"
        },
        {
          "internalType": "uint256",
          "name": "updatedAt",
          "type": "uint256"
        },
        {
          "internalType": "uint80",
          "name": "answeredInRound",
          "type": "uint80"
        }
      ],
      "stateMutability": "view",
      "type": "function"
    },
    {
      "inputs": [],
      "name": "next",
      "outputs": [],
      "stateMutability": "nonpayable",
      "type": "function"
    }
  ],
  "transactionHash": "0xdebef6a2a5b00b9ab50da1ee69ee3c6e40715b2d9d66d11b904efe6c0224d7ca",
  "args": [],
  "numDeployments": 1,
  "solcInputHash": "be1d1bb26e5f8c2eb6d321420643781e",
  "bytecode": "0x61012060405268010000000000000076608081905260a05268069f2a3cff6342855060c081905263641b45e860e0819052610100819052600180546001600160a01b0319167201000000000000007600010000000000000076179055600291909155600381905560045534801561007557600080fd5b50600180546001600160501b03908116600081815260208190526040902080546001600160501b031981168317825584546a0100000000000000000000908190049094169093026001600160a01b0319909316909117919091178155600280549282019290925560038054928201929092556004549101556103db806100fc6000396000f3fe608060405234801561001057600080fd5b506004361061004c5760003560e01c8063313ce567146100515780634c8fe526146100655780639a6fc8f51461006f578063feaf968c146100b6575b600080fd5b604051600881526020015b60405180910390f35b61006d6100db565b005b61008261007d3660046102b3565b610209565b604080516001600160501b03968716815260208101959095528401929092526060830152909116608082015260a00161005c565b6001546002546003546004546001600160501b0380851694600160501b900416610082565b600180546100f4916001600160501b03909116906102f9565b6001805469ffffffffffffffffffff19166001600160501b0392909216919091179055600254606490610128906065610320565b6101329190610356565b600255600354610144906103e8610392565b600355600454610156906103e8610392565b6004556001805461017891600160501b9091046001600160501b0316906102f9565b6001805469ffffffffffffffffffff60501b198116600160501b6001600160501b0394851681029182178455918416908416176000818152602081905260409020805469ffffffffffffffffffff1981168317825584546001600160a01b03199091169092179183900490941690910217825560028054918301919091556003805491830191909155600454910155565b6001600160501b03808216600081815260208181526040808320815160a0810183528154808816808352600160501b9091049097169381019390935260018101549183019190915260028101546060830152600301546080820152909283928392839283921461028c576040516337a2af4960e11b815260040160405180910390fd5b60408101516060820151608083015160209093015198999198909750919550909350915050565b6000602082840312156102c557600080fd5b81356001600160501b03811681146102dc57600080fd5b9392505050565b634e487b7160e01b600052601160045260246000fd5b6001600160501b03818116838216019080821115610319576103196102e3565b5092915050565b80820260008212600160ff1b8414161561033c5761033c6102e3565b8181058314821517610350576103506102e3565b92915050565b60008261037357634e487b7160e01b600052601260045260246000fd5b600160ff1b82146000198414161561038d5761038d6102e3565b500590565b80820180821115610350576103506102e356fea26469706673582212204da9a4f0321149cc42bec74f2b1f130301c05747b3b78802b840eebd2fcfcaa764736f6c63430008110033",
  "devdoc": {
    "kind": "dev",
    "methods": {},
    "version": 1
  },
  "userdoc": {
    "kind": "user",
    "methods": {},
    "version": 1
  },
  "storageLayout": {
    "storage": [
      {
        "astId": 14978,
        "contract": "contracts/mocks/ChainlinkTCAPAggregatorV3.sol:ChainlinkTCAPAggregatorV3",
        "label": "roundDataHistory",
        "offset": 0,
        "slot": "0",
        "type": "t_mapping(t_uint80,t_struct(RoundData)14973_storage)"
      },
      {
        "astId": 15005,
        "contract": "contracts/mocks/ChainlinkTCAPAggregatorV3.sol:ChainlinkTCAPAggregatorV3",
        "label": "_latestRoundData",
        "offset": 0,
        "slot": "1",
        "type": "t_struct(RoundData)14973_storage"
      }
    ],
    "types": {
      "t_int256": {
        "encoding": "inplace",
        "label": "int256",
        "numberOfBytes": "32"
      },
      "t_mapping(t_uint80,t_struct(RoundData)14973_storage)": {
        "encoding": "mapping",
        "key": "t_uint80",
        "label": "mapping(uint80 => struct ChainlinkTCAPAggregatorV3.RoundData)",
        "numberOfBytes": "32",
        "value": "t_struct(RoundData)14973_storage"
      },
      "t_struct(RoundData)14973_storage": {
        "encoding": "inplace",
        "label": "struct ChainlinkTCAPAggregatorV3.RoundData",
        "members": [
          {
            "astId": 14964,
            "contract": "contracts/mocks/ChainlinkTCAPAggregatorV3.sol:ChainlinkTCAPAggregatorV3",
            "label": "roundId",
            "offset": 0,
            "slot": "0",
            "type": "t_uint80"
          },
          {
            "astId": 14966,
            "contract": "contracts/mocks/ChainlinkTCAPAggregatorV3.sol:ChainlinkTCAPAggregatorV3",
            "label": "answeredInRound",
            "offset": 10,
            "slot": "0",
            "type": "t_uint80"
          },
          {
            "astId": 14968,
            "contract": "contracts/mocks/ChainlinkTCAPAggregatorV3.sol:ChainlinkTCAPAggregatorV3",
            "label": "answer",
            "offset": 0,
            "slot": "1",
            "type": "t_int256"
          },
          {
            "astId": 14970,
            "contract": "contracts/mocks/ChainlinkTCAPAggregatorV3.sol:ChainlinkTCAPAggregatorV3",
            "label": "startedAt",
            "offset": 0,
            "slot": "2",
            "type": "t_uint256"
          },
          {
            "astId": 14972,
            "contract": "contracts/mocks/ChainlinkTCAPAggregatorV3.sol:ChainlinkTCAPAggregatorV3",
            "label": "updatedAt",
            "offset": 0,
            "slot": "3",
            "type": "t_uint256"
          }
        ],
        "numberOfBytes": "128"
      },
      "t_uint256": {
        "encoding": "inplace",
        "label": "uint256",
        "numberOfBytes": "32"
      },
      "t_uint80": {
        "encoding": "inplace",
        "label": "uint80",
        "numberOfBytes": "10"
      }
    }
  }
}