{
  "address": "0x393024Ba0ECB3a684C9D0bc2BC023B8DD9Ed21c1",
  "abi": [
    {
      "inputs": [
        {
          "internalType": "address",
          "name": "_owner",
          "type": "address"
        },
        {
          "internalType": "address",
          "name": "_rewardsToken",
          "type": "address"
        },
        {
          "internalType": "address",
          "name": "_stakingToken",
          "type": "address"
        }
      ],
      "stateMutability": "nonpayable",
      "type": "constructor"
    },
    {
      "anonymous": false,
      "inputs": [
        {
          "indexed": true,
          "internalType": "address",
          "name": "previousOwner",
          "type": "address"
        },
        {
          "indexed": true,
          "internalType": "address",
          "name": "newOwner",
          "type": "address"
        }
      ],
      "name": "OwnershipTransferred",
      "type": "event"
    },
    {
      "anonymous": false,
      "inputs": [
        {
          "indexed": false,
          "internalType": "address",
          "name": "account",
          "type": "address"
        }
      ],
      "name": "Paused",
      "type": "event"
    },
    {
      "anonymous": false,
      "inputs": [
        {
          "indexed": false,
          "internalType": "address",
          "name": "token",
          "type": "address"
        },
        {
          "indexed": false,
          "internalType": "uint256",
          "name": "amount",
          "type": "uint256"
        }
      ],
      "name": "Recovered",
      "type": "event"
    },
    {
      "anonymous": false,
      "inputs": [
        {
          "indexed": false,
          "internalType": "uint256",
          "name": "reward",
          "type": "uint256"
        }
      ],
      "name": "RewardAdded",
      "type": "event"
    },
    {
      "anonymous": false,
      "inputs": [
        {
          "indexed": true,
          "internalType": "address",
          "name": "user",
          "type": "address"
        },
        {
          "indexed": false,
          "internalType": "uint256",
          "name": "reward",
          "type": "uint256"
        }
      ],
      "name": "RewardPaid",
      "type": "event"
    },
    {
      "anonymous": false,
      "inputs": [
        {
          "indexed": false,
          "internalType": "uint256",
          "name": "newDuration",
          "type": "uint256"
        }
      ],
      "name": "RewardsDurationUpdated",
      "type": "event"
    },
    {
      "anonymous": false,
      "inputs": [
        {
          "indexed": true,
          "internalType": "bytes32",
          "name": "role",
          "type": "bytes32"
        },
        {
          "indexed": true,
          "internalType": "bytes32",
          "name": "previousAdminRole",
          "type": "bytes32"
        },
        {
          "indexed": true,
          "internalType": "bytes32",
          "name": "newAdminRole",
          "type": "bytes32"
        }
      ],
      "name": "RoleAdminChanged",
      "type": "event"
    },
    {
      "anonymous": false,
      "inputs": [
        {
          "indexed": true,
          "internalType": "bytes32",
          "name": "role",
          "type": "bytes32"
        },
        {
          "indexed": true,
          "internalType": "address",
          "name": "account",
          "type": "address"
        },
        {
          "indexed": true,
          "internalType": "address",
          "name": "sender",
          "type": "address"
        }
      ],
      "name": "RoleGranted",
      "type": "event"
    },
    {
      "anonymous": false,
      "inputs": [
        {
          "indexed": true,
          "internalType": "bytes32",
          "name": "role",
          "type": "bytes32"
        },
        {
          "indexed": true,
          "internalType": "address",
          "name": "account",
          "type": "address"
        },
        {
          "indexed": true,
          "internalType": "address",
          "name": "sender",
          "type": "address"
        }
      ],
      "name": "RoleRevoked",
      "type": "event"
    },
    {
      "anonymous": false,
      "inputs": [
        {
          "indexed": true,
          "internalType": "address",
          "name": "user",
          "type": "address"
        },
        {
          "indexed": false,
          "internalType": "uint256",
          "name": "amount",
          "type": "uint256"
        }
      ],
      "name": "Staked",
      "type": "event"
    },
    {
      "anonymous": false,
      "inputs": [
        {
          "indexed": false,
          "internalType": "address",
          "name": "account",
          "type": "address"
        }
      ],
      "name": "Unpaused",
      "type": "event"
    },
    {
      "anonymous": false,
      "inputs": [
        {
          "indexed": true,
          "internalType": "address",
          "name": "user",
          "type": "address"
        },
        {
          "indexed": false,
          "internalType": "uint256",
          "name": "amount",
          "type": "uint256"
        }
      ],
      "name": "Withdrawn",
      "type": "event"
    },
    {
      "inputs": [],
      "name": "DEFAULT_ADMIN_ROLE",
      "outputs": [
        {
          "internalType": "bytes32",
          "name": "",
          "type": "bytes32"
        }
      ],
      "stateMutability": "view",
      "type": "function"
    },
    {
      "inputs": [
        {
          "internalType": "address",
          "name": "_account",
          "type": "address"
        }
      ],
      "name": "balanceOf",
      "outputs": [
        {
          "internalType": "uint256",
          "name": "",
          "type": "uint256"
        }
      ],
      "stateMutability": "view",
      "type": "function"
    },
    {
      "inputs": [
        {
          "internalType": "address",
          "name": "_account",
          "type": "address"
        }
      ],
      "name": "earned",
      "outputs": [
        {
          "internalType": "uint256",
          "name": "",
          "type": "uint256"
        }
      ],
      "stateMutability": "view",
      "type": "function"
    },
    {
      "inputs": [],
      "name": "exit",
      "outputs": [],
      "stateMutability": "nonpayable",
      "type": "function"
    },
    {
      "inputs": [],
      "name": "getReward",
      "outputs": [],
      "stateMutability": "nonpayable",
      "type": "function"
    },
    {
      "inputs": [],
      "name": "getRewardForDuration",
      "outputs": [
        {
          "internalType": "uint256",
          "name": "",
          "type": "uint256"
        }
      ],
      "stateMutability": "view",
      "type": "function"
    },
    {
      "inputs": [
        {
          "internalType": "bytes32",
          "name": "role",
          "type": "bytes32"
        }
      ],
      "name": "getRoleAdmin",
      "outputs": [
        {
          "internalType": "bytes32",
          "name": "",
          "type": "bytes32"
        }
      ],
      "stateMutability": "view",
      "type": "function"
    },
    {
      "inputs": [
        {
          "internalType": "bytes32",
          "name": "role",
          "type": "bytes32"
        },
        {
          "internalType": "address",
          "name": "account",
          "type": "address"
        }
      ],
      "name": "grantRole",
      "outputs": [],
      "stateMutability": "nonpayable",
      "type": "function"
    },
    {
      "inputs": [
        {
          "internalType": "bytes32",
          "name": "role",
          "type": "bytes32"
        },
        {
          "internalType": "address",
          "name": "account",
          "type": "address"
        }
      ],
      "name": "hasRole",
      "outputs": [
        {
          "internalType": "bool",
          "name": "",
          "type": "bool"
        }
      ],
      "stateMutability": "view",
      "type": "function"
    },
    {
      "inputs": [],
      "name": "lastTimeRewardApplicable",
      "outputs": [
        {
          "internalType": "uint256",
          "name": "",
          "type": "uint256"
        }
      ],
      "stateMutability": "view",
      "type": "function"
    },
    {
      "inputs": [],
      "name": "lastUpdateTime",
      "outputs": [
        {
          "internalType": "uint256",
          "name": "",
          "type": "uint256"
        }
      ],
      "stateMutability": "view",
      "type": "function"
    },
    {
      "inputs": [
        {
          "internalType": "uint256",
          "name": "_a",
          "type": "uint256"
        },
        {
          "internalType": "uint256",
          "name": "_b",
          "type": "uint256"
        }
      ],
      "name": "min",
      "outputs": [
        {
          "internalType": "uint256",
          "name": "",
          "type": "uint256"
        }
      ],
      "stateMutability": "pure",
      "type": "function"
    },
    {
      "inputs": [
        {
          "internalType": "uint256",
          "name": "_reward",
          "type": "uint256"
        }
      ],
      "name": "notifyRewardAmount",
      "outputs": [],
      "stateMutability": "nonpayable",
      "type": "function"
    },
    {
      "inputs": [],
      "name": "owner",
      "outputs": [
        {
          "internalType": "address",
          "name": "",
          "type": "address"
        }
      ],
      "stateMutability": "view",
      "type": "function"
    },
    {
      "inputs": [],
      "name": "paused",
      "outputs": [
        {
          "internalType": "bool",
          "name": "",
          "type": "bool"
        }
      ],
      "stateMutability": "view",
      "type": "function"
    },
    {
      "inputs": [],
      "name": "periodFinish",
      "outputs": [
        {
          "internalType": "uint256",
          "name": "",
          "type": "uint256"
        }
      ],
      "stateMutability": "view",
      "type": "function"
    },
    {
      "inputs": [
        {
          "internalType": "address",
          "name": "_tokenAddress",
          "type": "address"
        },
        {
          "internalType": "uint256",
          "name": "_tokenAmount",
          "type": "uint256"
        }
      ],
      "name": "recoverERC20",
      "outputs": [],
      "stateMutability": "nonpayable",
      "type": "function"
    },
    {
      "inputs": [],
      "name": "renounceOwnership",
      "outputs": [],
      "stateMutability": "nonpayable",
      "type": "function"
    },
    {
      "inputs": [
        {
          "internalType": "bytes32",
          "name": "role",
          "type": "bytes32"
        },
        {
          "internalType": "address",
          "name": "account",
          "type": "address"
        }
      ],
      "name": "renounceRole",
      "outputs": [],
      "stateMutability": "nonpayable",
      "type": "function"
    },
    {
      "inputs": [
        {
          "internalType": "bytes32",
          "name": "role",
          "type": "bytes32"
        },
        {
          "internalType": "address",
          "name": "account",
          "type": "address"
        }
      ],
      "name": "revokeRole",
      "outputs": [],
      "stateMutability": "nonpayable",
      "type": "function"
    },
    {
      "inputs": [],
      "name": "rewardPerToken",
      "outputs": [
        {
          "internalType": "uint256",
          "name": "",
          "type": "uint256"
        }
      ],
      "stateMutability": "view",
      "type": "function"
    },
    {
      "inputs": [],
      "name": "rewardPerTokenStored",
      "outputs": [
        {
          "internalType": "uint256",
          "name": "",
          "type": "uint256"
        }
      ],
      "stateMutability": "view",
      "type": "function"
    },
    {
      "inputs": [],
      "name": "rewardRate",
      "outputs": [
        {
          "internalType": "uint256",
          "name": "",
          "type": "uint256"
        }
      ],
      "stateMutability": "view",
      "type": "function"
    },
    {
      "inputs": [
        {
          "internalType": "address",
          "name": "",
          "type": "address"
        }
      ],
      "name": "rewards",
      "outputs": [
        {
          "internalType": "uint256",
          "name": "",
          "type": "uint256"
        }
      ],
      "stateMutability": "view",
      "type": "function"
    },
    {
      "inputs": [],
      "name": "rewardsDuration",
      "outputs": [
        {
          "internalType": "uint256",
          "name": "",
          "type": "uint256"
        }
      ],
      "stateMutability": "view",
      "type": "function"
    },
    {
      "inputs": [],
      "name": "rewardsToken",
      "outputs": [
        {
          "internalType": "contract IERC20",
          "name": "",
          "type": "address"
        }
      ],
      "stateMutability": "view",
      "type": "function"
    },
    {
      "inputs": [
        {
          "internalType": "uint256",
          "name": "_rewardsDuration",
          "type": "uint256"
        }
      ],
      "name": "setRewardsDuration",
      "outputs": [],
      "stateMutability": "nonpayable",
      "type": "function"
    },
    {
      "inputs": [
        {
          "internalType": "uint256",
          "name": "_amount",
          "type": "uint256"
        }
      ],
      "name": "stake",
      "outputs": [],
      "stateMutability": "nonpayable",
      "type": "function"
    },
    {
      "inputs": [],
      "name": "stakingToken",
      "outputs": [
        {
          "internalType": "contract IERC20",
          "name": "",
          "type": "address"
        }
      ],
      "stateMutability": "view",
      "type": "function"
    },
    {
      "inputs": [
        {
          "internalType": "bytes4",
          "name": "interfaceId",
          "type": "bytes4"
        }
      ],
      "name": "supportsInterface",
      "outputs": [
        {
          "internalType": "bool",
          "name": "",
          "type": "bool"
        }
      ],
      "stateMutability": "view",
      "type": "function"
    },
    {
      "inputs": [],
      "name": "totalSupply",
      "outputs": [
        {
          "internalType": "uint256",
          "name": "",
          "type": "uint256"
        }
      ],
      "stateMutability": "view",
      "type": "function"
    },
    {
      "inputs": [
        {
          "internalType": "address",
          "name": "newOwner",
          "type": "address"
        }
      ],
      "name": "transferOwnership",
      "outputs": [],
      "stateMutability": "nonpayable",
      "type": "function"
    },
    {
      "inputs": [
        {
          "internalType": "address",
          "name": "",
          "type": "address"
        }
      ],
      "name": "userRewardPerTokenPaid",
      "outputs": [
        {
          "internalType": "uint256",
          "name": "",
          "type": "uint256"
        }
      ],
      "stateMutability": "view",
      "type": "function"
    },
    {
      "inputs": [
        {
          "internalType": "uint256",
          "name": "_amount",
          "type": "uint256"
        }
      ],
      "name": "withdraw",
      "outputs": [],
      "stateMutability": "nonpayable",
      "type": "function"
    }
  ],
  "transactionHash": "0xd531248a4cac5edeaa9901b128f8cd94bca19690f88b2b900cd39574452292cd",
  "args": [
    "0xEA8b3DF14B0bad2F6DD0Ed847DCc54Fc100e40C3",
    "0x6775842AE82BF2F0f987b10526768Ad89d79536E",
    "0xE4c55aad5b60f0C1983De54f00D28Fc887abc472"
  ],
  "numDeployments": 1,
  "solcInputHash": "be1d1bb26e5f8c2eb6d321420643781e",
  "bytecode": "0x60c06040526000600455600060055562278d006006553480156200002257600080fd5b5060405162001e1c38038062001e1c83398101604081905262000045916200026d565b620000503362000093565b60016002556003805460ff191690556001600160a01b03808316608052811660a0526200007f600033620000e3565b6200008a83620000f3565b505050620002b7565b600080546001600160a01b038381166001600160a01b0319831681178455604051919092169283917f8be0079c531659141344cd1fd0a4f28419497f9722a3daafe3b4186f6b6457e09190a35050565b620000ef8282620001c8565b5050565b6000546001600160a01b03163314620001535760405162461bcd60e51b815260206004820181905260248201527f4f776e61626c653a2063616c6c6572206973206e6f7420746865206f776e657260448201526064015b60405180910390fd5b6001600160a01b038116620001ba5760405162461bcd60e51b815260206004820152602660248201527f4f776e61626c653a206e6577206f776e657220697320746865207a65726f206160448201526564647265737360d01b60648201526084016200014a565b620001c58162000093565b50565b60008281526001602090815260408083206001600160a01b038516845290915290205460ff16620000ef5760008281526001602081815260408084206001600160a01b0386168086529252808420805460ff19169093179092559051339285917f2f8788117e7eff1d82e926ec794901d17c78024a50270940304540a733656f0d9190a45050565b80516001600160a01b03811681146200026857600080fd5b919050565b6000806000606084860312156200028357600080fd5b6200028e8462000250565b92506200029e6020850162000250565b9150620002ae6040850162000250565b90509250925092565b60805160a051611b156200030760003960008181610347015281816106a401528181610be50152610e9f015260008181610440015281816108bb01528181610ab60152610ba80152611b156000f3fe608060405234801561001057600080fd5b50600436106102055760003560e01c80637b0a47ee1161011a578063c8f33c91116100ad578063d547741f1161007c578063d547741f14610462578063df136d6514610475578063e9fad8ee1461047e578063ebe2b12b14610486578063f2fde38b1461048f57600080fd5b8063c8f33c9114610417578063cc1a378f14610420578063cd3daf9d14610433578063d1af0c7d1461043b57600080fd5b80638da5cb5b116100e95780638da5cb5b146103d857806391d14854146103e9578063a217fddf146103fc578063a694fc3a1461040457600080fd5b80637b0a47ee1461039457806380faa57d1461039d5780638980f11f146103a55780638b876347146103b857600080fd5b806336568abe1161019d5780635c975abb1161016c5780635c975abb1461030657806370a0823114610311578063715018a61461033a57806372f702f3146103425780637ae2b5c71461038157600080fd5b806336568abe146102cf578063386a9525146102e25780633c6b16ab146102eb5780633d18b912146102fe57600080fd5b80631c1f78eb116101d95780631c1f78eb1461027b578063248a9ca3146102835780632e1a7d4d146102a75780632f2ff15d146102bc57600080fd5b80628cc2621461020a57806301ffc9a7146102305780630700037d1461025357806318160ddd14610273575b600080fd5b61021d6102183660046117c2565b6104a2565b6040519081526020015b60405180910390f35b61024361023e3660046117dd565b610520565b6040519015158152602001610227565b61021d6102613660046117c2565b600a6020526000908152604090205481565b600b5461021d565b61021d610555565b61021d610291366004611807565b6000908152600160208190526040909120015490565b6102ba6102b5366004611807565b610573565b005b6102ba6102ca366004611820565b610712565b6102ba6102dd366004611820565b61073d565b61021d60065481565b6102ba6102f9366004611807565b6107bb565b6102ba610a0a565b60035460ff16610243565b61021d61031f3660046117c2565b6001600160a01b03166000908152600c602052604090205490565b6102ba610b20565b6103697f000000000000000000000000000000000000000000000000000000000000000081565b6040516001600160a01b039091168152602001610227565b61021d61038f36600461184c565b610b56565b61021d60055481565b61021d610b6e565b6102ba6103b336600461186e565b610b7c565b61021d6103c63660046117c2565b60096020526000908152604090205481565b6000546001600160a01b0316610369565b6102436103f7366004611820565b610d0d565b61021d600081565b6102ba610412366004611807565b610d38565b61021d60075481565b6102ba61042e366004611807565b610f01565b61021d611029565b6103697f000000000000000000000000000000000000000000000000000000000000000081565b6102ba610470366004611820565b611074565b61021d60085481565b6102ba61109a565b61021d60045481565b6102ba61049d3660046117c2565b6110bb565b6001600160a01b0381166000908152600a6020908152604080832054600990925282205461051a919061051490670de0b6b3a76400009061050e906104ef906104e9611029565b90611156565b6001600160a01b0388166000908152600c602052604090205490611162565b9061116e565b9061117a565b92915050565b60006001600160e01b03198216637965db0b60e01b148061051a57506301ffc9a760e01b6001600160e01b031983161461051a565b600061056e60065460055461116290919063ffffffff16565b905090565b600280540361059d5760405162461bcd60e51b815260040161059490611898565b60405180910390fd5b60028055336105aa611029565b6008556105b5610b6e565b6007556001600160a01b038116156105fc576105d0816104a2565b6001600160a01b0382166000908152600a60209081526040808320939093556008546009909152919020555b600082116106615760405162461bcd60e51b815260206004820152602c60248201527f4c69717569646974795265776172643a3a77697468647261773a2043616e6e6f60448201526b07420776974686472617720360a41b6064820152608401610594565b600b5461066e9083611156565b600b55336000908152600c602052604090205461068b9083611156565b336000818152600c60205260409020919091556106d3907f00000000000000000000000000000000000000000000000000000000000000006001600160a01b03169084611186565b60405182815233907f7084f5476618d8e60b11ef0d7d3f06914655adb8793e28ff7f018d4c76d505d5906020015b60405180910390a250506001600255565b6000828152600160208190526040909120015461072e816111e9565b61073883836111f3565b505050565b6001600160a01b03811633146107ad5760405162461bcd60e51b815260206004820152602f60248201527f416363657373436f6e74726f6c3a2063616e206f6e6c792072656e6f756e636560448201526e103937b632b9903337b91039b2b63360891b6064820152608401610594565b6107b7828261125e565b5050565b6000546001600160a01b031633146107e55760405162461bcd60e51b8152600401610594906118cf565b60006107ef611029565b6008556107fa610b6e565b6007556001600160a01b0381161561084157610815816104a2565b6001600160a01b0382166000908152600a60209081526040808320939093556008546009909152919020555b60045442106108605760065461085890839061116e565b6005556108a3565b6004546000906108709042611156565b905060006108896005548361116290919063ffffffff16565b60065490915061089d9061050e868461117a565b60055550505b6040516370a0823160e01b81523060048201526000907f00000000000000000000000000000000000000000000000000000000000000006001600160a01b0316906370a0823190602401602060405180830381865afa15801561090a573d6000803e3d6000fd5b505050506040513d601f19601f8201168201806040525081019061092e9190611904565b90506109456006548261116e90919063ffffffff16565b60055411156109bc5760405162461bcd60e51b815260206004820152603d60248201527f4c69717569646974795265776172643a3a6e6f74696679526577617264416d6f60448201527f756e743a2050726f76696465642072657761726420746f6f20686967680000006064820152608401610594565b4260078190556006546109cf919061117a565b6004556040518381527fde88a922e0d3b88b24e9623efeb464919c6bf9f66857a65e2bfcf2ce87a9433d9060200160405180910390a1505050565b6002805403610a2b5760405162461bcd60e51b815260040161059490611898565b6002805533610a38611029565b600855610a43610b6e565b6007556001600160a01b03811615610a8a57610a5e816104a2565b6001600160a01b0382166000908152600a60209081526040808320939093556008546009909152919020555b336000908152600a60205260409020548015610b1757336000818152600a6020526040812055610ae5907f00000000000000000000000000000000000000000000000000000000000000006001600160a01b03169083611186565b60405181815233907fe2403640ba68fed3a2f88b7557551d1993f84b99bb10ff833f0cf8db0c5e048690602001610701565b50506001600255565b6000546001600160a01b03163314610b4a5760405162461bcd60e51b8152600401610594906118cf565b610b5460006112c5565b565b6000818310610b655781610b67565b825b9392505050565b600061056e42600454610b56565b6000546001600160a01b03163314610ba65760405162461bcd60e51b8152600401610594906118cf565b7f00000000000000000000000000000000000000000000000000000000000000006001600160a01b0316826001600160a01b031614158015610c1a57507f00000000000000000000000000000000000000000000000000000000000000006001600160a01b0316826001600160a01b031614155b610ca15760405162461bcd60e51b815260206004820152604c60248201527f4c69717569646974795265776172643a3a7265636f76657245524332303a204360448201527f616e6e6f7420776974686472617720746865207374616b696e67206f7220726560648201526b776172647320746f6b656e7360a01b608482015260a401610594565b610cc7610cb66000546001600160a01b031690565b6001600160a01b0384169083611186565b604080516001600160a01b0384168152602081018390527f8c1256b8896378cd5044f80c202f9772b9d77dc85c8a6eb51967210b09bfaa28910160405180910390a15050565b60009182526001602090815260408084206001600160a01b0393909316845291905290205460ff1690565b6002805403610d595760405162461bcd60e51b815260040161059490611898565b6002805560035460ff1615610da35760405162461bcd60e51b815260206004820152601060248201526f14185d5cd8589b194e881c185d5cd95960821b6044820152606401610594565b33610dac611029565b600855610db7610b6e565b6007556001600160a01b03811615610dfe57610dd2816104a2565b6001600160a01b0382166000908152600a60209081526040808320939093556008546009909152919020555b60008211610e5c5760405162461bcd60e51b815260206004820152602560248201527f4c69717569646974795265776172643a3a5374616b653a43616e6e6f742073746044820152640616b6520360dc1b6064820152608401610594565b600b54610e69908361117a565b600b55336000908152600c6020526040902054610e86908361117a565b336000818152600c6020526040902091909155610ecf907f00000000000000000000000000000000000000000000000000000000000000006001600160a01b0316903085611315565b60405182815233907f9e71bc8eea02a63969f509818f2dafb9254532904319f9dbda79b67bd34a5f3d90602001610701565b6000546001600160a01b03163314610f2b5760405162461bcd60e51b8152600401610594906118cf565b6004544211610fee5760405162461bcd60e51b815260206004820152607d60248201527f4c69717569646974795265776172643a3a73657452657761726473447572617460448201527f696f6e3a2050726576696f7573207265776172647320706572696f64206d757360648201527f7420626520636f6d706c657465206265666f7265206368616e67696e6720746860848201527f65206475726174696f6e20666f7220746865206e657720706572696f6400000060a482015260c401610594565b60068190556040518181527ffb46ca5a5e06d4540d6387b930a7c978bce0db5f449ec6b3f5d07c6e1d44f2d39060200160405180910390a150565b6000600b5460000361103c575060085490565b61056e61106b600b5461050e670de0b6b3a76400006110656005546110656007546104e9610b6e565b90611162565b6008549061117a565b60008281526001602081905260409091200154611090816111e9565b610738838361125e565b336000908152600c60205260409020546110b390610573565b610b54610a0a565b6000546001600160a01b031633146110e55760405162461bcd60e51b8152600401610594906118cf565b6001600160a01b03811661114a5760405162461bcd60e51b815260206004820152602660248201527f4f776e61626c653a206e6577206f776e657220697320746865207a65726f206160448201526564647265737360d01b6064820152608401610594565b611153816112c5565b50565b6000610b678284611933565b6000610b678284611946565b6000610b67828461195d565b6000610b67828461197f565b6040516001600160a01b03831660248201526044810182905261073890849063a9059cbb60e01b906064015b60408051601f198184030181529190526020810180516001600160e01b03166001600160e01b031990931692909217909152611353565b6111538133611425565b6111fd8282610d0d565b6107b75760008281526001602081815260408084206001600160a01b0386168086529252808420805460ff19169093179092559051339285917f2f8788117e7eff1d82e926ec794901d17c78024a50270940304540a733656f0d9190a45050565b6112688282610d0d565b156107b75760008281526001602090815260408083206001600160a01b0385168085529252808320805460ff1916905551339285917ff6391f5c32d9c69d2a47ea670b442974b53935d1edc7fd64eb21e047a839171b9190a45050565b600080546001600160a01b038381166001600160a01b0319831681178455604051919092169283917f8be0079c531659141344cd1fd0a4f28419497f9722a3daafe3b4186f6b6457e09190a35050565b6040516001600160a01b038085166024830152831660448201526064810182905261134d9085906323b872dd60e01b906084016111b2565b50505050565b60006113a8826040518060400160405280602081526020017f5361666545524332303a206c6f772d6c6576656c2063616c6c206661696c6564815250856001600160a01b03166114899092919063ffffffff16565b80519091501561073857808060200190518101906113c69190611992565b6107385760405162461bcd60e51b815260206004820152602a60248201527f5361666545524332303a204552433230206f7065726174696f6e20646964206e6044820152691bdd081cdd58d8d9595960b21b6064820152608401610594565b61142f8282610d0d565b6107b757611447816001600160a01b031660146114a0565b6114528360206114a0565b6040516020016114639291906119d8565b60408051601f198184030181529082905262461bcd60e51b825261059491600401611a4d565b6060611498848460008561163c565b949350505050565b606060006114af836002611946565b6114ba90600261197f565b67ffffffffffffffff8111156114d2576114d2611a80565b6040519080825280601f01601f1916602001820160405280156114fc576020820181803683370190505b509050600360fc1b8160008151811061151757611517611a96565b60200101906001600160f81b031916908160001a905350600f60fb1b8160018151811061154657611546611a96565b60200101906001600160f81b031916908160001a905350600061156a846002611946565b61157590600161197f565b90505b60018111156115ed576f181899199a1a9b1b9c1cb0b131b232b360811b85600f16601081106115a9576115a9611a96565b1a60f81b8282815181106115bf576115bf611a96565b60200101906001600160f81b031916908160001a90535060049490941c936115e681611aac565b9050611578565b508315610b675760405162461bcd60e51b815260206004820181905260248201527f537472696e67733a20686578206c656e67746820696e73756666696369656e746044820152606401610594565b60608247101561169d5760405162461bcd60e51b815260206004820152602660248201527f416464726573733a20696e73756666696369656e742062616c616e636520666f6044820152651c8818d85b1b60d21b6064820152608401610594565b6001600160a01b0385163b6116f45760405162461bcd60e51b815260206004820152601d60248201527f416464726573733a2063616c6c20746f206e6f6e2d636f6e74726163740000006044820152606401610594565b600080866001600160a01b031685876040516117109190611ac3565b60006040518083038185875af1925050503d806000811461174d576040519150601f19603f3d011682016040523d82523d6000602084013e611752565b606091505b509150915061176282828661176d565b979650505050505050565b6060831561177c575081610b67565b82511561178c5782518084602001fd5b8160405162461bcd60e51b81526004016105949190611a4d565b80356001600160a01b03811681146117bd57600080fd5b919050565b6000602082840312156117d457600080fd5b610b67826117a6565b6000602082840312156117ef57600080fd5b81356001600160e01b031981168114610b6757600080fd5b60006020828403121561181957600080fd5b5035919050565b6000806040838503121561183357600080fd5b82359150611843602084016117a6565b90509250929050565b6000806040838503121561185f57600080fd5b50508035926020909101359150565b6000806040838503121561188157600080fd5b61188a836117a6565b946020939093013593505050565b6020808252601f908201527f5265656e7472616e637947756172643a207265656e7472616e742063616c6c00604082015260600190565b6020808252818101527f4f776e61626c653a2063616c6c6572206973206e6f7420746865206f776e6572604082015260600190565b60006020828403121561191657600080fd5b5051919050565b634e487b7160e01b600052601160045260246000fd5b8181038181111561051a5761051a61191d565b808202811582820484141761051a5761051a61191d565b60008261197a57634e487b7160e01b600052601260045260246000fd5b500490565b8082018082111561051a5761051a61191d565b6000602082840312156119a457600080fd5b81518015158114610b6757600080fd5b60005b838110156119cf5781810151838201526020016119b7565b50506000910152565b7f416363657373436f6e74726f6c3a206163636f756e7420000000000000000000815260008351611a108160178501602088016119b4565b7001034b99036b4b9b9b4b733903937b6329607d1b6017918401918201528351611a418160288401602088016119b4565b01602801949350505050565b6020815260008251806020840152611a6c8160408501602087016119b4565b601f01601f19169190910160400192915050565b634e487b7160e01b600052604160045260246000fd5b634e487b7160e01b600052603260045260246000fd5b600081611abb57611abb61191d565b506000190190565b60008251611ad58184602087016119b4565b919091019291505056fea264697066735822122060e2aa0ba42307d9c8e63fe3c8ec9c8fde2b2dfc4344bc2705f6e914488232f464736f6c63430008110033",
  "devdoc": {
    "kind": "dev",
    "methods": {
      "balanceOf(address)": {
        "params": {
          "_account": "address"
        }
      },
      "constructor": {
        "params": {
          "_owner": "address",
          "_rewardsToken": "address",
          "_stakingToken": "uint256"
        }
      },
      "earned(address)": {
        "params": {
          "_account": "address"
        }
      },
      "getReward()": {
        "details": "updates rewards on callfrom the total reward a vestingRatio amount is locked into vesting and the rest is transferedif vesting period has passed transfer all rewards"
      },
      "getRoleAdmin(bytes32)": {
        "details": "Returns the admin role that controls `role`. See {grantRole} and {revokeRole}. To change a role's admin, use {_setRoleAdmin}."
      },
      "grantRole(bytes32,address)": {
        "details": "Grants `role` to `account`. If `account` had not been already granted `role`, emits a {RoleGranted} event. Requirements: - the caller must have ``role``'s admin role."
      },
      "hasRole(bytes32,address)": {
        "details": "Returns `true` if `account` has been granted `role`."
      },
      "min(uint256,uint256)": {
        "params": {
          "_a": "uint",
          "_b": "uint"
        }
      },
      "notifyRewardAmount(uint256)": {
        "details": "Only owner  can call itIncreases duration of rewards",
        "params": {
          "_reward": "uint"
        }
      },
      "owner()": {
        "details": "Returns the address of the current owner."
      },
      "paused()": {
        "details": "Returns true if the contract is paused, and false otherwise."
      },
      "recoverERC20(address,uint256)": {
        "details": "Only owner  can call it",
        "params": {
          "_tokenAddress": "address",
          "_tokenAmount": "uint"
        }
      },
      "renounceOwnership()": {
        "details": "Leaves the contract without owner. It will not be possible to call `onlyOwner` functions anymore. Can only be called by the current owner. NOTE: Renouncing ownership will leave the contract without an owner, thereby removing any functionality that is only available to the owner."
      },
      "renounceRole(bytes32,address)": {
        "details": "Revokes `role` from the calling account. Roles are often managed via {grantRole} and {revokeRole}: this function's purpose is to provide a mechanism for accounts to lose their privileges if they are compromised (such as when a trusted device is misplaced). If the calling account had been revoked `role`, emits a {RoleRevoked} event. Requirements: - the caller must be `account`."
      },
      "revokeRole(bytes32,address)": {
        "details": "Revokes `role` from `account`. If `account` had been granted `role`, emits a {RoleRevoked} event. Requirements: - the caller must have ``role``'s admin role."
      },
      "setRewardsDuration(uint256)": {
        "details": "Only owner  can call itPrevious rewards must be complete",
        "params": {
          "_rewardsDuration": "uint"
        }
      },
      "stake(uint256)": {
        "details": "updates rewards on call",
        "params": {
          "_amount": "uint"
        }
      },
      "supportsInterface(bytes4)": {
        "details": "See {IERC165-supportsInterface}."
      },
      "transferOwnership(address)": {
        "details": "Transfers ownership of the contract to a new account (`newOwner`). Can only be called by the current owner."
      },
      "withdraw(uint256)": {
        "details": "updates rewards on call",
        "params": {
          "_amount": "uint"
        }
      }
    },
    "stateVariables": {
      "_balances": {
        "details": "Tracks the amount of staked tokens per user"
      },
      "_totalSupply": {
        "details": "Tracks the total supply of staked tokens"
      }
    },
    "version": 1
  },
  "userdoc": {
    "events": {
      "Recovered(address,uint256)": {
        "notice": "An event emitted when a erc20 token is recovered"
      },
      "RewardAdded(uint256)": {
        "notice": "An event emitted when a reward is added"
      },
      "RewardPaid(address,uint256)": {
        "notice": "An event emitted when reward is paid to a user"
      },
      "RewardsDurationUpdated(uint256)": {
        "notice": "An event emitted when the rewards duration is updated"
      },
      "Staked(address,uint256)": {
        "notice": "An event emitted when tokens are staked to earn rewards"
      },
      "Withdrawn(address,uint256)": {
        "notice": "An event emitted when staked tokens are withdrawn"
      }
    },
    "kind": "user",
    "methods": {
      "balanceOf(address)": {
        "notice": "Returns the amount of staked tokens from specific user."
      },
      "constructor": {
        "notice": "Constructor"
      },
      "earned(address)": {
        "notice": "Returns the amount of reward tokens a user has earned."
      },
      "exit()": {
        "notice": "Removes all stake and transfers all rewards to the staker."
      },
      "getReward()": {
        "notice": "Transfers to the caller the current amount of rewards tokens earned."
      },
      "lastTimeRewardApplicable()": {
        "notice": "Returns the minimun between current block timestamp or the finish period of rewards."
      },
      "lastUpdateTime()": {
        "notice": "Last time rewards were updated"
      },
      "min(uint256,uint256)": {
        "notice": "Returns the minimun between two variables"
      },
      "notifyRewardAmount(uint256)": {
        "notice": "Notifies the contract that reward has been added to be given."
      },
      "periodFinish()": {
        "notice": "Tracks the period where users stop earning rewards"
      },
      "recoverERC20(address,uint256)": {
        "notice": "Added to support recovering LP Rewards from other systems such as BAL to be distributed to holders"
      },
      "rewardPerToken()": {
        "notice": "Returns the calculated reward per token deposited."
      },
      "rewardPerTokenStored()": {
        "notice": "Amount of reward calculated per token stored"
      },
      "rewards(address)": {
        "notice": "Tracks the user rewards"
      },
      "rewardsDuration()": {
        "notice": "How long the rewards lasts, it updates when more rewards are added"
      },
      "rewardsToken()": {
        "notice": "Address of the reward"
      },
      "setRewardsDuration(uint256)": {
        "notice": "Updates the reward duration"
      },
      "stake(uint256)": {
        "notice": "Transfer staking token to contract"
      },
      "stakingToken()": {
        "notice": "Address of the staking token"
      },
      "totalSupply()": {
        "notice": "Returns the total amount of staked tokens."
      },
      "userRewardPerTokenPaid(address)": {
        "notice": "Track the rewards paid to users"
      },
      "withdraw(uint256)": {
        "notice": "Remove staking token and transfer back to staker"
      }
    },
    "version": 1
  },
  "storageLayout": {
    "storage": [
      {
        "astId": 10071,
        "contract": "contracts/LiquidityReward.sol:LiquidityReward",
        "label": "_owner",
        "offset": 0,
        "slot": "0",
        "type": "t_address"
      },
      {
        "astId": 9545,
        "contract": "contracts/LiquidityReward.sol:LiquidityReward",
        "label": "_roles",
        "offset": 0,
        "slot": "1",
        "type": "t_mapping(t_bytes32,t_struct(RoleData)9540_storage)"
      },
      {
        "astId": 11014,
        "contract": "contracts/LiquidityReward.sol:LiquidityReward",
        "label": "_status",
        "offset": 0,
        "slot": "2",
        "type": "t_uint256"
      },
      {
        "astId": 10929,
        "contract": "contracts/LiquidityReward.sol:LiquidityReward",
        "label": "_paused",
        "offset": 0,
        "slot": "3",
        "type": "t_bool"
      },
      {
        "astId": 14321,
        "contract": "contracts/LiquidityReward.sol:LiquidityReward",
        "label": "periodFinish",
        "offset": 0,
        "slot": "4",
        "type": "t_uint256"
      },
      {
        "astId": 14324,
        "contract": "contracts/LiquidityReward.sol:LiquidityReward",
        "label": "rewardRate",
        "offset": 0,
        "slot": "5",
        "type": "t_uint256"
      },
      {
        "astId": 14328,
        "contract": "contracts/LiquidityReward.sol:LiquidityReward",
        "label": "rewardsDuration",
        "offset": 0,
        "slot": "6",
        "type": "t_uint256"
      },
      {
        "astId": 14331,
        "contract": "contracts/LiquidityReward.sol:LiquidityReward",
        "label": "lastUpdateTime",
        "offset": 0,
        "slot": "7",
        "type": "t_uint256"
      },
      {
        "astId": 14334,
        "contract": "contracts/LiquidityReward.sol:LiquidityReward",
        "label": "rewardPerTokenStored",
        "offset": 0,
        "slot": "8",
        "type": "t_uint256"
      },
      {
        "astId": 14339,
        "contract": "contracts/LiquidityReward.sol:LiquidityReward",
        "label": "userRewardPerTokenPaid",
        "offset": 0,
        "slot": "9",
        "type": "t_mapping(t_address,t_uint256)"
      },
      {
        "astId": 14344,
        "contract": "contracts/LiquidityReward.sol:LiquidityReward",
        "label": "rewards",
        "offset": 0,
        "slot": "10",
        "type": "t_mapping(t_address,t_uint256)"
      },
      {
        "astId": 14347,
        "contract": "contracts/LiquidityReward.sol:LiquidityReward",
        "label": "_totalSupply",
        "offset": 0,
        "slot": "11",
        "type": "t_uint256"
      },
      {
        "astId": 14352,
        "contract": "contracts/LiquidityReward.sol:LiquidityReward",
        "label": "_balances",
        "offset": 0,
        "slot": "12",
        "type": "t_mapping(t_address,t_uint256)"
      }
    ],
    "types": {
      "t_address": {
        "encoding": "inplace",
        "label": "address",
        "numberOfBytes": "20"
      },
      "t_bool": {
        "encoding": "inplace",
        "label": "bool",
        "numberOfBytes": "1"
      },
      "t_bytes32": {
        "encoding": "inplace",
        "label": "bytes32",
        "numberOfBytes": "32"
      },
      "t_mapping(t_address,t_bool)": {
        "encoding": "mapping",
        "key": "t_address",
        "label": "mapping(address => bool)",
        "numberOfBytes": "32",
        "value": "t_bool"
      },
      "t_mapping(t_address,t_uint256)": {
        "encoding": "mapping",
        "key": "t_address",
        "label": "mapping(address => uint256)",
        "numberOfBytes": "32",
        "value": "t_uint256"
      },
      "t_mapping(t_bytes32,t_struct(RoleData)9540_storage)": {
        "encoding": "mapping",
        "key": "t_bytes32",
        "label": "mapping(bytes32 => struct AccessControl.RoleData)",
        "numberOfBytes": "32",
        "value": "t_struct(RoleData)9540_storage"
      },
      "t_struct(RoleData)9540_storage": {
        "encoding": "inplace",
        "label": "struct AccessControl.RoleData",
        "members": [
          {
            "astId": 9537,
            "contract": "contracts/LiquidityReward.sol:LiquidityReward",
            "label": "members",
            "offset": 0,
            "slot": "0",
            "type": "t_mapping(t_address,t_bool)"
          },
          {
            "astId": 9539,
            "contract": "contracts/LiquidityReward.sol:LiquidityReward",
            "label": "adminRole",
            "offset": 0,
            "slot": "1",
            "type": "t_bytes32"
          }
        ],
        "numberOfBytes": "64"
      },
      "t_uint256": {
        "encoding": "inplace",
        "label": "uint256",
        "numberOfBytes": "32"
      }
    }
  }
}