{
  "address": "0xD4Ff33F926D84645a5Fc5B1dcbF59f3Cea77b39A",
  "abi": [
    {
      "inputs": [
        {
          "internalType": "address",
          "name": "rebateTokenAddress",
          "type": "address"
        },
        {
          "internalType": "address",
          "name": "owner",
          "type": "address"
        },
        {
          "internalType": "address",
          "name": "_merkleRootAdmin",
          "type": "address"
        },
        {
          "internalType": "uint256",
          "name": "_maxUsersToClaim",
          "type": "uint256"
        },
        {
          "internalType": "uint256",
          "name": "_timeElapsedForUpdate",
          "type": "uint256"
        },
        {
          "internalType": "uint256",
          "name": "_timeToReclaimRewards",
          "type": "uint256"
        }
      ],
      "stateMutability": "nonpayable",
      "type": "constructor"
    },
    {
      "anonymous": false,
      "inputs": [
        {
          "indexed": false,
          "internalType": "bytes32",
          "name": "merkleRoot",
          "type": "bytes32"
        },
        {
          "indexed": false,
          "internalType": "uint256",
          "name": "maxAmountToClaim",
          "type": "uint256"
        }
      ],
      "name": "MerkleRootUpdated",
      "type": "event"
    },
    {
      "anonymous": false,
      "inputs": [
        {
          "indexed": true,
          "internalType": "address",
          "name": "previousOwner",
          "type": "address"
        },
        {
          "indexed": true,
          "internalType": "address",
          "name": "newOwner",
          "type": "address"
        }
      ],
      "name": "OwnershipTransferred",
      "type": "event"
    },
    {
      "anonymous": false,
      "inputs": [
        {
          "indexed": true,
          "internalType": "address",
          "name": "user",
          "type": "address"
        },
        {
          "indexed": false,
          "internalType": "uint256",
          "name": "reward",
          "type": "uint256"
        }
      ],
      "name": "RewardPaid",
      "type": "event"
    },
    {
      "inputs": [
        {
          "internalType": "address",
          "name": "",
          "type": "address"
        }
      ],
      "name": "addressExists",
      "outputs": [
        {
          "internalType": "bool",
          "name": "",
          "type": "bool"
        }
      ],
      "stateMutability": "view",
      "type": "function"
    },
    {
      "inputs": [],
      "name": "amountClaimed",
      "outputs": [
        {
          "internalType": "uint256",
          "name": "",
          "type": "uint256"
        }
      ],
      "stateMutability": "view",
      "type": "function"
    },
    {
      "inputs": [
        {
          "internalType": "bytes32[]",
          "name": "proof",
          "type": "bytes32[]"
        },
        {
          "internalType": "uint256",
          "name": "amount",
          "type": "uint256"
        }
      ],
      "name": "claimReward",
      "outputs": [],
      "stateMutability": "nonpayable",
      "type": "function"
    },
    {
      "inputs": [
        {
          "internalType": "uint256",
          "name": "",
          "type": "uint256"
        }
      ],
      "name": "claimedAddresses",
      "outputs": [
        {
          "internalType": "address",
          "name": "",
          "type": "address"
        }
      ],
      "stateMutability": "view",
      "type": "function"
    },
    {
      "inputs": [],
      "name": "lastUpdated",
      "outputs": [
        {
          "internalType": "uint256",
          "name": "",
          "type": "uint256"
        }
      ],
      "stateMutability": "view",
      "type": "function"
    },
    {
      "inputs": [],
      "name": "maxAmountToClaim",
      "outputs": [
        {
          "internalType": "uint256",
          "name": "",
          "type": "uint256"
        }
      ],
      "stateMutability": "view",
      "type": "function"
    },
    {
      "inputs": [],
      "name": "maxUsersToClaim",
      "outputs": [
        {
          "internalType": "uint256",
          "name": "",
          "type": "uint256"
        }
      ],
      "stateMutability": "view",
      "type": "function"
    },
    {
      "inputs": [],
      "name": "merkleRoot",
      "outputs": [
        {
          "internalType": "bytes32",
          "name": "",
          "type": "bytes32"
        }
      ],
      "stateMutability": "view",
      "type": "function"
    },
    {
      "inputs": [],
      "name": "merkleRootAdmin",
      "outputs": [
        {
          "internalType": "address",
          "name": "",
          "type": "address"
        }
      ],
      "stateMutability": "view",
      "type": "function"
    },
    {
      "inputs": [],
      "name": "owner",
      "outputs": [
        {
          "internalType": "address",
          "name": "",
          "type": "address"
        }
      ],
      "stateMutability": "view",
      "type": "function"
    },
    {
      "inputs": [],
      "name": "rebateToken",
      "outputs": [
        {
          "internalType": "contract IERC20",
          "name": "",
          "type": "address"
        }
      ],
      "stateMutability": "view",
      "type": "function"
    },
    {
      "inputs": [
        {
          "internalType": "address",
          "name": "account",
          "type": "address"
        }
      ],
      "name": "reclaimUnusedReward",
      "outputs": [],
      "stateMutability": "nonpayable",
      "type": "function"
    },
    {
      "inputs": [],
      "name": "renounceOwnership",
      "outputs": [],
      "stateMutability": "nonpayable",
      "type": "function"
    },
    {
      "inputs": [],
      "name": "timeElapsedForUpdate",
      "outputs": [
        {
          "internalType": "uint256",
          "name": "",
          "type": "uint256"
        }
      ],
      "stateMutability": "view",
      "type": "function"
    },
    {
      "inputs": [],
      "name": "timeToReclaimRewards",
      "outputs": [
        {
          "internalType": "uint256",
          "name": "",
          "type": "uint256"
        }
      ],
      "stateMutability": "view",
      "type": "function"
    },
    {
      "inputs": [
        {
          "internalType": "address",
          "name": "newOwner",
          "type": "address"
        }
      ],
      "name": "transferOwnership",
      "outputs": [],
      "stateMutability": "nonpayable",
      "type": "function"
    },
    {
      "inputs": [
        {
          "internalType": "uint256",
          "name": "_maxUsersToClaim",
          "type": "uint256"
        }
      ],
      "name": "updateMaxUsersToClaim",
      "outputs": [],
      "stateMutability": "nonpayable",
      "type": "function"
    },
    {
      "inputs": [
        {
          "internalType": "bytes32",
          "name": "_merkleRoot",
          "type": "bytes32"
        },
        {
          "internalType": "uint256",
          "name": "_maxAmountToClaim",
          "type": "uint256"
        }
      ],
      "name": "updateMerkleRoot",
      "outputs": [],
      "stateMutability": "nonpayable",
      "type": "function"
    },
    {
      "inputs": [
        {
          "internalType": "uint256",
          "name": "_timeElapsedForUpdate",
          "type": "uint256"
        }
      ],
      "name": "updateTimeElapsedForUpdate",
      "outputs": [],
      "stateMutability": "nonpayable",
      "type": "function"
    },
    {
      "inputs": [
        {
          "internalType": "uint256",
          "name": "_timeToReclaimRewards",
          "type": "uint256"
        }
      ],
      "name": "updateTimeToReclaimRewards",
      "outputs": [],
      "stateMutability": "nonpayable",
      "type": "function"
    }
  ],
  "transactionHash": "0x37fda061bdeaaae4ba5738035cd440bac6b7abb0468189c6927d219fe76befb2",
  "args": [
    "0x6775842AE82BF2F0f987b10526768Ad89d79536E",
    "0xEA8b3DF14B0bad2F6DD0Ed847DCc54Fc100e40C3",
    "0xEA8b3DF14B0bad2F6DD0Ed847DCc54Fc100e40C3",
    100,
    1,
    259200
  ],
  "numDeployments": 1,
  "solcInputHash": "e490f85fdfe5ff439899f6c2f833ac14",
  "bytecode": "0x60a06040523480156200001157600080fd5b50604051620015c8380380620015c8833981016040819052620000349162000243565b6200003f3362000105565b818111620000ba5760405162461bcd60e51b815260206004820152603460248201527f5f74696d65546f5265636c61696d52657761726473206c657373207468616e2060448201527f74696d65456c6170736564466f7255706461746500000000000000000000000060648201526084015b60405180910390fd5b6001600160a01b03868116608052600280546001600160a01b03191691861691909117905560068390556007829055600a819055620000f98562000155565b505050505050620002a9565b600080546001600160a01b038381166001600160a01b0319831681178455604051919092169283917f8be0079c531659141344cd1fd0a4f28419497f9722a3daafe3b4186f6b6457e09190a35050565b6000546001600160a01b03163314620001b15760405162461bcd60e51b815260206004820181905260248201527f4f776e61626c653a2063616c6c6572206973206e6f7420746865206f776e65726044820152606401620000b1565b6001600160a01b038116620002185760405162461bcd60e51b815260206004820152602660248201527f4f776e61626c653a206e6577206f776e657220697320746865207a65726f206160448201526564647265737360d01b6064820152608401620000b1565b620002238162000105565b50565b80516001600160a01b03811681146200023e57600080fd5b919050565b60008060008060008060c087890312156200025d57600080fd5b620002688762000226565b9550620002786020880162000226565b9450620002886040880162000226565b9350606087015192506080870151915060a087015190509295509295509295565b6080516112e7620002e1600039600081816101a10152818161048c01528181610673015281816106e80152610b3601526112e76000f3fe608060405234801561001057600080fd5b506004361061012c5760003560e01c80636d983800116100ad578063ad6b5d0411610071578063ad6b5d041461027a578063d0b06f5d14610283578063dc08be911461028c578063f2fde38b14610295578063f3094297146102a857600080fd5b80636d983800146102085780636fdba0b01461021b578063715018a61461022e5780638da5cb5b14610236578063a50252221461024757600080fd5b80632eb4a7ab116100f45780632eb4a7ab146101c357806332923a57146101da57806346577f0b146101ed5780635745c329146101f65780635eeaa8d0146101ff57600080fd5b806303bdbbd51461013157806303c159571461014657806309423cb5146101595780630e90c1591461016c5780631d3462681461019c575b600080fd5b61014461013f366004611025565b6102bb565b005b61014461015436600461103e565b6103a0565b610144610167366004611060565b6105bc565b61017f61017a366004611025565b610712565b6040516001600160a01b0390911681526020015b60405180910390f35b61017f7f000000000000000000000000000000000000000000000000000000000000000081565b6101cc60045481565b604051908152602001610193565b60025461017f906001600160a01b031681565b6101cc60085481565b6101cc600a5481565b6101cc60075481565b610144610216366004611025565b61073c565b610144610229366004611025565b6107bb565b61014461083a565b6000546001600160a01b031661017f565b61026a610255366004611060565b60016020526000908152604090205460ff1681565b6040519015158152602001610193565b6101cc60095481565b6101cc60055481565b6101cc60065481565b6101446102a3366004611060565b610870565b6101446102b636600461109f565b610908565b6000546001600160a01b031633146102ee5760405162461bcd60e51b81526004016102e590611163565b60405180910390fd5b8060000361033e5760405162461bcd60e51b815260206004820181905260248201527f5f74696d65546f5265636c61696d526577617264732063616e2774206265203060448201526064016102e5565b600754811161039b5760405162461bcd60e51b8152602060048201526024808201527f76616c7565206c657373207468616e2074696d65456c6170736564466f7255706044820152636461746560e01b60648201526084016102e5565b600a55565b6002546001600160a01b031633146103fa5760405162461bcd60e51b815260206004820152601f60248201527f63616c6c65722063616e277420757064617465206d65726b6c6520726f6f740060448201526064016102e5565b60075460055461040a90426111ae565b1015806104175750600554155b6104755760405162461bcd60e51b815260206004820152602960248201527f43616e6e6f7420757064617465206265666f72652074696d65456c6170736564604482015268466f7255706461746560b81b60648201526084016102e5565b6040516370a0823160e01b815230600482015281907f00000000000000000000000000000000000000000000000000000000000000006001600160a01b0316906370a0823190602401602060405180830381865afa1580156104db573d6000803e3d6000fd5b505050506040513d601f19601f820116820180604052508101906104ff91906111c1565b10156105585760405162461bcd60e51b815260206004820152602260248201527f42616c616e6365206c657373207468616e206d6178416d6f756e74546f436c61604482015261696d60f01b60648201526084016102e5565b42600555610564610b98565b61057060036000610ff3565b60006009556008819055600482905560408051838152602081018390527fecb6e184c8c1ff50ab199b30650a76b7eb56fe2f261becc6284e0a3a1707be48910160405180910390a15050565b6000546001600160a01b031633146105e65760405162461bcd60e51b81526004016102e590611163565b600a546005546105f690426111ae565b10156106505760405162461bcd60e51b815260206004820152602360248201527f74696d65206c657373207468616e2074696d65546f5265636c61696d5265776160448201526272647360e81b60648201526084016102e5565b6040516370a0823160e01b815230600482015261070f9082906001600160a01b037f000000000000000000000000000000000000000000000000000000000000000016906370a0823190602401602060405180830381865afa1580156106ba573d6000803e3d6000fd5b505050506040513d601f19601f820116820180604052508101906106de91906111c1565b6001600160a01b037f0000000000000000000000000000000000000000000000000000000000000000169190610bff565b50565b6003818154811061072257600080fd5b6000918252602090912001546001600160a01b0316905081565b6000546001600160a01b031633146107665760405162461bcd60e51b81526004016102e590611163565b806000036107b65760405162461bcd60e51b815260206004820181905260248201527f5f74696d65456c6170736564466f725570646174652063616e2774206265203060448201526064016102e5565b600755565b6000546001600160a01b031633146107e55760405162461bcd60e51b81526004016102e590611163565b806000036108355760405162461bcd60e51b815260206004820152601b60248201527f5f6d61785573657273546f436c61696d2063616e27742062652030000000000060448201526064016102e5565b600655565b6000546001600160a01b031633146108645760405162461bcd60e51b81526004016102e590611163565b61086e6000610c56565b565b6000546001600160a01b0316331461089a5760405162461bcd60e51b81526004016102e590611163565b6001600160a01b0381166108ff5760405162461bcd60e51b815260206004820152602660248201527f4f776e61626c653a206e6577206f776e657220697320746865207a65726f206160448201526564647265737360d01b60648201526084016102e5565b61070f81610c56565b60045461094b5760405162461bcd60e51b8152602060048201526011602482015270115b5c1d1e4813595c9adb1948149bdbdd607a1b60448201526064016102e5565b3360009081526001602052604090205460ff16156109a45760405162461bcd60e51b8152602060048201526016602482015275149958985d1948185b1c9958591e4818db185a5b595960521b60448201526064016102e5565b60006009546008546109b691906111ae565b905060008111610a085760405162461bcd60e51b815260206004820152601d60248201527f416c6c20726562617465732068617665206265656e20436c61696d656400000060448201526064016102e5565b610a13833384610ca6565b610a4f5760405162461bcd60e51b815260206004820152600d60248201526c24b73b30b634b210283937b7b360991b60448201526064016102e5565b3360008181526001602081905260408220805460ff191682179055600380549182018155918290527fc2575a0e9e593c00f959f8c92f12db2869c3395a3b0502d05e2516446f71f85b0180546001600160a01b03191690921790915560065490541115610afe5760405162461bcd60e51b815260206004820152601a60248201527f4578636565646564204d6178206e756d62657220636c61696d7300000000000060448201526064016102e5565b6000818310610b0d5781610b0f565b825b90508060096000828254610b2391906111da565b90915550610b5d90506001600160a01b037f0000000000000000000000000000000000000000000000000000000000000000163383610bff565b60405181815233907fe2403640ba68fed3a2f88b7557551d1993f84b99bb10ff833f0cf8db0c5e04869060200160405180910390a250505050565b60035460005b81811015610bfb576001600060038381548110610bbd57610bbd6111ed565b60009182526020808320909101546001600160a01b031683528201929092526040019020805460ff1916905580610bf381611203565b915050610b9e565b5050565b604080516001600160a01b038416602482015260448082018490528251808303909101815260649091019091526020810180516001600160e01b031663a9059cbb60e01b179052610c51908490610d14565b505050565b600080546001600160a01b038381166001600160a01b0319831681178455604051919092169283917f8be0079c531659141344cd1fd0a4f28419497f9722a3daafe3b4186f6b6457e09190a35050565b604080516001600160a01b0384166020820152908101829052600090819060600160408051601f1981840301815282825280516020918201209083015201604051602081830303815290604052805190602001209050610d098560045483610de6565b9150505b9392505050565b6000610d69826040518060400160405280602081526020017f5361666545524332303a206c6f772d6c6576656c2063616c6c206661696c6564815250856001600160a01b0316610dfc9092919063ffffffff16565b805190915015610c515780806020019051810190610d87919061121c565b610c515760405162461bcd60e51b815260206004820152602a60248201527f5361666545524332303a204552433230206f7065726174696f6e20646964206e6044820152691bdd081cdd58d8d9595960b21b60648201526084016102e5565b600082610df38584610e13565b14949350505050565b6060610e0b8484600085610e89565b949350505050565b600081815b8451811015610e7f576000858281518110610e3557610e356111ed565b60200260200101519050808311610e5b5760008381526020829052604090209250610e6c565b600081815260208490526040902092505b5080610e7781611203565b915050610e18565b5090505b92915050565b606082471015610eea5760405162461bcd60e51b815260206004820152602660248201527f416464726573733a20696e73756666696369656e742062616c616e636520666f6044820152651c8818d85b1b60d21b60648201526084016102e5565b6001600160a01b0385163b610f415760405162461bcd60e51b815260206004820152601d60248201527f416464726573733a2063616c6c20746f206e6f6e2d636f6e747261637400000060448201526064016102e5565b600080866001600160a01b03168587604051610f5d9190611262565b60006040518083038185875af1925050503d8060008114610f9a576040519150601f19603f3d011682016040523d82523d6000602084013e610f9f565b606091505b5091509150610faf828286610fba565b979650505050505050565b60608315610fc9575081610d0d565b825115610fd95782518084602001fd5b8160405162461bcd60e51b81526004016102e5919061127e565b508054600082559060005260206000209081019061070f91905b80821115611021576000815560010161100d565b5090565b60006020828403121561103757600080fd5b5035919050565b6000806040838503121561105157600080fd5b50508035926020909101359150565b60006020828403121561107257600080fd5b81356001600160a01b0381168114610d0d57600080fd5b634e487b7160e01b600052604160045260246000fd5b600080604083850312156110b257600080fd5b823567ffffffffffffffff808211156110ca57600080fd5b818501915085601f8301126110de57600080fd5b81356020828211156110f2576110f2611089565b8160051b604051601f19603f8301168101818110868211171561111757611117611089565b60405292835281830193508481018201928984111561113557600080fd5b948201945b838610156111535785358552948201949382019361113a565b9997909101359750505050505050565b6020808252818101527f4f776e61626c653a2063616c6c6572206973206e6f7420746865206f776e6572604082015260600190565b634e487b7160e01b600052601160045260246000fd5b81810381811115610e8357610e83611198565b6000602082840312156111d357600080fd5b5051919050565b80820180821115610e8357610e83611198565b634e487b7160e01b600052603260045260246000fd5b60006001820161121557611215611198565b5060010190565b60006020828403121561122e57600080fd5b81518015158114610d0d57600080fd5b60005b83811015611259578181015183820152602001611241565b50506000910152565b6000825161127481846020870161123e565b9190910192915050565b602081526000825180602084015261129d81604085016020870161123e565b601f01601f1916919091016040019291505056fea2646970667358221220bab0631f11006e8304b959163373400c7211ade8485fdf38bbc2d319705f352864736f6c63430008110033",
  "devdoc": {
    "details": "Contract that distributes rewards to users based on a merkle proof that is computed offchain and updated on a regular basis by the admin. The contract assumes that rebateToken balance will be transferred directly by the program creator. The merkle root can be updated by the admin only if block.timestamp >= _timeElapsedForUpdate. Rewards will be claimed on a first cum first serve basis until the total amount claimed is less than the cap set for the ongoing epoch. There is also a cap on the total number of users that can claim tokens in a given epoch. This is done because of gas limitation while resetting the addressExists variable. Admin can reclaim unused rewards after a certain amount of inactivity",
    "kind": "dev",
    "methods": {
      "claimReward(bytes32[],uint256)": {
        "params": {
          "amount": "The amount that can be claimed by msg.sender.",
          "proof": "The merkle proof for msg.senders distribution."
        }
      },
      "constructor": {
        "params": {
          "_maxUsersToClaim": "Maximum numbers of users that can claim fees during an epoch.",
          "_timeElapsedForUpdate": "The time after which the next distribution can be updated.",
          "_timeToReclaimRewards": "The time after which an admin can claim unused rewards.",
          "owner": "address of the owner.",
          "rebateTokenAddress": "address of the token that will be used to pay rebates."
        }
      },
      "owner()": {
        "details": "Returns the address of the current owner."
      },
      "reclaimUnusedReward(address)": {
        "params": {
          "account": "The address of the account to which the unused tokens need to be transferred."
        }
      },
      "renounceOwnership()": {
        "details": "Leaves the contract without owner. It will not be possible to call `onlyOwner` functions anymore. Can only be called by the current owner. NOTE: Renouncing ownership will leave the contract without an owner, thereby removing any functionality that is only available to the owner."
      },
      "transferOwnership(address)": {
        "details": "Transfers ownership of the contract to a new account (`newOwner`). Can only be called by the current owner."
      },
      "updateMaxUsersToClaim(uint256)": {
        "params": {
          "_maxUsersToClaim": "new maxUsersToClaim value."
        }
      },
      "updateMerkleRoot(bytes32,uint256)": {
        "params": {
          "_maxAmountToClaim": "Total amount of tokens that can be claimed during an epoch.",
          "_merkleRoot": "The merkleRoot of the reward distribution."
        }
      },
      "updateTimeElapsedForUpdate(uint256)": {
        "params": {
          "_timeElapsedForUpdate": "new timeElapsedForUpdate value."
        }
      },
      "updateTimeToReclaimRewards(uint256)": {
        "params": {
          "_timeToReclaimRewards": "new timeToReclaimRewards value."
        }
      }
    },
    "version": 1
  },
  "userdoc": {
    "events": {
      "MerkleRootUpdated(bytes32,uint256)": {
        "notice": "Emitted when the merkle root is updated."
      },
      "RewardPaid(address,uint256)": {
        "notice": "Emitted when reward is paid to a user."
      }
    },
    "kind": "user",
    "methods": {
      "addressExists(address)": {
        "notice": "This mapping is used to check if an address has already claimed amount."
      },
      "amountClaimed()": {
        "notice": "the number of tokens claimed in a given epoch."
      },
      "claimReward(bytes32[],uint256)": {
        "notice": "Users can claim the rewards allocated to them."
      },
      "claimedAddresses(uint256)": {
        "notice": "List of addresses that have already claimed rebate for a given epoch."
      },
      "lastUpdated()": {
        "notice": "The time when the merkleRoot was updated."
      },
      "maxAmountToClaim()": {
        "notice": "The maximum amount of tokens that can be claimed in a given epoch."
      },
      "maxUsersToClaim()": {
        "notice": "The maximum number of users that can claim rebates in a given epoch."
      },
      "merkleRoot()": {
        "notice": "The merkle root of the distribution for the current epoch."
      },
      "merkleRootAdmin()": {
        "notice": "Address that can update the merkel root"
      },
      "rebateToken()": {
        "notice": "Address of the token used to give rebates."
      },
      "reclaimUnusedReward(address)": {
        "notice": "Allows admin to reclaim unused rewards after a period of inactivity."
      },
      "timeElapsedForUpdate()": {
        "notice": "The time after which the merkle root can be updated."
      },
      "timeToReclaimRewards()": {
        "notice": "the time after which an admin claim unused rewards."
      },
      "updateMaxUsersToClaim(uint256)": {
        "notice": "allows admin to update maxUsersToClaim variable."
      },
      "updateMerkleRoot(bytes32,uint256)": {
        "notice": "Admin updates the merkleRoot and maximum amount to claim for a particular period."
      },
      "updateTimeElapsedForUpdate(uint256)": {
        "notice": "allows admin to update timeElapsedForUpdate variable"
      },
      "updateTimeToReclaimRewards(uint256)": {
        "notice": "allows admin to update timeToReclaimRewards variable"
      }
    },
    "version": 1
  },
  "storageLayout": {
    "storage": [
      {
        "astId": 10071,
        "contract": "contracts/RebateHandler.sol:RebateHandler",
        "label": "_owner",
        "offset": 0,
        "slot": "0",
        "type": "t_address"
      },
      {
        "astId": 14047,
        "contract": "contracts/RebateHandler.sol:RebateHandler",
        "label": "addressExists",
        "offset": 0,
        "slot": "1",
        "type": "t_mapping(t_address,t_bool)"
      },
      {
        "astId": 14054,
        "contract": "contracts/RebateHandler.sol:RebateHandler",
        "label": "merkleRootAdmin",
        "offset": 0,
        "slot": "2",
        "type": "t_address"
      },
      {
        "astId": 14058,
        "contract": "contracts/RebateHandler.sol:RebateHandler",
        "label": "claimedAddresses",
        "offset": 0,
        "slot": "3",
        "type": "t_array(t_address)dyn_storage"
      },
      {
        "astId": 14061,
        "contract": "contracts/RebateHandler.sol:RebateHandler",
        "label": "merkleRoot",
        "offset": 0,
        "slot": "4",
        "type": "t_bytes32"
      },
      {
        "astId": 14064,
        "contract": "contracts/RebateHandler.sol:RebateHandler",
        "label": "lastUpdated",
        "offset": 0,
        "slot": "5",
        "type": "t_uint256"
      },
      {
        "astId": 14067,
        "contract": "contracts/RebateHandler.sol:RebateHandler",
        "label": "maxUsersToClaim",
        "offset": 0,
        "slot": "6",
        "type": "t_uint256"
      },
      {
        "astId": 14070,
        "contract": "contracts/RebateHandler.sol:RebateHandler",
        "label": "timeElapsedForUpdate",
        "offset": 0,
        "slot": "7",
        "type": "t_uint256"
      },
      {
        "astId": 14073,
        "contract": "contracts/RebateHandler.sol:RebateHandler",
        "label": "maxAmountToClaim",
        "offset": 0,
        "slot": "8",
        "type": "t_uint256"
      },
      {
        "astId": 14076,
        "contract": "contracts/RebateHandler.sol:RebateHandler",
        "label": "amountClaimed",
        "offset": 0,
        "slot": "9",
        "type": "t_uint256"
      },
      {
        "astId": 14079,
        "contract": "contracts/RebateHandler.sol:RebateHandler",
        "label": "timeToReclaimRewards",
        "offset": 0,
        "slot": "10",
        "type": "t_uint256"
      }
    ],
    "types": {
      "t_address": {
        "encoding": "inplace",
        "label": "address",
        "numberOfBytes": "20"
      },
      "t_array(t_address)dyn_storage": {
        "base": "t_address",
        "encoding": "dynamic_array",
        "label": "address[]",
        "numberOfBytes": "32"
      },
      "t_bool": {
        "encoding": "inplace",
        "label": "bool",
        "numberOfBytes": "1"
      },
      "t_bytes32": {
        "encoding": "inplace",
        "label": "bytes32",
        "numberOfBytes": "32"
      },
      "t_mapping(t_address,t_bool)": {
        "encoding": "mapping",
        "key": "t_address",
        "label": "mapping(address => bool)",
        "numberOfBytes": "32",
        "value": "t_bool"
      },
      "t_uint256": {
        "encoding": "inplace",
        "label": "uint256",
        "numberOfBytes": "32"
      }
    }
  }
}