{
  "address": "0x251353DD508114e4cC8E15a744f32f7330563aF6",
  "abi": [
    {
      "inputs": [
        {
          "internalType": "ChainlinkAggregator",
          "name": "aggregator_",
          "type": "address"
        }
      ],
      "stateMutability": "nonpayable",
      "type": "constructor"
    },
    {
      "inputs": [],
      "name": "InvalidOracleRound",
      "type": "error"
    },
    {
      "inputs": [],
      "name": "UnableToSyncError",
      "type": "error"
    },
    {
      "inputs": [],
      "name": "aggregator",
      "outputs": [
        {
          "internalType": "ChainlinkAggregator",
          "name": "",
          "type": "address"
        }
      ],
      "stateMutability": "view",
      "type": "function"
    },
    {
      "inputs": [
        {
          "internalType": "uint256",
          "name": "version",
          "type": "uint256"
        }
      ],
      "name": "atVersion",
      "outputs": [
        {
          "components": [
            {
              "internalType": "uint256",
              "name": "version",
              "type": "uint256"
            },
            {
              "internalType": "uint256",
              "name": "timestamp",
              "type": "uint256"
            },
            {
              "internalType": "Fixed18",
              "name": "price",
              "type": "int256"
            }
          ],
          "internalType": "struct IOracleProvider.OracleVersion",
          "name": "oracleVersion",
          "type": "tuple"
        }
      ],
      "stateMutability": "view",
      "type": "function"
    },
    {
      "inputs": [],
      "name": "currentVersion",
      "outputs": [
        {
          "components": [
            {
              "internalType": "uint256",
              "name": "version",
              "type": "uint256"
            },
            {
              "internalType": "uint256",
              "name": "timestamp",
              "type": "uint256"
            },
            {
              "internalType": "Fixed18",
              "name": "price",
              "type": "int256"
            }
          ],
          "internalType": "struct IOracleProvider.OracleVersion",
          "name": "oracleVersion",
          "type": "tuple"
        }
      ],
      "stateMutability": "view",
      "type": "function"
    },
    {
      "inputs": [],
      "name": "sync",
      "outputs": [
        {
          "components": [
            {
              "internalType": "uint256",
              "name": "version",
              "type": "uint256"
            },
            {
              "internalType": "uint256",
              "name": "timestamp",
              "type": "uint256"
            },
            {
              "internalType": "Fixed18",
              "name": "price",
              "type": "int256"
            }
          ],
          "internalType": "struct IOracleProvider.OracleVersion",
          "name": "",
          "type": "tuple"
        }
      ],
      "stateMutability": "nonpayable",
      "type": "function"
    }
  ],
  "transactionHash": "0xc9d44223850184a31c07daf5273c72c0b59f1d7bd5ff027f0657c29a8a8b7330",
  "args": [
    "0x057cD3082EfED32d5C907801BF3628B27D88fD80"
  ],
  "numDeployments": 1,
  "solcInputHash": "450329c2f29c0620b085e215ce3be462",
  "bytecode": "0x60c06040523480156200001157600080fd5b5060405162001fd538038062001fd5833981810160405281019062000037919062000534565b8073ffffffffffffffffffffffffffffffffffffffff1660808173ffffffffffffffffffffffffffffffffffffffff1681525050620000bc6200009d60805173ffffffffffffffffffffffffffffffffffffffff16620002f260201b620004ca1760201c565b600a620000ab919062000700565b6200036d60201b620005421760201c565b60a081815250506000620000f360805173ffffffffffffffffffffffffffffffffffffffff16620003dd60201b620005af1760201c565b90505b60008054905062000112826200049760201b620006641760201c565b61ffff16111562000205576000604051806040016040528060006fffffffffffffffffffffffffffffffff16815260200160006fffffffffffffffffffffffffffffffff168152509080600181540180825580915050600190039060005260206000200160009091909190915060008201518160000160006101000a8154816fffffffffffffffffffffffffffffffff02191690836fffffffffffffffffffffffffffffffff16021790555060208201518160000160106101000a8154816fffffffffffffffffffffffffffffffff02191690836fffffffffffffffffffffffffffffffff1602179055505050620000f6565b6000604051806040016040528060006fffffffffffffffffffffffffffffffff16815260200183604001516fffffffffffffffffffffffffffffffff168152509080600181540180825580915050600190039060005260206000200160009091909190915060008201518160000160006101000a8154816fffffffffffffffffffffffffffffffff02191690836fffffffffffffffffffffffffffffffff16021790555060208201518160000160106101000a8154816fffffffffffffffffffffffffffffffff02191690836fffffffffffffffffffffffffffffffff1602179055505050505062000998565b60008173ffffffffffffffffffffffffffffffffffffffff1663313ce5676040518163ffffffff1660e01b8152600401602060405180830381865afa15801562000340573d6000803e3d6000fd5b505050506040513d601f19601f8201168201806040525081019062000366919062000782565b9050919050565b60007f7fffffffffffffffffffffffffffffffffffffffffffffffffffffffffffffff821115620003d5576040517f08c379a0000000000000000000000000000000000000000000000000000000008152600401620003cc906200083b565b60405180910390fd5b819050919050565b620003e7620004a9565b60008060008473ffffffffffffffffffffffffffffffffffffffff1663feaf968c6040518163ffffffff1660e01b815260040160a060405180830381865afa15801562000438573d6000803e3d6000fd5b505050506040513d601f19601f820116820180604052508101906200045e919062000910565b509350509250925060405180606001604052808281526020018381526020018469ffffffffffffffffffff168152509350505050919050565b600060408260400151901c9050919050565b60405180606001604052806000815260200160008152602001600081525090565b600080fd5b600073ffffffffffffffffffffffffffffffffffffffff82169050919050565b6000620004fc82620004cf565b9050919050565b6200050e81620004ef565b81146200051a57600080fd5b50565b6000815190506200052e8162000503565b92915050565b6000602082840312156200054d576200054c620004ca565b5b60006200055d848285016200051d565b91505092915050565b7f4e487b7100000000000000000000000000000000000000000000000000000000600052601160045260246000fd5b60008160011c9050919050565b6000808291508390505b6001851115620005f457808604811115620005cc57620005cb62000566565b5b6001851615620005dc5780820291505b8081029050620005ec8562000595565b9450620005ac565b94509492505050565b6000826200060f5760019050620006e2565b816200061f5760009050620006e2565b8160018114620006385760028114620006435762000679565b6001915050620006e2565b60ff84111562000658576200065762000566565b5b8360020a91508482111562000672576200067162000566565b5b50620006e2565b5060208310610133831016604e8410600b8410161715620006b35782820a905083811115620006ad57620006ac62000566565b5b620006e2565b620006c28484846001620005a2565b92509050818404811115620006dc57620006db62000566565b5b81810290505b9392505050565b6000819050919050565b600060ff82169050919050565b60006200070d82620006e9565b91506200071a83620006f3565b9250620007497fffffffffffffffffffffffffffffffffffffffffffffffffffffffffffffffff8484620005fd565b905092915050565b6200075c81620006f3565b81146200076857600080fd5b50565b6000815190506200077c8162000751565b92915050565b6000602082840312156200079b576200079a620004ca565b5b6000620007ab848285016200076b565b91505092915050565b600082825260208201905092915050565b7f53616665436173743a2076616c756520646f65736e27742066697420696e206160008201527f6e20696e74323536000000000000000000000000000000000000000000000000602082015250565b600062000823602883620007b4565b91506200083082620007c5565b604082019050919050565b60006020820190508181036000830152620008568162000814565b9050919050565b600069ffffffffffffffffffff82169050919050565b6200087e816200085d565b81146200088a57600080fd5b50565b6000815190506200089e8162000873565b92915050565b6000819050919050565b620008b981620008a4565b8114620008c557600080fd5b50565b600081519050620008d981620008ae565b92915050565b620008ea81620006e9565b8114620008f657600080fd5b50565b6000815190506200090a81620008df565b92915050565b600080600080600060a086880312156200092f576200092e620004ca565b5b60006200093f888289016200088d565b95505060206200095288828901620008c8565b94505060406200096588828901620008f9565b93505060606200097888828901620008f9565b92505060806200098b888289016200088d565b9150509295509295909350565b60805160a0516115fc620009d9600039600061079401526000818160dd0152818161011801528181610178015281816101cb015261033701526115fc6000f3fe608060405234801561001057600080fd5b506004361061004c5760003560e01c8063245a7bfc146100515780637ece075d1461006f5780639d888e861461009f578063fff6cae9146100bd575b600080fd5b6100596100db565b6040516100669190610e48565b60405180910390f35b61008960048036038101906100849190610e9e565b6100ff565b6040516100969190610f57565b60405180910390f35b6100a7610168565b6040516100b49190610f57565b60405180910390f35b6100c56101bc565b6040516100d29190610f57565b60405180910390f35b7f000000000000000000000000000000000000000000000000000000000000000081565b610107610d49565b61016161015b61011684610676565b7f000000000000000000000000000000000000000000000000000000000000000073ffffffffffffffffffffffffffffffffffffffff166106cf90919063ffffffff16565b83610780565b9050919050565b610170610d49565b6101b76101b27f000000000000000000000000000000000000000000000000000000000000000073ffffffffffffffffffffffffffffffffffffffff166105af565b6107e2565b905090565b6101c4610d49565b60006102057f000000000000000000000000000000000000000000000000000000000000000073ffffffffffffffffffffffffffffffffffffffff166105af565b90506000816040015167ffffffffffffffff160361024f576040517f5234755400000000000000000000000000000000000000000000000000000000815260040160405180910390fd5b6001610259610914565b61026283610664565b61026c9190610faf565b61ffff1611156102a8576040517f68e7727f00000000000000000000000000000000000000000000000000000000815260040160405180910390fd5b5b6102b1610914565b61ffff166102be82610664565b61ffff1611156104bb57600061037c6102d5610914565b60006102df610914565b61ffff16815481106102f4576102f3610fe3565b5b9060005260206000200160000160109054906101000a90046fffffffffffffffffffffffffffffffff166fffffffffffffffffffffffffffffffff1684600001517f000000000000000000000000000000000000000000000000000000000000000073ffffffffffffffffffffffffffffffffffffffff1661092d909392919063ffffffff16565b9050600060405180604001604052806000610395610914565b61ffff16815481106103aa576103a9610fe3565b5b9060005260206000200160000160009054906101000a90046fffffffffffffffffffffffffffffffff16846103df919061102e565b6fffffffffffffffffffffffffffffffff16815260200184604001516fffffffffffffffffffffffffffffffff168152509080600181540180825580915050600190039060005260206000200160009091909190915060008201518160000160006101000a8154816fffffffffffffffffffffffffffffffff02191690836fffffffffffffffffffffffffffffffff16021790555060208201518160000160106101000a8154816fffffffffffffffffffffffffffffffff02191690836fffffffffffffffffffffffffffffffff1602179055505050506102a9565b6104c4816107e2565b91505090565b60008173ffffffffffffffffffffffffffffffffffffffff1663313ce5676040518163ffffffff1660e01b8152600401602060405180830381865afa158015610517573d6000803e3d6000fd5b505050506040513d601f19601f8201168201806040525081019061053b91906110ad565b9050919050565b60007f7fffffffffffffffffffffffffffffffffffffffffffffffffffffffffffffff8211156105a7576040517f08c379a000000000000000000000000000000000000000000000000000000000815260040161059e9061115d565b60405180910390fd5b819050919050565b6105b7610d6a565b60008060008473ffffffffffffffffffffffffffffffffffffffff1663feaf968c6040518163ffffffff1660e01b815260040160a060405180830381865afa158015610607573d6000803e3d6000fd5b505050506040513d601f19601f8201168201806040525081019061062b9190611200565b509350509250925060405180606001604052808281526020018381526020018469ffffffffffffffffffff168152509350505050919050565b600060408260400151901c9050919050565b60008061068283610b28565b905080600001516fffffffffffffffffffffffffffffffff168382602001516fffffffffffffffffffffffffffffffff166106bd919061127b565b6106c791906112d1565b915050919050565b6106d7610d6a565b6000808473ffffffffffffffffffffffffffffffffffffffff16639a6fc8f5856040518263ffffffff1660e01b81526004016107139190611314565b60a060405180830381865afa158015610730573d6000803e3d6000fd5b505050506040513d601f19601f820116820180604052508101906107549190611200565b509350509250506040518060600160405280828152602001838152602001858152509250505092915050565b610788610d49565b60006107b884602001517f0000000000000000000000000000000000000000000000000000000000000000610cf6565b90506040518060600160405280848152602001856000015181526020018281525091505092915050565b6107ea610d49565b6000806107f684610664565b61ffff168154811061080b5761080a610fe3565b5b906000526020600020016040518060400160405290816000820160009054906101000a90046fffffffffffffffffffffffffffffffff166fffffffffffffffffffffffffffffffff166fffffffffffffffffffffffffffffffff1681526020016000820160109054906101000a90046fffffffffffffffffffffffffffffffff166fffffffffffffffffffffffffffffffff166fffffffffffffffffffffffffffffffff16815250509050600081602001516fffffffffffffffffffffffffffffffff16846040015183600001516fffffffffffffffffffffffffffffffff166108f5919061127b565b6108ff91906112d1565b905061090b8482610780565b92505050919050565b6000600160008054905061092891906112d1565b905090565b60008085905060008173ffffffffffffffffffffffffffffffffffffffff1663c1597304876040518263ffffffff1660e01b815260040161096e919061133e565b602060405180830381865afa15801561098b573d6000803e3d6000fd5b505050506040513d601f19601f820116820180604052508101906109af9190611397565b90506000808273ffffffffffffffffffffffffffffffffffffffff1663feaf968c6040518163ffffffff1660e01b815260040160a060405180830381865afa1580156109ff573d6000803e3d6000fd5b505050506040513d601f19601f82011682018060405250810190610a239190611200565b5093505050915060008269ffffffffffffffffffff1603610a4b576000945050505050610b20565b5b85811115610af2578180610a5f906113c4565b9250508273ffffffffffffffffffffffffffffffffffffffff16639a6fc8f5836040518263ffffffff1660e01b8152600401610a9b9190611314565b60a060405180830381865afa158015610ab8573d6000803e3d6000fd5b505050506040513d601f19601f82011682018060405250810190610adc9190611200565b9091929350909192509091505080915050610a4c565b6000610afe8984610d1f565b905060018882610b0e91906112d1565b610b18919061127b565b955050505050505b949350505050565b610b30610d8b565b6000610b3a610914565b61ffff16905060008181548110610b5457610b53610fe3565b5b906000526020600020016040518060400160405290816000820160009054906101000a90046fffffffffffffffffffffffffffffffff166fffffffffffffffffffffffffffffffff166fffffffffffffffffffffffffffffffff1681526020016000820160109054906101000a90046fffffffffffffffffffffffffffffffff166fffffffffffffffffffffffffffffffff166fffffffffffffffffffffffffffffffff168152505091505b8282600001516fffffffffffffffffffffffffffffffff161115610cf0578080610c29906113ed565b91505060008181548110610c4057610c3f610fe3565b5b906000526020600020016040518060400160405290816000820160009054906101000a90046fffffffffffffffffffffffffffffffff166fffffffffffffffffffffffffffffffff166fffffffffffffffffffffffffffffffff1681526020016000820160109054906101000a90046fffffffffffffffffffffffffffffffff166fffffffffffffffffffffffffffffffff166fffffffffffffffffffffffffffffffff16815250509150610c00565b50919050565b600081670de0b6b3a764000084610d0d9190611416565b610d17919061155c565b905092915050565b60008169ffffffffffffffffffff1660408461ffff16901b610d41919061127b565b905092915050565b60405180606001604052806000815260200160008152602001600081525090565b60405180606001604052806000815260200160008152602001600081525090565b604051806040016040528060006fffffffffffffffffffffffffffffffff16815260200160006fffffffffffffffffffffffffffffffff1681525090565b600073ffffffffffffffffffffffffffffffffffffffff82169050919050565b6000819050919050565b6000610e0e610e09610e0484610dc9565b610de9565b610dc9565b9050919050565b6000610e2082610df3565b9050919050565b6000610e3282610e15565b9050919050565b610e4281610e27565b82525050565b6000602082019050610e5d6000830184610e39565b92915050565b600080fd5b6000819050919050565b610e7b81610e68565b8114610e8657600080fd5b50565b600081359050610e9881610e72565b92915050565b600060208284031215610eb457610eb3610e63565b5b6000610ec284828501610e89565b91505092915050565b610ed481610e68565b82525050565b6000819050919050565b6000610eff610efa610ef584610eda565b610de9565b610eda565b9050919050565b610f0f81610ee4565b82525050565b606082016000820151610f2b6000850182610ecb565b506020820151610f3e6020850182610ecb565b506040820151610f516040850182610f06565b50505050565b6000606082019050610f6c6000830184610f15565b92915050565b600061ffff82169050919050565b7f4e487b7100000000000000000000000000000000000000000000000000000000600052601160045260246000fd5b6000610fba82610f72565b9150610fc583610f72565b925082821015610fd857610fd7610f80565b5b828203905092915050565b7f4e487b7100000000000000000000000000000000000000000000000000000000600052603260045260246000fd5b60006fffffffffffffffffffffffffffffffff82169050919050565b600061103982611012565b915061104483611012565b9250826fffffffffffffffffffffffffffffffff0382111561106957611068610f80565b5b828201905092915050565b600060ff82169050919050565b61108a81611074565b811461109557600080fd5b50565b6000815190506110a781611081565b92915050565b6000602082840312156110c3576110c2610e63565b5b60006110d184828501611098565b91505092915050565b600082825260208201905092915050565b7f53616665436173743a2076616c756520646f65736e27742066697420696e206160008201527f6e20696e74323536000000000000000000000000000000000000000000000000602082015250565b60006111476028836110da565b9150611152826110eb565b604082019050919050565b600060208201905081810360008301526111768161113a565b9050919050565b600069ffffffffffffffffffff82169050919050565b61119c8161117d565b81146111a757600080fd5b50565b6000815190506111b981611193565b92915050565b6111c881610eda565b81146111d357600080fd5b50565b6000815190506111e5816111bf565b92915050565b6000815190506111fa81610e72565b92915050565b600080600080600060a0868803121561121c5761121b610e63565b5b600061122a888289016111aa565b955050602061123b888289016111d6565b945050604061124c888289016111eb565b935050606061125d888289016111eb565b925050608061126e888289016111aa565b9150509295509295909350565b600061128682610e68565b915061129183610e68565b9250827fffffffffffffffffffffffffffffffffffffffffffffffffffffffffffffffff038211156112c6576112c5610f80565b5b828201905092915050565b60006112dc82610e68565b91506112e783610e68565b9250828210156112fa576112f9610f80565b5b828203905092915050565b61130e8161117d565b82525050565b60006020820190506113296000830184611305565b92915050565b61133881610f72565b82525050565b6000602082019050611353600083018461132f565b92915050565b600061136482610dc9565b9050919050565b61137481611359565b811461137f57600080fd5b50565b6000815190506113918161136b565b92915050565b6000602082840312156113ad576113ac610e63565b5b60006113bb84828501611382565b91505092915050565b60006113cf8261117d565b9150600082036113e2576113e1610f80565b5b600182039050919050565b60006113f882610e68565b91506000820361140b5761140a610f80565b5b600182039050919050565b600061142182610eda565b915061142c83610eda565b9250827f7fffffffffffffffffffffffffffffffffffffffffffffffffffffffffffffff048211600084136000841316161561146b5761146a610f80565b5b817f800000000000000000000000000000000000000000000000000000000000000005831260008412600084131616156114a8576114a7610f80565b5b827f800000000000000000000000000000000000000000000000000000000000000005821260008413600084121616156114e5576114e4610f80565b5b827f7fffffffffffffffffffffffffffffffffffffffffffffffffffffffffffffff058212600084126000841216161561152257611521610f80565b5b828202905092915050565b7f4e487b7100000000000000000000000000000000000000000000000000000000600052601260045260246000fd5b600061156782610eda565b915061157283610eda565b9250826115825761158161152d565b5b600160000383147f8000000000000000000000000000000000000000000000000000000000000000831416156115bb576115ba610f80565b5b82820590509291505056fea2646970667358221220e688c741ca681cc8c824712c68a4ce8aebb8ee89c3150ae0daccf7c4a8376df664736f6c634300080f0033",
  "devdoc": {
    "details": "One instance per Chainlink price feed should be deployed. Multiple products may use the same      ChainlinkOracle instance if their payoff functions are based on the same underlying oracle.      This implementation only support non-negative prices.",
    "errors": {
      "InvalidOracleRound()": [
        {
          "details": "Error for invalid oracle round"
        }
      ]
    },
    "kind": "dev",
    "methods": {
      "atVersion(uint256)": {
        "params": {
          "version": "The version of which to lookup"
        },
        "returns": {
          "oracleVersion": "Oracle version at version `version`"
        }
      },
      "constructor": {
        "params": {
          "aggregator_": "Chainlink price feed aggregator"
        }
      },
      "currentVersion()": {
        "returns": {
          "oracleVersion": "Current oracle version"
        }
      },
      "sync()": {
        "details": "`sync` is expected to be called soon after a phase update occurs in the underlying proxy.      Phase updates should be detected using off-chain mechanism and should trigger a `sync` call      This is feasible in the short term due to how infrequent phase updates are, but phase update      and roundCount detection should eventually be implemented at the contract level.      Reverts if there is more than 1 phase to update in a single sync because we currently cannot      determine the startingRoundId for the intermediary phase.",
        "returns": {
          "_0": "The current oracle version after sync"
        }
      }
    },
    "stateVariables": {
      "_decimalOffset": {
        "details": "Decimal offset used to normalize chainlink price to 18 decimals"
      },
      "_phases": {
        "details": "Mapping of the starting data for each underlying phase"
      },
      "aggregator": {
        "details": "Chainlink feed aggregator address"
      }
    },
    "title": "ChainlinkOracle",
    "version": 1
  },
  "userdoc": {
    "kind": "user",
    "methods": {
      "atVersion(uint256)": {
        "notice": "Returns the current oracle version"
      },
      "constructor": {
        "notice": "Initializes the contract state"
      },
      "currentVersion()": {
        "notice": "Returns the current oracle version"
      },
      "sync()": {
        "notice": "Checks for a new price and updates the internal phase annotation state accordingly"
      }
    },
    "notice": "Chainlink implementation of the IOracle interface.",
    "version": 1
  },
  "storageLayout": {
    "storage": [
      {
        "astId": 321,
        "contract": "@equilibria/perennial-oracle/contracts/ChainlinkFeedOracle.sol:ChainlinkFeedOracle",
        "label": "_phases",
        "offset": 0,
        "slot": "0",
        "type": "t_array(t_struct(Phase)326_storage)dyn_storage"
      }
    ],
    "types": {
      "t_array(t_struct(Phase)326_storage)dyn_storage": {
        "base": "t_struct(Phase)326_storage",
        "encoding": "dynamic_array",
        "label": "struct ChainlinkFeedOracle.Phase[]",
        "numberOfBytes": "32"
      },
      "t_struct(Phase)326_storage": {
        "encoding": "inplace",
        "label": "struct ChainlinkFeedOracle.Phase",
        "members": [
          {
            "astId": 323,
            "contract": "@equilibria/perennial-oracle/contracts/ChainlinkFeedOracle.sol:ChainlinkFeedOracle",
            "label": "startingVersion",
            "offset": 0,
            "slot": "0",
            "type": "t_uint128"
          },
          {
            "astId": 325,
            "contract": "@equilibria/perennial-oracle/contracts/ChainlinkFeedOracle.sol:ChainlinkFeedOracle",
            "label": "startingRoundId",
            "offset": 16,
            "slot": "0",
            "type": "t_uint128"
          }
        ],
        "numberOfBytes": "32"
      },
      "t_uint128": {
        "encoding": "inplace",
        "label": "uint128",
        "numberOfBytes": "16"
      }
    }
  }
}