{
  "address": "0xA98C047C827758AF23E044c0Aa4859D1b11eA7ad",
  "abi": [
    {
      "inputs": [
        {
          "internalType": "Token18",
          "name": "asset_",
          "type": "address"
        },
        {
          "internalType": "contract IController",
          "name": "controller_",
          "type": "address"
        },
        {
          "internalType": "contract IProduct",
          "name": "long_",
          "type": "address"
        },
        {
          "internalType": "contract IProduct",
          "name": "short_",
          "type": "address"
        },
        {
          "internalType": "UFixed18",
          "name": "targetLeverage_",
          "type": "uint256"
        },
        {
          "internalType": "UFixed18",
          "name": "maxCollateral_",
          "type": "uint256"
        }
      ],
      "stateMutability": "nonpayable",
      "type": "constructor"
    },
    {
      "inputs": [],
      "name": "BalancedVaultDepositLimitExceeded",
      "type": "error"
    },
    {
      "inputs": [],
      "name": "BalancedVaultRedemptionLimitExceeded",
      "type": "error"
    },
    {
      "inputs": [
        {
          "internalType": "uint256",
          "name": "value",
          "type": "uint256"
        }
      ],
      "name": "Fixed18OverflowError",
      "type": "error"
    },
    {
      "inputs": [
        {
          "internalType": "int256",
          "name": "value",
          "type": "int256"
        }
      ],
      "name": "UFixed18UnderflowError",
      "type": "error"
    },
    {
      "inputs": [
        {
          "internalType": "uint256",
          "name": "version",
          "type": "uint256"
        }
      ],
      "name": "UInitializableAlreadyInitializedError",
      "type": "error"
    },
    {
      "inputs": [],
      "name": "UInitializableNotInitializingError",
      "type": "error"
    },
    {
      "inputs": [],
      "name": "UInitializableZeroVersionError",
      "type": "error"
    },
    {
      "anonymous": false,
      "inputs": [
        {
          "indexed": true,
          "internalType": "address",
          "name": "account",
          "type": "address"
        },
        {
          "indexed": true,
          "internalType": "address",
          "name": "spender",
          "type": "address"
        },
        {
          "indexed": false,
          "internalType": "UFixed18",
          "name": "value",
          "type": "uint256"
        }
      ],
      "name": "Approval",
      "type": "event"
    },
    {
      "anonymous": false,
      "inputs": [
        {
          "indexed": true,
          "internalType": "address",
          "name": "sender",
          "type": "address"
        },
        {
          "indexed": true,
          "internalType": "address",
          "name": "account",
          "type": "address"
        },
        {
          "indexed": false,
          "internalType": "UFixed18",
          "name": "assets",
          "type": "uint256"
        }
      ],
      "name": "Claim",
      "type": "event"
    },
    {
      "anonymous": false,
      "inputs": [
        {
          "indexed": false,
          "internalType": "contract IProduct",
          "name": "product",
          "type": "address"
        },
        {
          "indexed": false,
          "internalType": "UFixed18",
          "name": "targetCollateral",
          "type": "uint256"
        }
      ],
      "name": "CollateralUpdated",
      "type": "event"
    },
    {
      "anonymous": false,
      "inputs": [
        {
          "indexed": true,
          "internalType": "address",
          "name": "sender",
          "type": "address"
        },
        {
          "indexed": true,
          "internalType": "address",
          "name": "account",
          "type": "address"
        },
        {
          "indexed": false,
          "internalType": "uint256",
          "name": "version",
          "type": "uint256"
        },
        {
          "indexed": false,
          "internalType": "UFixed18",
          "name": "assets",
          "type": "uint256"
        }
      ],
      "name": "Deposit",
      "type": "event"
    },
    {
      "anonymous": false,
      "inputs": [
        {
          "indexed": false,
          "internalType": "uint256",
          "name": "version",
          "type": "uint256"
        }
      ],
      "name": "Initialized",
      "type": "event"
    },
    {
      "anonymous": false,
      "inputs": [
        {
          "indexed": false,
          "internalType": "contract IProduct",
          "name": "product",
          "type": "address"
        },
        {
          "indexed": false,
          "internalType": "UFixed18",
          "name": "targetPosition",
          "type": "uint256"
        }
      ],
      "name": "PositionUpdated",
      "type": "event"
    },
    {
      "anonymous": false,
      "inputs": [
        {
          "indexed": true,
          "internalType": "address",
          "name": "sender",
          "type": "address"
        },
        {
          "indexed": true,
          "internalType": "address",
          "name": "account",
          "type": "address"
        },
        {
          "indexed": false,
          "internalType": "uint256",
          "name": "version",
          "type": "uint256"
        },
        {
          "indexed": false,
          "internalType": "UFixed18",
          "name": "shares",
          "type": "uint256"
        }
      ],
      "name": "Redemption",
      "type": "event"
    },
    {
      "anonymous": false,
      "inputs": [
        {
          "indexed": true,
          "internalType": "address",
          "name": "from",
          "type": "address"
        },
        {
          "indexed": true,
          "internalType": "address",
          "name": "to",
          "type": "address"
        },
        {
          "indexed": false,
          "internalType": "UFixed18",
          "name": "value",
          "type": "uint256"
        }
      ],
      "name": "Transfer",
      "type": "event"
    },
    {
      "inputs": [
        {
          "internalType": "address",
          "name": "",
          "type": "address"
        },
        {
          "internalType": "address",
          "name": "",
          "type": "address"
        }
      ],
      "name": "allowance",
      "outputs": [
        {
          "internalType": "UFixed18",
          "name": "",
          "type": "uint256"
        }
      ],
      "stateMutability": "view",
      "type": "function"
    },
    {
      "inputs": [
        {
          "internalType": "address",
          "name": "spender",
          "type": "address"
        },
        {
          "internalType": "UFixed18",
          "name": "amount",
          "type": "uint256"
        }
      ],
      "name": "approve",
      "outputs": [
        {
          "internalType": "bool",
          "name": "",
          "type": "bool"
        }
      ],
      "stateMutability": "nonpayable",
      "type": "function"
    },
    {
      "inputs": [],
      "name": "asset",
      "outputs": [
        {
          "internalType": "Token18",
          "name": "",
          "type": "address"
        }
      ],
      "stateMutability": "view",
      "type": "function"
    },
    {
      "inputs": [
        {
          "internalType": "address",
          "name": "account",
          "type": "address"
        }
      ],
      "name": "balanceOf",
      "outputs": [
        {
          "internalType": "UFixed18",
          "name": "",
          "type": "uint256"
        }
      ],
      "stateMutability": "view",
      "type": "function"
    },
    {
      "inputs": [
        {
          "internalType": "address",
          "name": "account",
          "type": "address"
        }
      ],
      "name": "claim",
      "outputs": [],
      "stateMutability": "nonpayable",
      "type": "function"
    },
    {
      "inputs": [],
      "name": "collateral",
      "outputs": [
        {
          "internalType": "contract ICollateral",
          "name": "",
          "type": "address"
        }
      ],
      "stateMutability": "view",
      "type": "function"
    },
    {
      "inputs": [],
      "name": "controller",
      "outputs": [
        {
          "internalType": "contract IController",
          "name": "",
          "type": "address"
        }
      ],
      "stateMutability": "view",
      "type": "function"
    },
    {
      "inputs": [
        {
          "internalType": "UFixed18",
          "name": "shares",
          "type": "uint256"
        }
      ],
      "name": "convertToAssets",
      "outputs": [
        {
          "internalType": "UFixed18",
          "name": "",
          "type": "uint256"
        }
      ],
      "stateMutability": "view",
      "type": "function"
    },
    {
      "inputs": [
        {
          "internalType": "UFixed18",
          "name": "assets",
          "type": "uint256"
        }
      ],
      "name": "convertToShares",
      "outputs": [
        {
          "internalType": "UFixed18",
          "name": "",
          "type": "uint256"
        }
      ],
      "stateMutability": "view",
      "type": "function"
    },
    {
      "inputs": [],
      "name": "decimals",
      "outputs": [
        {
          "internalType": "uint8",
          "name": "",
          "type": "uint8"
        }
      ],
      "stateMutability": "pure",
      "type": "function"
    },
    {
      "inputs": [
        {
          "internalType": "UFixed18",
          "name": "assets",
          "type": "uint256"
        },
        {
          "internalType": "address",
          "name": "account",
          "type": "address"
        }
      ],
      "name": "deposit",
      "outputs": [],
      "stateMutability": "nonpayable",
      "type": "function"
    },
    {
      "inputs": [
        {
          "internalType": "string",
          "name": "name_",
          "type": "string"
        },
        {
          "internalType": "string",
          "name": "symbol_",
          "type": "string"
        }
      ],
      "name": "initialize",
      "outputs": [],
      "stateMutability": "nonpayable",
      "type": "function"
    },
    {
      "inputs": [],
      "name": "long",
      "outputs": [
        {
          "internalType": "contract IProduct",
          "name": "",
          "type": "address"
        }
      ],
      "stateMutability": "view",
      "type": "function"
    },
    {
      "inputs": [],
      "name": "maxCollateral",
      "outputs": [
        {
          "internalType": "UFixed18",
          "name": "",
          "type": "uint256"
        }
      ],
      "stateMutability": "view",
      "type": "function"
    },
    {
      "inputs": [
        {
          "internalType": "address",
          "name": "",
          "type": "address"
        }
      ],
      "name": "maxDeposit",
      "outputs": [
        {
          "internalType": "UFixed18",
          "name": "",
          "type": "uint256"
        }
      ],
      "stateMutability": "view",
      "type": "function"
    },
    {
      "inputs": [
        {
          "internalType": "address",
          "name": "account",
          "type": "address"
        }
      ],
      "name": "maxRedeem",
      "outputs": [
        {
          "internalType": "UFixed18",
          "name": "",
          "type": "uint256"
        }
      ],
      "stateMutability": "view",
      "type": "function"
    },
    {
      "inputs": [],
      "name": "name",
      "outputs": [
        {
          "internalType": "string",
          "name": "",
          "type": "string"
        }
      ],
      "stateMutability": "view",
      "type": "function"
    },
    {
      "inputs": [
        {
          "internalType": "UFixed18",
          "name": "shares",
          "type": "uint256"
        },
        {
          "internalType": "address",
          "name": "account",
          "type": "address"
        }
      ],
      "name": "redeem",
      "outputs": [],
      "stateMutability": "nonpayable",
      "type": "function"
    },
    {
      "inputs": [],
      "name": "short",
      "outputs": [
        {
          "internalType": "contract IProduct",
          "name": "",
          "type": "address"
        }
      ],
      "stateMutability": "view",
      "type": "function"
    },
    {
      "inputs": [],
      "name": "symbol",
      "outputs": [
        {
          "internalType": "string",
          "name": "",
          "type": "string"
        }
      ],
      "stateMutability": "view",
      "type": "function"
    },
    {
      "inputs": [],
      "name": "sync",
      "outputs": [],
      "stateMutability": "nonpayable",
      "type": "function"
    },
    {
      "inputs": [],
      "name": "targetLeverage",
      "outputs": [
        {
          "internalType": "UFixed18",
          "name": "",
          "type": "uint256"
        }
      ],
      "stateMutability": "view",
      "type": "function"
    },
    {
      "inputs": [],
      "name": "totalAssets",
      "outputs": [
        {
          "internalType": "UFixed18",
          "name": "",
          "type": "uint256"
        }
      ],
      "stateMutability": "view",
      "type": "function"
    },
    {
      "inputs": [],
      "name": "totalSupply",
      "outputs": [
        {
          "internalType": "UFixed18",
          "name": "",
          "type": "uint256"
        }
      ],
      "stateMutability": "view",
      "type": "function"
    },
    {
      "inputs": [],
      "name": "totalUnclaimed",
      "outputs": [
        {
          "internalType": "UFixed18",
          "name": "",
          "type": "uint256"
        }
      ],
      "stateMutability": "view",
      "type": "function"
    },
    {
      "inputs": [
        {
          "internalType": "address",
          "name": "to",
          "type": "address"
        },
        {
          "internalType": "UFixed18",
          "name": "amount",
          "type": "uint256"
        }
      ],
      "name": "transfer",
      "outputs": [
        {
          "internalType": "bool",
          "name": "",
          "type": "bool"
        }
      ],
      "stateMutability": "nonpayable",
      "type": "function"
    },
    {
      "inputs": [
        {
          "internalType": "address",
          "name": "from",
          "type": "address"
        },
        {
          "internalType": "address",
          "name": "to",
          "type": "address"
        },
        {
          "internalType": "UFixed18",
          "name": "amount",
          "type": "uint256"
        }
      ],
      "name": "transferFrom",
      "outputs": [
        {
          "internalType": "bool",
          "name": "",
          "type": "bool"
        }
      ],
      "stateMutability": "nonpayable",
      "type": "function"
    },
    {
      "inputs": [
        {
          "internalType": "address",
          "name": "account",
          "type": "address"
        }
      ],
      "name": "unclaimed",
      "outputs": [
        {
          "internalType": "UFixed18",
          "name": "",
          "type": "uint256"
        }
      ],
      "stateMutability": "view",
      "type": "function"
    }
  ],
  "transactionHash": "0xc382f522e5bb7ac8c034d4f11318b10a46de6ba5db05da92fcd4cd3f23adc786",
  "args": [
    "0x52C64b8998eB7C80b6F526E99E29ABdcC86B841b",
    "0x6cF1A4373ba7D10bC37fAeC4694807B626B7f161",
    "0xD0a5561EbC96A48378a0A6457c01dEfBA3C464e9",
    "0x5d3D5A4cf46103B30262134c0b3e99392f5FAEA5",
    "2500000000000000000",
    "3000000000000000000000000"
  ],
  "numDeployments": 1,
  "solcInputHash": "063188de8aaadb23411720861c2c6c65",
  "bytecode": "0x6101606040523480156200001257600080fd5b50604051620061eb380380620061eb8339818101604052810190620000389190620002fb565b8573ffffffffffffffffffffffffffffffffffffffff166101408173ffffffffffffffffffffffffffffffffffffffff16815250508473ffffffffffffffffffffffffffffffffffffffff1660808173ffffffffffffffffffffffffffffffffffffffff16815250508473ffffffffffffffffffffffffffffffffffffffff1663d8dfeb456040518163ffffffff1660e01b8152600401602060405180830381865afa158015620000ed573d6000803e3d6000fd5b505050506040513d601f19601f82011682018060405250810190620001139190620003dc565b73ffffffffffffffffffffffffffffffffffffffff1660a08173ffffffffffffffffffffffffffffffffffffffff16815250508373ffffffffffffffffffffffffffffffffffffffff1660c08173ffffffffffffffffffffffffffffffffffffffff16815250508273ffffffffffffffffffffffffffffffffffffffff1660e08173ffffffffffffffffffffffffffffffffffffffff16815250508161010081815250508061012081815250505050505050506200040e565b600080fd5b600073ffffffffffffffffffffffffffffffffffffffff82169050919050565b6000620001fe82620001d1565b9050919050565b6200021081620001f1565b81146200021c57600080fd5b50565b600081519050620002308162000205565b92915050565b60006200024382620001f1565b9050919050565b620002558162000236565b81146200026157600080fd5b50565b60008151905062000275816200024a565b92915050565b60006200028882620001f1565b9050919050565b6200029a816200027b565b8114620002a657600080fd5b50565b600081519050620002ba816200028f565b92915050565b6000819050919050565b620002d581620002c0565b8114620002e157600080fd5b50565b600081519050620002f581620002ca565b92915050565b60008060008060008060c087890312156200031b576200031a620001cc565b5b60006200032b89828a016200021f565b96505060206200033e89828a0162000264565b95505060406200035189828a01620002a9565b94505060606200036489828a01620002a9565b93505060806200037789828a01620002e4565b92505060a06200038a89828a01620002e4565b9150509295509295509295565b6000620003a482620001f1565b9050919050565b620003b68162000397565b8114620003c257600080fd5b50565b600081519050620003d681620003ab565b92915050565b600060208284031215620003f557620003f4620001cc565b5b60006200040584828501620003c5565b91505092915050565b60805160a05160c05160e051610100516101205161014051615c40620005ab6000396000818161096f01528181610a3f01528181610bd701528181610e800152611da30152600081816109ee01528181612219015261225701526000818161123801526134f6015260008181610a1b015281816113b0015281816117710152818161191901528181611d2101528181612a1f01528181612abc01528181612cbf0152818161316a015281816131d2015281816135710152818161373e015261386501526000818161069e01528181611321015281816116cf0152818161185801528181611c650152818161281f015281816128bc01528181612c3401528181612d4c0152818161318b015281816131b1015281816131fc0152818161326101528181613438015281816135470152818161367c01526137c4015260008181610bb60152818161125c0152818161181b015281816118dc01528181611c2801528181611ce40152818161363f0152818161370101528181613cff0152613db90152600081816112cb015281816130a8015261337d0152615c406000f3fe608060405234801561001057600080fd5b50600436106101c45760003560e01c8063505bd3da116100f9578063c96f14b811610097578063d905777e11610071578063d905777e14610521578063dd62ed3e14610551578063f77c479114610581578063fff6cae91461059f576101c4565b8063c96f14b8146104c7578063d6c946ea146104e5578063d8dfeb4514610503576101c4565b80637bde82f2116100d35780637bde82f21461042d57806395d89b4114610449578063a9059cbb14610467578063c6e6f59214610497576101c4565b8063505bd3da146103b15780636e553f65146103e157806370a08231146103fd576101c4565b806323b872dd1161016657806338bea4cb1161014057806338bea4cb1461032957806338d52e0f14610347578063402d267d146103655780634cd88b7614610395576101c4565b806323b872dd146102bd578063251f47c1146102ed578063313ce5671461030b576101c4565b806307bfce37116101a257806307bfce3714610235578063095ea7b31461025357806318160ddd146102835780631e83409a146102a1576101c4565b806301e1d114146101c957806306fdde03146101e757806307a2d13a14610205575b600080fd5b6101d16105a9565b6040516101de9190614799565b60405180910390f35b6101ef6105c8565b6040516101fc919061484d565b60405180910390f35b61021f600480360381019061021a91906148af565b610656565b60405161022c9190614799565b60405180910390f35b61023d61069c565b60405161024a9190614951565b60405180910390f35b61026d600480360381019061026891906149aa565b6106c0565b60405161027a9190614a05565b60405180910390f35b61028b6107b2565b6040516102989190614799565b60405180910390f35b6102bb60048036038101906102b69190614a20565b6107d1565b005b6102d760048036038101906102d29190614a4d565b6109be565b6040516102e49190614a05565b60405180910390f35b6102f56109ec565b6040516103029190614799565b60405180910390f35b610313610a10565b6040516103209190614abc565b60405180910390f35b610331610a19565b60405161033e9190614951565b60405180910390f35b61034f610a3d565b60405161035c9190614af8565b60405180910390f35b61037f600480360381019061037a9190614a20565b610a61565b60405161038c9190614799565b60405180910390f35b6103af60048036038101906103aa9190614c48565b610a82565b005b6103cb60048036038101906103c69190614a20565b610c8a565b6040516103d89190614799565b60405180910390f35b6103fb60048036038101906103f69190614cc0565b610cab565b005b61041760048036038101906104129190614a20565b610ed4565b6040516104249190614799565b60405180910390f35b61044760048036038101906104429190614cc0565b610ef5565b005b610451611121565b60405161045e919061484d565b60405180910390f35b610481600480360381019061047c91906149aa565b6111af565b60405161048e9190614a05565b60405180910390f35b6104b160048036038101906104ac91906148af565b6111d1565b6040516104be9190614799565b60405180910390f35b6104cf611217565b6040516104dc9190614799565b60405180910390f35b6104ed611236565b6040516104fa9190614799565b60405180910390f35b61050b61125a565b6040516105189190614d21565b60405180910390f35b61053b60048036038101906105369190614a20565b61127e565b6040516105489190614799565b60405180910390f35b61056b60048036038101906105669190614d3c565b6112a4565b6040516105789190614799565b60405180910390f35b6105896112c9565b6040516105969190614d9d565b60405180910390f35b6105a76112ed565b005b6000806105b6600061130a565b5090506105c281611526565b91505090565b600080546105d590614de7565b80601f016020809104026020016040519081016040528092919081815260200182805461060190614de7565b801561064e5780601f106106235761010080835404028352916020019161064e565b820191906000526020600020905b81548152906001019060200180831161063157829003601f168201915b505050505081565b600080610663600061130a565b50905061066f81611526565b610678826115c1565b8260200183604001828152508281525050506106948184611602565b915050919050565b7f000000000000000000000000000000000000000000000000000000000000000081565b600081600260003373ffffffffffffffffffffffffffffffffffffffff1673ffffffffffffffffffffffffffffffffffffffff16815260200190815260200160002060008573ffffffffffffffffffffffffffffffffffffffff1673ffffffffffffffffffffffffffffffffffffffff168152602001908152602001600020819055508273ffffffffffffffffffffffffffffffffffffffff163373ffffffffffffffffffffffffffffffffffffffff167f8c5be1e5ebec7d5bd14f71427d1e84f3dd0314c0f7b2291e5b200ac8c7c3b925846040516107a09190614799565b60405180910390a36001905092915050565b6000806107bf600061130a565b5090506107cb816115c1565b91505090565b60006107dc82611644565b5090506000600560008473ffffffffffffffffffffffffffffffffffffffff1673ffffffffffffffffffffffffffffffffffffffff168152602001908152602001600020549050600060065490506000600560008673ffffffffffffffffffffffffffffffffffffffff1673ffffffffffffffffffffffffffffffffffffffff168152602001908152602001600020819055506108828282611c0b90919063ffffffff16565b6006819055508373ffffffffffffffffffffffffffffffffffffffff163373ffffffffffffffffffffffffffffffffffffffff167f70eb43c4a8ae8c40502dcf22436c509c28d6ff421cf07c491be56984bd987068846040516108e59190614799565b60405180910390a3600082905060008060006108ff611c21565b925092509250600061092c8261091e8587611de890919063ffffffff16565b611de890919063ffffffff16565b90506109418682611dfe90919063ffffffff16565b1561095e5761095b818787611e149092919063ffffffff16565b94505b6109688886611e36565b6109b389867f000000000000000000000000000000000000000000000000000000000000000073ffffffffffffffffffffffffffffffffffffffff16611e4d9092919063ffffffff16565b505050505050505050565b60006109c984611644565b50506109d6843384611e7d565b6109e1848484612045565b600190509392505050565b7f000000000000000000000000000000000000000000000000000000000000000081565b60006012905090565b7f000000000000000000000000000000000000000000000000000000000000000081565b7f000000000000000000000000000000000000000000000000000000000000000081565b600080610a6e600061130a565b509050610a7a816121d9565b915050919050565b600160008103610abe576040517fb66146bd00000000000000000000000000000000000000000000000000000000815260040160405180910390fd5b80610ae87f5db5abc19987c2b3729df7961b62b6bb0bae886dd47e3ce25bb3a3af34c6d80b61228e565b10610b2a57806040517f1e7a9d95000000000000000000000000000000000000000000000000000000008152600401610b219190614e27565b60405180910390fd5b610b5d817f5db5abc19987c2b3729df7961b62b6bb0bae886dd47e3ce25bb3a3af34c6d80b61229990919063ffffffff16565b610b9160017fad57d7911b7e3d6c3c79a68ba909a7f4ba41f9485e5207b12dee0d0c6af5398c6122a090919063ffffffff16565b8260009081610ba09190614fc2565b508160019081610bb09190614fc2565b50610c1a7f00000000000000000000000000000000000000000000000000000000000000007f000000000000000000000000000000000000000000000000000000000000000073ffffffffffffffffffffffffffffffffffffffff166122a790919063ffffffff16565b610c4e60007fad57d7911b7e3d6c3c79a68ba909a7f4ba41f9485e5207b12dee0d0c6af5398c6122a090919063ffffffff16565b7fbe9b076dc5b65990cca9dd9d7366682482e7817a6f6bc7f4faf4dc32af497f3281604051610c7d9190614e27565b60405180910390a1505050565b600080610c968361130a565b915050610ca381846122f6565b915050919050565b6000610cb682611644565b509050610cd4610cc5826121d9565b8461242c90919063ffffffff16565b15610d0b576040517f6726139b00000000000000000000000000000000000000000000000000000000815260040160405180910390fd5b610d2083600754611de890919063ffffffff16565b6007819055508060000151600981905550610d8383600a60008573ffffffffffffffffffffffffffffffffffffffff1673ffffffffffffffffffffffffffffffffffffffff16815260200190815260200160002054611de890919063ffffffff16565b600a60008473ffffffffffffffffffffffffffffffffffffffff1673ffffffffffffffffffffffffffffffffffffffff168152602001908152602001600020819055508060000151600c60008473ffffffffffffffffffffffffffffffffffffffff1673ffffffffffffffffffffffffffffffffffffffff168152602001908152602001600020819055508173ffffffffffffffffffffffffffffffffffffffff163373ffffffffffffffffffffffffffffffffffffffff167fdcbc1c05240f31ff3ad067ef1ee35ce4997762752e3a095284754544f4c709d7836000015186604051610e71929190615094565b60405180910390a3610ec433847f000000000000000000000000000000000000000000000000000000000000000073ffffffffffffffffffffffffffffffffffffffff166124439092919063ffffffff16565b610ecf816000611e36565b505050565b600080610ee08361130a565b915050610eed8184612475565b915050919050565b8073ffffffffffffffffffffffffffffffffffffffff163373ffffffffffffffffffffffffffffffffffffffff1614610f3457610f33813384611e7d565b5b600080610f4083611644565b91509150610f61610f528383866125ab565b8561242c90919063ffffffff16565b15610f98576040517f457c19da00000000000000000000000000000000000000000000000000000000815260040160405180910390fd5b610fad84600854611de890919063ffffffff16565b600881905550816000015160098190555061101084600b60008673ffffffffffffffffffffffffffffffffffffffff1673ffffffffffffffffffffffffffffffffffffffff16815260200190815260200160002054611de890919063ffffffff16565b600b60008573ffffffffffffffffffffffffffffffffffffffff1673ffffffffffffffffffffffffffffffffffffffff168152602001908152602001600020819055508160000151600c60008573ffffffffffffffffffffffffffffffffffffffff1673ffffffffffffffffffffffffffffffffffffffff168152602001908152602001600020819055508273ffffffffffffffffffffffffffffffffffffffff163373ffffffffffffffffffffffffffffffffffffffff167fa28d80c9910787c0c058ed9b50c577f1389264bf61563fa45529e0771976f5628460000151876040516110fe929190615094565b60405180910390a361111083856125d8565b61111b826000611e36565b50505050565b6001805461112e90614de7565b80601f016020809104026020016040519081016040528092919081815260200182805461115a90614de7565b80156111a75780601f1061117c576101008083540402835291602001916111a7565b820191906000526020600020905b81548152906001019060200180831161118a57829003601f168201915b505050505081565b60006111ba33611644565b50506111c7338484612045565b6001905092915050565b6000806111de600061130a565b5090506111ea81611526565b6111f3826115c1565b82602001836040018281525082815250505061120f81846126f2565b915050919050565b600080611224600061130a565b50905061123081612734565b91505090565b7f000000000000000000000000000000000000000000000000000000000000000081565b7f000000000000000000000000000000000000000000000000000000000000000081565b600080600061128c8461130a565b9150915061129b8282866125ab565b92505050919050565b6002602052816000526040600020602052806000526040600020600091509150505481565b7f000000000000000000000000000000000000000000000000000000000000000081565b60006112f96000611644565b509050611307816000611e36565b50565b611312614719565b61131a614719565b60006114427f000000000000000000000000000000000000000000000000000000000000000073ffffffffffffffffffffffffffffffffffffffff1663c07f47d46040518163ffffffff1660e01b8152600401602060405180830381865afa15801561138a573d6000803e3d6000fd5b505050506040513d601f19601f820116820180604052508101906113ae91906150e9565b7f000000000000000000000000000000000000000000000000000000000000000073ffffffffffffffffffffffffffffffffffffffff1663c07f47d46040518163ffffffff1660e01b8152600401602060405180830381865afa158015611419573d6000803e3d6000fd5b505050506040513d601f19601f8201168201806040525081019061143d91906150e9565b612775565b9050604051806060016040528082815260200161146060095461278e565b8152602001611470600954612bf6565b81525060405180606001604052808381526020016114cc600c60008973ffffffffffffffffffffffffffffffffffffffff1673ffffffffffffffffffffffffffffffffffffffff1681526020019081526020016000205461278e565b8152602001611519600c60008973ffffffffffffffffffffffffffffffffffffffff1673ffffffffffffffffffffffffffffffffffffffff16815260200190815260200160002054612bf6565b8152509250925050915091565b600080600080611534611c21565b925092509250600080611562836115548688611de890919063ffffffff16565b611de890919063ffffffff16565b61157f6007546115718a612734565b611de890919063ffffffff16565b91509150611596818361242c90919063ffffffff16565b6115a15760006115b5565b6115b48183611c0b90919063ffffffff16565b5b95505050505050919050565b60006009548260000151036115da5760045490506115fd565b6115fa6115e9836007546126f2565b600454611de890919063ffffffff16565b90505b919050565b60006116118360400151612c16565b1561161e5781905061163e565b61163b8360200151846040015184611e149092919063ffffffff16565b90505b92915050565b61164c614719565b611654614719565b61165d83612c22565b8092508193505050600954826000015111156119fe57611698611693600454611685856115c1565b611c0b90919063ffffffff16565b612ec8565b6116a182612734565b6006819055506000600781905550600060088190555081600001516009819055506040518060c001604052807f000000000000000000000000000000000000000000000000000000000000000073ffffffffffffffffffffffffffffffffffffffff1663b7648fb9306040518263ffffffff1660e01b81526004016117269190615125565b6040805180830381865afa158015611742573d6000803e3d6000fd5b505050506040513d601f19601f8201168201806040525081019061176691906151aa565b6000015181526020017f000000000000000000000000000000000000000000000000000000000000000073ffffffffffffffffffffffffffffffffffffffff1663b7648fb9306040518263ffffffff1660e01b81526004016117c89190615125565b6040805180830381865afa1580156117e4573d6000803e3d6000fd5b505050506040513d601f19601f8201168201806040525081019061180891906151aa565b60000151815260200160045481526020017f000000000000000000000000000000000000000000000000000000000000000073ffffffffffffffffffffffffffffffffffffffff1663cc218ece307f00000000000000000000000000000000000000000000000000000000000000006040518363ffffffff1660e01b81526004016118949291906151d7565b602060405180830381865afa1580156118b1573d6000803e3d6000fd5b505050506040513d601f19601f820116820180604052508101906118d59190615200565b81526020017f000000000000000000000000000000000000000000000000000000000000000073ffffffffffffffffffffffffffffffffffffffff1663cc218ece307f00000000000000000000000000000000000000000000000000000000000000006040518363ffffffff1660e01b81526004016119559291906151d7565b602060405180830381865afa158015611972573d6000803e3d6000fd5b505050506040513d601f19601f820116820180604052508101906119969190615200565b81526020016119a484611526565b815250600d600084600001518152602001908152602001600020600082015181600001556020820151816001015560408201518160020155606082015181600301556080820151816004015560a082015181600501559050505b600073ffffffffffffffffffffffffffffffffffffffff168373ffffffffffffffffffffffffffffffffffffffff1614158015611a7d5750600c60008473ffffffffffffffffffffffffffffffffffffffff1673ffffffffffffffffffffffffffffffffffffffff168152602001908152602001600020548160000151115b15611c0657611ae683611ae1600360008773ffffffffffffffffffffffffffffffffffffffff1673ffffffffffffffffffffffffffffffffffffffff16815260200190815260200160002054611ad38588612475565b611c0b90919063ffffffff16565b612ee6565b611af081846122f6565b600560008573ffffffffffffffffffffffffffffffffffffffff1673ffffffffffffffffffffffffffffffffffffffff168152602001908152602001600020819055506000600a60008573ffffffffffffffffffffffffffffffffffffffff1673ffffffffffffffffffffffffffffffffffffffff168152602001908152602001600020819055506000600b60008573ffffffffffffffffffffffffffffffffffffffff1673ffffffffffffffffffffffffffffffffffffffff168152602001908152602001600020819055508060000151600c60008573ffffffffffffffffffffffffffffffffffffffff1673ffffffffffffffffffffffffffffffffffffffff168152602001908152602001600020819055505b915091565b60008183611c19919061525c565b905092915050565b60008060007f000000000000000000000000000000000000000000000000000000000000000073ffffffffffffffffffffffffffffffffffffffff1663cc218ece307f00000000000000000000000000000000000000000000000000000000000000006040518363ffffffff1660e01b8152600401611ca19291906151d7565b602060405180830381865afa158015611cbe573d6000803e3d6000fd5b505050506040513d601f19601f82011682018060405250810190611ce29190615200565b7f000000000000000000000000000000000000000000000000000000000000000073ffffffffffffffffffffffffffffffffffffffff1663cc218ece307f00000000000000000000000000000000000000000000000000000000000000006040518363ffffffff1660e01b8152600401611d5d9291906151d7565b602060405180830381865afa158015611d7a573d6000803e3d6000fd5b505050506040513d601f19601f82011682018060405250810190611d9e9190615200565b611ddd7f000000000000000000000000000000000000000000000000000000000000000073ffffffffffffffffffffffffffffffffffffffff16612fe5565b925092509250909192565b60008183611df69190615290565b905092915050565b600080611e0b8484612ff8565b14905092915050565b6000818385611e2391906152e6565b611e2d919061536f565b90509392505050565b611e3f81613036565b611e4982826132ca565b5050565b611e7882828573ffffffffffffffffffffffffffffffffffffffff1661359e9092919063ffffffff16565b505050565b611f2c7fffffffffffffffffffffffffffffffffffffffffffffffffffffffffffffffff600260008673ffffffffffffffffffffffffffffffffffffffff1673ffffffffffffffffffffffffffffffffffffffff16815260200190815260200160002060008573ffffffffffffffffffffffffffffffffffffffff1673ffffffffffffffffffffffffffffffffffffffff1681526020019081526020016000205461362490919063ffffffff16565b61204057611fbf81600260008673ffffffffffffffffffffffffffffffffffffffff1673ffffffffffffffffffffffffffffffffffffffff16815260200190815260200160002060008573ffffffffffffffffffffffffffffffffffffffff1673ffffffffffffffffffffffffffffffffffffffff16815260200190815260200160002054611c0b90919063ffffffff16565b600260008573ffffffffffffffffffffffffffffffffffffffff1673ffffffffffffffffffffffffffffffffffffffff16815260200190815260200160002060008473ffffffffffffffffffffffffffffffffffffffff1673ffffffffffffffffffffffffffffffffffffffff168152602001908152602001600020819055505b505050565b61209781600360008673ffffffffffffffffffffffffffffffffffffffff1673ffffffffffffffffffffffffffffffffffffffff16815260200190815260200160002054611c0b90919063ffffffff16565b600360008573ffffffffffffffffffffffffffffffffffffffff1673ffffffffffffffffffffffffffffffffffffffff1681526020019081526020016000208190555061212c81600360008573ffffffffffffffffffffffffffffffffffffffff1673ffffffffffffffffffffffffffffffffffffffff16815260200190815260200160002054611de890919063ffffffff16565b600360008473ffffffffffffffffffffffffffffffffffffffff1673ffffffffffffffffffffffffffffffffffffffff168152602001908152602001600020819055508173ffffffffffffffffffffffffffffffffffffffff168373ffffffffffffffffffffffffffffffffffffffff167fddf252ad1be2c89b69c2b068fc378daa952ba7f163c4a11628f55a4df523b3ef836040516121cc9190614799565b60405180910390a3505050565b60006121e48261363b565b156121f25760009050612289565b600061221160075461220385611526565b611de890919063ffffffff16565b9050612246817f000000000000000000000000000000000000000000000000000000000000000061242c90919063ffffffff16565b612251576000612285565b612284817f0000000000000000000000000000000000000000000000000000000000000000611c0b90919063ffffffff16565b5b9150505b919050565b600081549050919050565b8082555050565b8082555050565b6122f2817fffffffffffffffffffffffffffffffffffffffffffffffffffffffffffffffff8473ffffffffffffffffffffffffffffffffffffffff1661392f9092919063ffffffff16565b5050565b6000600c60008373ffffffffffffffffffffffffffffffffffffffff1673ffffffffffffffffffffffffffffffffffffffff1681526020019081526020016000205483600001510361238957600560008373ffffffffffffffffffffffffffffffffffffffff1673ffffffffffffffffffffffffffffffffffffffff168152602001908152602001600020549050612426565b6124236123d584600b60008673ffffffffffffffffffffffffffffffffffffffff1673ffffffffffffffffffffffffffffffffffffffff16815260200190815260200160002054611602565b600560008573ffffffffffffffffffffffffffffffffffffffff1673ffffffffffffffffffffffffffffffffffffffff16815260200190815260200160002054611de890919063ffffffff16565b90505b92915050565b6000600261243a8484612ff8565b14905092915050565b6124708230838673ffffffffffffffffffffffffffffffffffffffff16613a7e909392919063ffffffff16565b505050565b6000600c60008373ffffffffffffffffffffffffffffffffffffffff1673ffffffffffffffffffffffffffffffffffffffff1681526020019081526020016000205483600001510361250857600360008373ffffffffffffffffffffffffffffffffffffffff1673ffffffffffffffffffffffffffffffffffffffff1681526020019081526020016000205490506125a5565b6125a261255484600a60008673ffffffffffffffffffffffffffffffffffffffff1673ffffffffffffffffffffffffffffffffffffffff168152602001908152602001600020546126f2565b600360008573ffffffffffffffffffffffffffffffffffffffff1673ffffffffffffffffffffffffffffffffffffffff16815260200190815260200160002054611de890919063ffffffff16565b90505b92915050565b60006125b68461363b565b156125c457600090506125d1565b6125ce8383612475565b90505b9392505050565b61262a81600360008573ffffffffffffffffffffffffffffffffffffffff1673ffffffffffffffffffffffffffffffffffffffff16815260200190815260200160002054611c0b90919063ffffffff16565b600360008473ffffffffffffffffffffffffffffffffffffffff1673ffffffffffffffffffffffffffffffffffffffff1681526020019081526020016000208190555061268281600454611c0b90919063ffffffff16565b600481905550600073ffffffffffffffffffffffffffffffffffffffff168273ffffffffffffffffffffffffffffffffffffffff167fddf252ad1be2c89b69c2b068fc378daa952ba7f163c4a11628f55a4df523b3ef836040516126e69190614799565b60405180910390a35050565b60006127018360200151612c16565b1561270e5781905061272e565b61272b8360400151846020015184611e149092919063ffffffff16565b90505b92915050565b600060095482600001510361274d576006549050612770565b61276d61275c83600854611602565b600654611de890919063ffffffff16565b90505b919050565b60008183106127845781612786565b825b905092915050565b60008061298d6127f8670de0b6b3a76400007fffffffffffffffffffffffffffffffffffffffffffffffffffffffffffffffff6127cb91906153aa565b6127ea600d600088815260200190815260200160002060030154613b07565b613b7a90919063ffffffff16565b61297f61281a600d600088815260200190815260200160002060000154613b07565b6129717f000000000000000000000000000000000000000000000000000000000000000073ffffffffffffffffffffffffffffffffffffffff166320fe9c3c896040518263ffffffff1660e01b81526004016128769190614e27565b6040805180830381865afa158015612892573d6000803e3d6000fd5b505050506040513d601f19601f820116820180604052508101906128b6919061553d565b600001517f000000000000000000000000000000000000000000000000000000000000000073ffffffffffffffffffffffffffffffffffffffff166320fe9c3c60018b6129039190615290565b6040518263ffffffff1660e01b815260040161291f9190614e27565b6040805180830381865afa15801561293b573d6000803e3d6000fd5b505050506040513d601f19601f8201168201806040525081019061295f919061553d565b60000151613ba390919063ffffffff16565b613b7a90919063ffffffff16565b613bb990919063ffffffff16565b90506000612b8d6129f8670de0b6b3a76400007fffffffffffffffffffffffffffffffffffffffffffffffffffffffffffffffff6129cb91906153aa565b6129ea600d600089815260200190815260200160002060040154613b07565b613b7a90919063ffffffff16565b612b7f612a1a600d600089815260200190815260200160002060010154613b07565b612b717f000000000000000000000000000000000000000000000000000000000000000073ffffffffffffffffffffffffffffffffffffffff166320fe9c3c8a6040518263ffffffff1660e01b8152600401612a769190614e27565b6040805180830381865afa158015612a92573d6000803e3d6000fd5b505050506040513d601f19601f82011682018060405250810190612ab6919061553d565b600001517f000000000000000000000000000000000000000000000000000000000000000073ffffffffffffffffffffffffffffffffffffffff166320fe9c3c60018c612b039190615290565b6040518263ffffffff1660e01b8152600401612b1f9190614e27565b6040805180830381865afa158015612b3b573d6000803e3d6000fd5b505050506040513d601f19601f82011682018060405250810190612b5f919061553d565b60000151613ba390919063ffffffff16565b613b7a90919063ffffffff16565b613bb990919063ffffffff16565b9050612bed612be86000612bda84612bcc87612bbe600d60008d815260200190815260200160002060050154613b07565b613bcd90919063ffffffff16565b613bcd90919063ffffffff16565b613bb990919063ffffffff16565b613be3565b92505050919050565b6000600d6000838152602001908152602001600020600201549050919050565b60008082149050919050565b612c2a614719565b612c32614719565b7f000000000000000000000000000000000000000000000000000000000000000073ffffffffffffffffffffffffffffffffffffffff1663f667f897306040518263ffffffff1660e01b8152600401612c8b9190615125565b600060405180830381600087803b158015612ca557600080fd5b505af1158015612cb9573d6000803e3d6000fd5b505050507f000000000000000000000000000000000000000000000000000000000000000073ffffffffffffffffffffffffffffffffffffffff1663f667f897306040518263ffffffff1660e01b8152600401612d169190615125565b600060405180830381600087803b158015612d3057600080fd5b505af1158015612d44573d6000803e3d6000fd5b5050505060007f000000000000000000000000000000000000000000000000000000000000000073ffffffffffffffffffffffffffffffffffffffff16638e480b20306040518263ffffffff1660e01b8152600401612da39190615125565b602060405180830381865afa158015612dc0573d6000803e3d6000fd5b505050506040513d601f19601f82011682018060405250810190612de491906150e9565b90506040518060600160405280828152602001612e0260095461278e565b8152602001612e12600954612bf6565b8152506040518060600160405280838152602001612e6e600c60008973ffffffffffffffffffffffffffffffffffffffff1673ffffffffffffffffffffffffffffffffffffffff1681526020019081526020016000205461278e565b8152602001612ebb600c60008973ffffffffffffffffffffffffffffffffffffffff1673ffffffffffffffffffffffffffffffffffffffff16815260200190815260200160002054612bf6565b8152509250925050915091565b612edd81600454611de890919063ffffffff16565b60048190555050565b612f3881600360008573ffffffffffffffffffffffffffffffffffffffff1673ffffffffffffffffffffffffffffffffffffffff16815260200190815260200160002054611de890919063ffffffff16565b600360008473ffffffffffffffffffffffffffffffffffffffff1673ffffffffffffffffffffffffffffffffffffffff168152602001908152602001600020819055508173ffffffffffffffffffffffffffffffffffffffff16600073ffffffffffffffffffffffffffffffffffffffff167fddf252ad1be2c89b69c2b068fc378daa952ba7f163c4a11628f55a4df523b3ef83604051612fd99190614799565b60405180910390a35050565b6000612ff18230613c38565b9050919050565b60008060008484915091508082111561301657600292505050613030565b8082101561302957600092505050613030565b6001925050505b92915050565b6000806000613043611c21565b925092509250600061308285613074846130668789611de890919063ffffffff16565b611de890919063ffffffff16565b611c0b90919063ffffffff16565b905060006130a1671bc16d674ec8000083613cbc90919063ffffffff16565b90506131447f000000000000000000000000000000000000000000000000000000000000000073ffffffffffffffffffffffffffffffffffffffff1663ba2de9bc6040518163ffffffff1660e01b8152600401602060405180830381865afa158015613111573d6000803e3d6000fd5b505050506040513d601f19601f820116820180604052508101906131359190615200565b82611dfe90919063ffffffff16565b1561314e57600090505b600080613164868861242c90919063ffffffff16565b6131af577f00000000000000000000000000000000000000000000000000000000000000007f00000000000000000000000000000000000000000000000000000000000000006131f2565b7f00000000000000000000000000000000000000000000000000000000000000007f00000000000000000000000000000000000000000000000000000000000000005b9150915061325b827f000000000000000000000000000000000000000000000000000000000000000073ffffffffffffffffffffffffffffffffffffffff168473ffffffffffffffffffffffffffffffffffffffff16146132535787613255565b885b85613ce5565b6132c0817f000000000000000000000000000000000000000000000000000000000000000073ffffffffffffffffffffffffffffffffffffffff168373ffffffffffffffffffffffffffffffffffffffff16146132b857876132ba565b885b85613ce5565b5050505050505050565b60006132e7826132d985611526565b611c0b90919063ffffffff16565b9050600061330a613305600854600454611de890919063ffffffff16565b612c16565b6133545761334f61333e60045461332e600854600454611de890919063ffffffff16565b85611e149092919063ffffffff16565b600754611de890919063ffffffff16565b61336a565b61336982600754611de890919063ffffffff16565b5b9050613427613418671bc16d674ec800007f000000000000000000000000000000000000000000000000000000000000000073ffffffffffffffffffffffffffffffffffffffff1663ba2de9bc6040518163ffffffff1660e01b8152600401602060405180830381865afa1580156133e6573d6000803e3d6000fd5b505050506040513d601f19601f8201168201806040525081019061340a9190615200565b613e9790919063ffffffff16565b82611dfe90919063ffffffff16565b1561343157600090505b60006134dd7f000000000000000000000000000000000000000000000000000000000000000073ffffffffffffffffffffffffffffffffffffffff16637ece075d87600001516040518263ffffffff1660e01b81526004016134939190614e27565b606060405180830381865afa1580156134b0573d6000803e3d6000fd5b505050506040513d601f19601f820116820180604052508101906134d491906155ce565b60400151613ec0565b90506000613540671bc16d674ec80000613532846135247f000000000000000000000000000000000000000000000000000000000000000088613e9790919063ffffffff16565b613cbc90919063ffffffff16565b613cbc90919063ffffffff16565b905061356c7f000000000000000000000000000000000000000000000000000000000000000082613ed2565b6135967f000000000000000000000000000000000000000000000000000000000000000082613ed2565b505050505050565b61361f8363a9059cbb60e01b84846040516024016135bd9291906155fb565b604051602081830303815290604052907bffffffffffffffffffffffffffffffffffffffffffffffffffffffff19166020820180517bffffffffffffffffffffffffffffffffffffffffffffffffffffffff8381831617835250505050614375565b505050565b600060016136328484612ff8565b14905092915050565b60007f000000000000000000000000000000000000000000000000000000000000000073ffffffffffffffffffffffffffffffffffffffff166382df39de307f00000000000000000000000000000000000000000000000000000000000000006040518363ffffffff1660e01b81526004016136b89291906151d7565b602060405180830381865afa1580156136d5573d6000803e3d6000fd5b505050506040513d601f19601f820116820180604052508101906136f99190615650565b806137bc57507f000000000000000000000000000000000000000000000000000000000000000073ffffffffffffffffffffffffffffffffffffffff166382df39de307f00000000000000000000000000000000000000000000000000000000000000006040518363ffffffff1660e01b815260040161377a9291906151d7565b602060405180830381865afa158015613797573d6000803e3d6000fd5b505050506040513d601f19601f820116820180604052508101906137bb9190615650565b5b8061385d57507f000000000000000000000000000000000000000000000000000000000000000073ffffffffffffffffffffffffffffffffffffffff166358ca6f98306040518263ffffffff1660e01b815260040161381b9190615125565b602060405180830381865afa158015613838573d6000803e3d6000fd5b505050506040513d601f19601f8201168201806040525081019061385c9190615650565b5b806138fe57507f000000000000000000000000000000000000000000000000000000000000000073ffffffffffffffffffffffffffffffffffffffff166358ca6f98306040518263ffffffff1660e01b81526004016138bc9190615125565b602060405180830381865afa1580156138d9573d6000803e3d6000fd5b505050506040513d601f19601f820116820180604052508101906138fd9190615650565b5b8061392857506139118260400151612c16565b15801561392757506139268260200151612c16565b5b5b9050919050565b60008114806139b9575060008373ffffffffffffffffffffffffffffffffffffffff1663dd62ed3e30856040518363ffffffff1660e01b815260040161397692919061567d565b602060405180830381865afa158015613993573d6000803e3d6000fd5b505050506040513d601f19601f820116820180604052508101906139b791906150e9565b145b6139f8576040517f08c379a00000000000000000000000000000000000000000000000000000000081526004016139ef90615718565b60405180910390fd5b613a798363095ea7b360e01b8484604051602401613a179291906155fb565b604051602081830303815290604052907bffffffffffffffffffffffffffffffffffffffffffffffffffffffff19166020820180517bffffffffffffffffffffffffffffffffffffffffffffffffffffffff8381831617835250505050614375565b505050565b613b01846323b872dd60e01b858585604051602401613a9f93929190615738565b604051602081830303815290604052907bffffffffffffffffffffffffffffffffffffffffffffffffffffffff19166020820180517bffffffffffffffffffffffffffffffffffffffffffffffffffffffff8381831617835250505050614375565b50505050565b6000808290507f7fffffffffffffffffffffffffffffffffffffffffffffffffffffffffffffff811115613b7157806040517ea07eb5000000000000000000000000000000000000000000000000000000008152600401613b689190614e27565b60405180910390fd5b80915050919050565b6000670de0b6b3a76400008284613b9191906153aa565b613b9b919061576f565b905092915050565b60008183613bb191906157d9565b905092915050565b6000613bc5838361443c565b905092915050565b60008183613bdb919061586d565b905092915050565b6000808290506000811215613c2f57806040517f501f289e000000000000000000000000000000000000000000000000000000008152600401613c269190615910565b60405180910390fd5b80915050919050565b60008273ffffffffffffffffffffffffffffffffffffffff166370a08231836040518263ffffffff1660e01b8152600401613c739190615125565b602060405180830381865afa158015613c90573d6000803e3d6000fd5b505050506040513d601f19601f82011682018060405250810190613cb491906150e9565b905092915050565b600081670de0b6b3a764000084613cd391906152e6565b613cdd919061536f565b905092915050565b613cf8818361242c90919063ffffffff16565b15613d9f577f000000000000000000000000000000000000000000000000000000000000000073ffffffffffffffffffffffffffffffffffffffff1663c3b35a7e3085613d4e8587611c0b90919063ffffffff16565b6040518463ffffffff1660e01b8152600401613d6c9392919061592b565b600060405180830381600087803b158015613d8657600080fd5b505af1158015613d9a573d6000803e3d6000fd5b505050505b613db28183611dfe90919063ffffffff16565b15613e59577f000000000000000000000000000000000000000000000000000000000000000073ffffffffffffffffffffffffffffffffffffffff1663f213159c3085613e088686611c0b90919063ffffffff16565b6040518463ffffffff1660e01b8152600401613e269392919061592b565b600060405180830381600087803b158015613e4057600080fd5b505af1158015613e54573d6000803e3d6000fd5b505050505b7fdf43c689abc8d83e86b74634bbe0ba590e2ecb34f3f432a612c6edef3e532cbd8382604051613e8a929190615962565b60405180910390a1505050565b6000670de0b6b3a76400008284613eae91906152e6565b613eb8919061536f565b905092915050565b6000613ecb82614456565b9050919050565b6000613fd88373ffffffffffffffffffffffffffffffffffffffff16631e0c6fb9306040518263ffffffff1660e01b8152600401613f109190615125565b60a060405180830381865afa158015613f2d573d6000803e3d6000fd5b505050506040513d601f19601f82011682018060405250810190613f5191906159ef565b8473ffffffffffffffffffffffffffffffffffffffff1663b7648fb9306040518263ffffffff1660e01b8152600401613f8a9190615125565b6040805180830381865afa158015613fa6573d6000803e3d6000fd5b505050506040513d601f19601f82011682018060405250810190613fca91906151aa565b61447290919063ffffffff16565b60000151905060006141478473ffffffffffffffffffffffffffffffffffffffff166359ea287d6040518163ffffffff1660e01b815260040160a060405180830381865afa15801561402e573d6000803e3d6000fd5b505050506040513d601f19601f8201168201806040525081019061405291906159ef565b8573ffffffffffffffffffffffffffffffffffffffff16639a427d038773ffffffffffffffffffffffffffffffffffffffff1663c07f47d46040518163ffffffff1660e01b8152600401602060405180830381865afa1580156140b9573d6000803e3d6000fd5b505050506040513d601f19601f820116820180604052508101906140dd91906150e9565b6040518263ffffffff1660e01b81526004016140f99190614e27565b6040805180830381865afa158015614115573d6000803e3d6000fd5b505050506040513d601f19601f8201168201806040525081019061413991906151aa565b61447290919063ffffffff16565b60000151905060008473ffffffffffffffffffffffffffffffffffffffff1663193775676040518163ffffffff1660e01b8152600401602060405180830381865afa15801561419a573d6000803e3d6000fd5b505050506040513d601f19601f820116820180604052508101906141be9190615200565b905060006141d5838361242c90919063ffffffff16565b6141e05760006141f4565b6141f38383611c0b90919063ffffffff16565b5b90506142098486611dfe90919063ffffffff16565b1561428c578573ffffffffffffffffffffffffffffffffffffffff166359218fe961423d8787611c0b90919063ffffffff16565b6040518263ffffffff1660e01b81526004016142599190614799565b600060405180830381600087803b15801561427357600080fd5b505af1158015614287573d6000803e3d6000fd5b505050505b61429f848661242c90919063ffffffff16565b15614334578573ffffffffffffffffffffffffffffffffffffffff1663d7d7d6b86142e5836142d7888a611c0b90919063ffffffff16565b61449d90919063ffffffff16565b6040518263ffffffff1660e01b81526004016143019190614799565b600060405180830381600087803b15801561431b57600080fd5b505af115801561432f573d6000803e3d6000fd5b505050505b7f814d2340073b1f05a68bb3f6aab82bfc4eea78f35f7c2332caddf0c35865331e8686604051614365929190615962565b60405180910390a1505050505050565b60006143d7826040518060400160405280602081526020017f5361666545524332303a206c6f772d6c6576656c2063616c6c206661696c65648152508573ffffffffffffffffffffffffffffffffffffffff166144b19092919063ffffffff16565b905060008151111561443757808060200190518101906143f79190615650565b614436576040517f08c379a000000000000000000000000000000000000000000000000000000000815260040161442d90615a8e565b60405180910390fd5b5b505050565b60008183121561444c578161444e565b825b905092915050565b600080821215614469578160000361446b565b815b9050919050565b61447a61473a565b61449561448b8484602001516144c9565b8360400151614522565b905092915050565b60006144a98383612775565b905092915050565b60606144c0848460008561457b565b90509392505050565b6144d161473a565b60405180604001604052806144f784600001518660000151611de890919063ffffffff16565b815260200161451784602001518660200151611de890919063ffffffff16565b815250905092915050565b61452a61473a565b604051806040016040528061455084600001518660000151611c0b90919063ffffffff16565b815260200161457084602001518660200151611c0b90919063ffffffff16565b815250905092915050565b6060824710156145c0576040517f08c379a00000000000000000000000000000000000000000000000000000000081526004016145b790615b20565b60405180910390fd5b6145c98561468f565b614608576040517f08c379a00000000000000000000000000000000000000000000000000000000081526004016145ff90615b8c565b60405180910390fd5b6000808673ffffffffffffffffffffffffffffffffffffffff1685876040516146319190615bf3565b60006040518083038185875af1925050503d806000811461466e576040519150601f19603f3d011682016040523d82523d6000602084013e614673565b606091505b50915091506146838282866146b2565b92505050949350505050565b6000808273ffffffffffffffffffffffffffffffffffffffff163b119050919050565b606083156146c257829050614712565b6000835111156146d55782518084602001fd5b816040517f08c379a0000000000000000000000000000000000000000000000000000000008152600401614709919061484d565b60405180910390fd5b9392505050565b60405180606001604052806000815260200160008152602001600081525090565b604051806040016040528060008152602001600081525090565b6000819050919050565b6000819050919050565b600061478361477e61477984614754565b61475e565b614754565b9050919050565b61479381614768565b82525050565b60006020820190506147ae600083018461478a565b92915050565b600081519050919050565b600082825260208201905092915050565b60005b838110156147ee5780820151818401526020810190506147d3565b838111156147fd576000848401525b50505050565b6000601f19601f8301169050919050565b600061481f826147b4565b61482981856147bf565b93506148398185602086016147d0565b61484281614803565b840191505092915050565b600060208201905081810360008301526148678184614814565b905092915050565b6000604051905090565b600080fd5b600080fd5b61488c81614754565b811461489757600080fd5b50565b6000813590506148a981614883565b92915050565b6000602082840312156148c5576148c4614879565b5b60006148d38482850161489a565b91505092915050565b600073ffffffffffffffffffffffffffffffffffffffff82169050919050565b600061491761491261490d846148dc565b61475e565b6148dc565b9050919050565b6000614929826148fc565b9050919050565b600061493b8261491e565b9050919050565b61494b81614930565b82525050565b60006020820190506149666000830184614942565b92915050565b6000614977826148dc565b9050919050565b6149878161496c565b811461499257600080fd5b50565b6000813590506149a48161497e565b92915050565b600080604083850312156149c1576149c0614879565b5b60006149cf85828601614995565b92505060206149e08582860161489a565b9150509250929050565b60008115159050919050565b6149ff816149ea565b82525050565b6000602082019050614a1a60008301846149f6565b92915050565b600060208284031215614a3657614a35614879565b5b6000614a4484828501614995565b91505092915050565b600080600060608486031215614a6657614a65614879565b5b6000614a7486828701614995565b9350506020614a8586828701614995565b9250506040614a968682870161489a565b9150509250925092565b600060ff82169050919050565b614ab681614aa0565b82525050565b6000602082019050614ad16000830184614aad565b92915050565b6000614ae28261491e565b9050919050565b614af281614ad7565b82525050565b6000602082019050614b0d6000830184614ae9565b92915050565b600080fd5b600080fd5b7f4e487b7100000000000000000000000000000000000000000000000000000000600052604160045260246000fd5b614b5582614803565b810181811067ffffffffffffffff82111715614b7457614b73614b1d565b5b80604052505050565b6000614b8761486f565b9050614b938282614b4c565b919050565b600067ffffffffffffffff821115614bb357614bb2614b1d565b5b614bbc82614803565b9050602081019050919050565b82818337600083830152505050565b6000614beb614be684614b98565b614b7d565b905082815260208101848484011115614c0757614c06614b18565b5b614c12848285614bc9565b509392505050565b600082601f830112614c2f57614c2e614b13565b5b8135614c3f848260208601614bd8565b91505092915050565b60008060408385031215614c5f57614c5e614879565b5b600083013567ffffffffffffffff811115614c7d57614c7c61487e565b5b614c8985828601614c1a565b925050602083013567ffffffffffffffff811115614caa57614ca961487e565b5b614cb685828601614c1a565b9150509250929050565b60008060408385031215614cd757614cd6614879565b5b6000614ce58582860161489a565b9250506020614cf685828601614995565b9150509250929050565b6000614d0b8261491e565b9050919050565b614d1b81614d00565b82525050565b6000602082019050614d366000830184614d12565b92915050565b60008060408385031215614d5357614d52614879565b5b6000614d6185828601614995565b9250506020614d7285828601614995565b9150509250929050565b6000614d878261491e565b9050919050565b614d9781614d7c565b82525050565b6000602082019050614db26000830184614d8e565b92915050565b7f4e487b7100000000000000000000000000000000000000000000000000000000600052602260045260246000fd5b60006002820490506001821680614dff57607f821691505b602082108103614e1257614e11614db8565b5b50919050565b614e2181614754565b82525050565b6000602082019050614e3c6000830184614e18565b92915050565b60008190508160005260206000209050919050565b60006020601f8301049050919050565b600082821b905092915050565b600060088302614ea47fffffffffffffffffffffffffffffffffffffffffffffffffffffffffffffffff82614e67565b614eae8683614e67565b95508019841693508086168417925050509392505050565b6000819050919050565b614ed983614768565b614eed614ee582614ec6565b848454614e74565b825550505050565b600090565b614f02614ef5565b614f0d818484614ed0565b505050565b5b81811015614f3157614f26600082614efa565b600181019050614f13565b5050565b601f821115614f7657614f4781614e42565b614f5084614e57565b81016020851015614f5f578190505b614f73614f6b85614e57565b830182614f12565b50505b505050565b600082821c905092915050565b6000614f9960001984600802614f7b565b1980831691505092915050565b6000614fb28383614f88565b9150826002028217905092915050565b614fcb826147b4565b67ffffffffffffffff811115614fe457614fe3614b1d565b5b614fee8254614de7565b614ff9828285614f35565b600060209050601f83116001811461502c576000841561501a578287015190505b6150248582614fa6565b86555061508c565b601f19841661503a86614e42565b60005b828110156150625784890151825560018201915060208501945060208101905061503d565b8683101561507f578489015161507b601f891682614f88565b8355505b6001600288020188555050505b505050505050565b60006040820190506150a96000830185614e18565b6150b6602083018461478a565b9392505050565b6150c681614754565b81146150d157600080fd5b50565b6000815190506150e3816150bd565b92915050565b6000602082840312156150ff576150fe614879565b5b600061510d848285016150d4565b91505092915050565b61511f8161496c565b82525050565b600060208201905061513a6000830184615116565b92915050565b600080fd5b60008151905061515481614883565b92915050565b6000604082840312156151705761516f615140565b5b61517a6040614b7d565b9050600061518a84828501615145565b600083015250602061519e84828501615145565b60208301525092915050565b6000604082840312156151c0576151bf614879565b5b60006151ce8482850161515a565b91505092915050565b60006040820190506151ec6000830185615116565b6151f96020830184614942565b9392505050565b60006020828403121561521657615215614879565b5b600061522484828501615145565b91505092915050565b7f4e487b7100000000000000000000000000000000000000000000000000000000600052601160045260246000fd5b600061526782614754565b915061527283614754565b9250828210156152855761528461522d565b5b828203905092915050565b600061529b82614754565b91506152a683614754565b9250827fffffffffffffffffffffffffffffffffffffffffffffffffffffffffffffffff038211156152db576152da61522d565b5b828201905092915050565b60006152f182614754565b91506152fc83614754565b9250817fffffffffffffffffffffffffffffffffffffffffffffffffffffffffffffffff04831182151516156153355761533461522d565b5b828202905092915050565b7f4e487b7100000000000000000000000000000000000000000000000000000000600052601260045260246000fd5b600061537a82614754565b915061538583614754565b92508261539557615394615340565b5b828204905092915050565b6000819050919050565b60006153b5826153a0565b91506153c0836153a0565b9250827f7fffffffffffffffffffffffffffffffffffffffffffffffffffffffffffffff04821160008413600084131616156153ff576153fe61522d565b5b817f8000000000000000000000000000000000000000000000000000000000000000058312600084126000841316161561543c5761543b61522d565b5b827f800000000000000000000000000000000000000000000000000000000000000005821260008413600084121616156154795761547861522d565b5b827f7fffffffffffffffffffffffffffffffffffffffffffffffffffffffffffffff05821260008412600084121616156154b6576154b561522d565b5b828202905092915050565b6154ca816153a0565b81146154d557600080fd5b50565b6000815190506154e7816154c1565b92915050565b60006040828403121561550357615502615140565b5b61550d6040614b7d565b9050600061551d848285016154d8565b6000830152506020615531848285016154d8565b60208301525092915050565b60006040828403121561555357615552614879565b5b6000615561848285016154ed565b91505092915050565b6000606082840312156155805761557f615140565b5b61558a6060614b7d565b9050600061559a848285016150d4565b60008301525060206155ae848285016150d4565b60208301525060406155c2848285016154d8565b60408301525092915050565b6000606082840312156155e4576155e3614879565b5b60006155f28482850161556a565b91505092915050565b60006040820190506156106000830185615116565b61561d6020830184614e18565b9392505050565b61562d816149ea565b811461563857600080fd5b50565b60008151905061564a81615624565b92915050565b60006020828403121561566657615665614879565b5b60006156748482850161563b565b91505092915050565b60006040820190506156926000830185615116565b61569f6020830184615116565b9392505050565b7f5361666545524332303a20617070726f76652066726f6d206e6f6e2d7a65726f60008201527f20746f206e6f6e2d7a65726f20616c6c6f77616e636500000000000000000000602082015250565b60006157026036836147bf565b915061570d826156a6565b604082019050919050565b60006020820190508181036000830152615731816156f5565b9050919050565b600060608201905061574d6000830186615116565b61575a6020830185615116565b6157676040830184614e18565b949350505050565b600061577a826153a0565b9150615785836153a0565b92508261579557615794615340565b5b600160000383147f8000000000000000000000000000000000000000000000000000000000000000831416156157ce576157cd61522d565b5b828205905092915050565b60006157e4826153a0565b91506157ef836153a0565b9250827f80000000000000000000000000000000000000000000000000000000000000000182126000841215161561582a5761582961522d565b5b827f7fffffffffffffffffffffffffffffffffffffffffffffffffffffffffffffff0182136000841216156158625761586161522d565b5b828203905092915050565b6000615878826153a0565b9150615883836153a0565b9250817f7fffffffffffffffffffffffffffffffffffffffffffffffffffffffffffffff038313600083121516156158be576158bd61522d565b5b817f80000000000000000000000000000000000000000000000000000000000000000383126000831216156158f6576158f561522d565b5b828201905092915050565b61590a816153a0565b82525050565b60006020820190506159256000830184615901565b92915050565b60006060820190506159406000830186615116565b61594d6020830185614942565b61595a604083018461478a565b949350505050565b60006040820190506159776000830185614942565b615984602083018461478a565b9392505050565b600060a082840312156159a1576159a0615140565b5b6159ab6060614b7d565b905060006159bb848285016150d4565b60008301525060206159cf8482850161515a565b60208301525060606159e38482850161515a565b60408301525092915050565b600060a08284031215615a0557615a04614879565b5b6000615a138482850161598b565b91505092915050565b7f5361666545524332303a204552433230206f7065726174696f6e20646964206e60008201527f6f74207375636365656400000000000000000000000000000000000000000000602082015250565b6000615a78602a836147bf565b9150615a8382615a1c565b604082019050919050565b60006020820190508181036000830152615aa781615a6b565b9050919050565b7f416464726573733a20696e73756666696369656e742062616c616e636520666f60008201527f722063616c6c0000000000000000000000000000000000000000000000000000602082015250565b6000615b0a6026836147bf565b9150615b1582615aae565b604082019050919050565b60006020820190508181036000830152615b3981615afd565b9050919050565b7f416464726573733a2063616c6c20746f206e6f6e2d636f6e7472616374000000600082015250565b6000615b76601d836147bf565b9150615b8182615b40565b602082019050919050565b60006020820190508181036000830152615ba581615b69565b9050919050565b600081519050919050565b600081905092915050565b6000615bcd82615bac565b615bd78185615bb7565b9350615be78185602086016147d0565b80840191505092915050565b6000615bff8284615bc2565b91508190509291505056fea2646970667358221220d60f16ace69cba68360e079520583a6ff05e8364760e2e388eda867ba6fe84d864736f6c634300080f0033",
  "devdoc": {
    "details": "Vault deploys and rebalances collateral between the corresponding long and short markets, while attempting to      maintain `targetLeverage` with its open positions at any given time. Deposits are only gated in so much as to cap      the maximum amount of assets in the vault.      The vault has a \"delayed mint\" mechanism for shares on deposit. After depositing to the vault, a user must wait      until the next settlement of the underlying products in order for shares to be reflected in the getters.      The shares will be fully reflected in contract state when the next settlement occurs on the vault itself.      Similarly, when redeeming shares, underlying assets are not claimable until a settlement occurs.      Each state changing interaction triggers the `settle` flywheel in order to bring the vault to the      desired state.      In the event that there is not a settlement for a long period of time, keepers can call the `sync` method to      force settlement and rebalancing. This is most useful to prevent vault liquidation due to PnL changes      causing the vault to be in an unhealthy state (far away from target leverage)",
    "kind": "dev",
    "methods": {
      "approve(address,uint256)": {
        "params": {
          "amount": "Amount of shares that spender can operate on",
          "spender": "Address which can spend operate on shares"
        },
        "returns": {
          "_0": "bool true if the approval was successful, otherwise reverts"
        }
      },
      "balanceOf(address)": {
        "params": {
          "account": "Account to query balance of"
        },
        "returns": {
          "_0": "Number of shares held by `account`"
        }
      },
      "claim(address)": {
        "params": {
          "account": "The account to claim for"
        }
      },
      "convertToAssets(uint256)": {
        "params": {
          "shares": "Number of shares to convert to assets"
        },
        "returns": {
          "_0": "Amount of assets for the given shares"
        }
      },
      "convertToShares(uint256)": {
        "params": {
          "assets": "Number of assets to convert to shares"
        },
        "returns": {
          "_0": "Amount of shares for the given assets"
        }
      },
      "decimals()": {
        "returns": {
          "_0": "Decimal places of the share share token"
        }
      },
      "deposit(uint256,address)": {
        "params": {
          "account": "The account to deposit on behalf of",
          "assets": "The amount of assets to deposit"
        }
      },
      "initialize(string,string)": {
        "params": {
          "name_": "ERC20 asset name",
          "symbol_": "ERC20 asset symbol"
        }
      },
      "maxDeposit(address)": {
        "details": "Only exact when vault is synced, otherwise approximate",
        "returns": {
          "_0": "Maximum available deposit amount"
        }
      },
      "maxRedeem(address)": {
        "details": "Only exact when vault is synced, otherwise approximate",
        "params": {
          "account": "The account to redeem for"
        },
        "returns": {
          "_0": "Maximum available redeemable amount"
        }
      },
      "redeem(uint256,address)": {
        "details": "Does not return any assets to the user due to delayed settlement. Use `claim` to claim assets      If account is not msg.sender, requires prior spending approval",
        "params": {
          "account": "The account to redeem on behalf of",
          "shares": "The amount of shares to redeem"
        }
      },
      "sync()": {
        "details": "Should be called by a keeper when the vault approaches a liquidation state on either side"
      },
      "totalAssets()": {
        "returns": {
          "_0": "Amount of assets held by the vault"
        }
      },
      "totalSupply()": {
        "returns": {
          "_0": "Amount of shares currently issued"
        }
      },
      "totalUnclaimed()": {
        "returns": {
          "_0": "Total unclaimed assets in vault"
        }
      },
      "transfer(address,uint256)": {
        "params": {
          "amount": "Amount of shares to send",
          "to": "Address to send shares to"
        },
        "returns": {
          "_0": "bool true if the transfer was successful, otherwise reverts"
        }
      },
      "transferFrom(address,address,uint256)": {
        "params": {
          "amount": "Amount of shares to send",
          "from": "Address to send shares from",
          "to": "Address to send shares to"
        },
        "returns": {
          "_0": "bool true if the transfer was successful, otherwise reverts"
        }
      },
      "unclaimed(address)": {
        "params": {
          "account": "Account to query unclaimed balance of"
        },
        "returns": {
          "_0": "`account`'s unclaimed assets"
        }
      }
    },
    "stateVariables": {
      "_balanceOf": {
        "details": "Mapping of shares of the vault per user"
      },
      "_deposit": {
        "details": "Deposits that have not been settled, or have been settled but not yet processed by this contract"
      },
      "_deposits": {
        "details": "Mapping of pending (not yet converted to shares) per user"
      },
      "_latestVersion": {
        "details": "The latest version that a pending deposit or redemption has been placed"
      },
      "_latestVersions": {
        "details": "Mapping of the latest version that a pending deposit or redemption has been placed per user"
      },
      "_redemption": {
        "details": "Redemptions that have not been settled, or have been settled but not yet processed by this contract"
      },
      "_redemptions": {
        "details": "Mapping of pending (not yet withdrawn) per user"
      },
      "_totalSupply": {
        "details": "Total number of shares across all users"
      },
      "_totalUnclaimed": {
        "details": "Mapping of unclaimed underlying of the vault per user"
      },
      "_unclaimed": {
        "details": "Mapping of unclaimed underlying of the vault per user"
      },
      "_versions": {
        "details": "Mapping of versions of the vault state at a given oracle version"
      },
      "allowance": {
        "details": "Mapping of allowance across all users"
      },
      "asset": {
        "details": "The underlying asset of the vault"
      },
      "collateral": {
        "details": "The address of the Perennial collateral contract"
      },
      "controller": {
        "details": "The address of the Perennial controller contract"
      },
      "long": {
        "details": "The address of the Perennial product on the long side"
      },
      "maxCollateral": {
        "details": "The collateral cap for the vault"
      },
      "name": {
        "details": "The ERC20 name of the vault"
      },
      "short": {
        "details": "The address of the Perennial product on the short side"
      },
      "symbol": {
        "details": "The ERC20 symbol of the vault"
      },
      "targetLeverage": {
        "details": "The target leverage amount for the vault"
      }
    },
    "title": "BalancedVault",
    "version": 1
  },
  "userdoc": {
    "kind": "user",
    "methods": {
      "approve(address,uint256)": {
        "notice": "Sets `amount` as the allowance of `spender` over the caller's shares"
      },
      "balanceOf(address)": {
        "notice": "Number of shares held by `account`"
      },
      "claim(address)": {
        "notice": "Claims all claimable assets for account, sending assets to account"
      },
      "convertToAssets(uint256)": {
        "notice": "Converts a given amount of shares to assets"
      },
      "convertToShares(uint256)": {
        "notice": "Converts a given amount of assets to shares"
      },
      "decimals()": {
        "notice": "Returns the decimals places of the share token"
      },
      "deposit(uint256,address)": {
        "notice": "Deposits `assets` assets into the vault, returning shares to `account` after the deposit settles."
      },
      "initialize(string,string)": {
        "notice": "Initializes the contract state"
      },
      "maxDeposit(address)": {
        "notice": "The maximum available deposit amount"
      },
      "maxRedeem(address)": {
        "notice": "The maximum available redeemable amount"
      },
      "redeem(uint256,address)": {
        "notice": "Redeems `shares` shares from the vault"
      },
      "sync()": {
        "notice": "Rebalances the collateral and position of the vault without a deposit or withdraw"
      },
      "totalAssets()": {
        "notice": "The total amount of assets currently held by the vault"
      },
      "totalSupply()": {
        "notice": "The total amount of shares currently issued"
      },
      "totalUnclaimed()": {
        "notice": "Total unclaimed assets in vault"
      },
      "transfer(address,uint256)": {
        "notice": "Moves `amount` shares from the caller's account to `to`"
      },
      "transferFrom(address,address,uint256)": {
        "notice": "Moves `amount` shares from `from to `to`"
      },
      "unclaimed(address)": {
        "notice": "`account`'s unclaimed assets"
      }
    },
    "notice": "ERC4626 vault that manages a 50-50 position between long-short markets of the same payoff on Perennial.",
    "version": 1
  },
  "storageLayout": {
    "storage": [
      {
        "astId": 226,
        "contract": "@equilibria/perennial-vaults/contracts/BalancedVault.sol:BalancedVault",
        "label": "name",
        "offset": 0,
        "slot": "0",
        "type": "t_string_storage"
      },
      {
        "astId": 229,
        "contract": "@equilibria/perennial-vaults/contracts/BalancedVault.sol:BalancedVault",
        "label": "symbol",
        "offset": 0,
        "slot": "1",
        "type": "t_string_storage"
      },
      {
        "astId": 237,
        "contract": "@equilibria/perennial-vaults/contracts/BalancedVault.sol:BalancedVault",
        "label": "allowance",
        "offset": 0,
        "slot": "2",
        "type": "t_mapping(t_address,t_mapping(t_address,t_userDefinedValueType(UFixed18)7104))"
      },
      {
        "astId": 243,
        "contract": "@equilibria/perennial-vaults/contracts/BalancedVault.sol:BalancedVault",
        "label": "_balanceOf",
        "offset": 0,
        "slot": "3",
        "type": "t_mapping(t_address,t_userDefinedValueType(UFixed18)7104)"
      },
      {
        "astId": 247,
        "contract": "@equilibria/perennial-vaults/contracts/BalancedVault.sol:BalancedVault",
        "label": "_totalSupply",
        "offset": 0,
        "slot": "4",
        "type": "t_userDefinedValueType(UFixed18)7104"
      },
      {
        "astId": 253,
        "contract": "@equilibria/perennial-vaults/contracts/BalancedVault.sol:BalancedVault",
        "label": "_unclaimed",
        "offset": 0,
        "slot": "5",
        "type": "t_mapping(t_address,t_userDefinedValueType(UFixed18)7104)"
      },
      {
        "astId": 257,
        "contract": "@equilibria/perennial-vaults/contracts/BalancedVault.sol:BalancedVault",
        "label": "_totalUnclaimed",
        "offset": 0,
        "slot": "6",
        "type": "t_userDefinedValueType(UFixed18)7104"
      },
      {
        "astId": 261,
        "contract": "@equilibria/perennial-vaults/contracts/BalancedVault.sol:BalancedVault",
        "label": "_deposit",
        "offset": 0,
        "slot": "7",
        "type": "t_userDefinedValueType(UFixed18)7104"
      },
      {
        "astId": 265,
        "contract": "@equilibria/perennial-vaults/contracts/BalancedVault.sol:BalancedVault",
        "label": "_redemption",
        "offset": 0,
        "slot": "8",
        "type": "t_userDefinedValueType(UFixed18)7104"
      },
      {
        "astId": 268,
        "contract": "@equilibria/perennial-vaults/contracts/BalancedVault.sol:BalancedVault",
        "label": "_latestVersion",
        "offset": 0,
        "slot": "9",
        "type": "t_uint256"
      },
      {
        "astId": 274,
        "contract": "@equilibria/perennial-vaults/contracts/BalancedVault.sol:BalancedVault",
        "label": "_deposits",
        "offset": 0,
        "slot": "10",
        "type": "t_mapping(t_address,t_userDefinedValueType(UFixed18)7104)"
      },
      {
        "astId": 280,
        "contract": "@equilibria/perennial-vaults/contracts/BalancedVault.sol:BalancedVault",
        "label": "_redemptions",
        "offset": 0,
        "slot": "11",
        "type": "t_mapping(t_address,t_userDefinedValueType(UFixed18)7104)"
      },
      {
        "astId": 285,
        "contract": "@equilibria/perennial-vaults/contracts/BalancedVault.sol:BalancedVault",
        "label": "_latestVersions",
        "offset": 0,
        "slot": "12",
        "type": "t_mapping(t_address,t_uint256)"
      },
      {
        "astId": 291,
        "contract": "@equilibria/perennial-vaults/contracts/BalancedVault.sol:BalancedVault",
        "label": "_versions",
        "offset": 0,
        "slot": "13",
        "type": "t_mapping(t_uint256,t_struct(Version)2363_storage)"
      }
    ],
    "types": {
      "t_address": {
        "encoding": "inplace",
        "label": "address",
        "numberOfBytes": "20"
      },
      "t_mapping(t_address,t_mapping(t_address,t_userDefinedValueType(UFixed18)7104))": {
        "encoding": "mapping",
        "key": "t_address",
        "label": "mapping(address => mapping(address => UFixed18))",
        "numberOfBytes": "32",
        "value": "t_mapping(t_address,t_userDefinedValueType(UFixed18)7104)"
      },
      "t_mapping(t_address,t_uint256)": {
        "encoding": "mapping",
        "key": "t_address",
        "label": "mapping(address => uint256)",
        "numberOfBytes": "32",
        "value": "t_uint256"
      },
      "t_mapping(t_address,t_userDefinedValueType(UFixed18)7104)": {
        "encoding": "mapping",
        "key": "t_address",
        "label": "mapping(address => UFixed18)",
        "numberOfBytes": "32",
        "value": "t_userDefinedValueType(UFixed18)7104"
      },
      "t_mapping(t_uint256,t_struct(Version)2363_storage)": {
        "encoding": "mapping",
        "key": "t_uint256",
        "label": "mapping(uint256 => struct IBalancedVault.Version)",
        "numberOfBytes": "32",
        "value": "t_struct(Version)2363_storage"
      },
      "t_string_storage": {
        "encoding": "bytes",
        "label": "string",
        "numberOfBytes": "32"
      },
      "t_struct(Version)2363_storage": {
        "encoding": "inplace",
        "label": "struct IBalancedVault.Version",
        "members": [
          {
            "astId": 2347,
            "contract": "@equilibria/perennial-vaults/contracts/BalancedVault.sol:BalancedVault",
            "label": "longPosition",
            "offset": 0,
            "slot": "0",
            "type": "t_userDefinedValueType(UFixed18)7104"
          },
          {
            "astId": 2350,
            "contract": "@equilibria/perennial-vaults/contracts/BalancedVault.sol:BalancedVault",
            "label": "shortPosition",
            "offset": 0,
            "slot": "1",
            "type": "t_userDefinedValueType(UFixed18)7104"
          },
          {
            "astId": 2353,
            "contract": "@equilibria/perennial-vaults/contracts/BalancedVault.sol:BalancedVault",
            "label": "totalShares",
            "offset": 0,
            "slot": "2",
            "type": "t_userDefinedValueType(UFixed18)7104"
          },
          {
            "astId": 2356,
            "contract": "@equilibria/perennial-vaults/contracts/BalancedVault.sol:BalancedVault",
            "label": "longAssets",
            "offset": 0,
            "slot": "3",
            "type": "t_userDefinedValueType(UFixed18)7104"
          },
          {
            "astId": 2359,
            "contract": "@equilibria/perennial-vaults/contracts/BalancedVault.sol:BalancedVault",
            "label": "shortAssets",
            "offset": 0,
            "slot": "4",
            "type": "t_userDefinedValueType(UFixed18)7104"
          },
          {
            "astId": 2362,
            "contract": "@equilibria/perennial-vaults/contracts/BalancedVault.sol:BalancedVault",
            "label": "totalAssets",
            "offset": 0,
            "slot": "5",
            "type": "t_userDefinedValueType(UFixed18)7104"
          }
        ],
        "numberOfBytes": "192"
      },
      "t_uint256": {
        "encoding": "inplace",
        "label": "uint256",
        "numberOfBytes": "32"
      },
      "t_userDefinedValueType(UFixed18)7104": {
        "encoding": "inplace",
        "label": "UFixed18",
        "numberOfBytes": "32"
      }
    }
  }
}