{
  "address": "0x1748F361a42a9d22C4F0d28098ED415e9e34cEe1",
  "abi": [
    {
      "inputs": [
        {
          "internalType": "Fixed18",
          "name": "price",
          "type": "int256"
        }
      ],
      "name": "payoff",
      "outputs": [
        {
          "internalType": "Fixed18",
          "name": "",
          "type": "int256"
        }
      ],
      "stateMutability": "pure",
      "type": "function"
    }
  ],
  "transactionHash": "0xca601e294ddf0f0b9b10d187bb825ab6c9079686c8bbeb0cd0af0cc30639ded5",
  "args": [],
  "numDeployments": 1,
  "solcInputHash": "450329c2f29c0620b085e215ce3be462",
  "bytecode": "0x608060405234801561001057600080fd5b506103a2806100206000396000f3fe608060405234801561001057600080fd5b506004361061002b5760003560e01c8063d7c7a93514610030575b600080fd5b61004a6004803603810190610045919061010a565b610060565b6040516100579190610172565b60405180910390f35b60006100826100736402540be400610089565b836100a690919063ffffffff16565b9050919050565b6000670de0b6b3a76400008261009f91906101bc565b9050919050565b600081670de0b6b3a7640000846100bd91906101bc565b6100c79190610302565b905092915050565b600080fd5b6000819050919050565b6100e7816100d4565b81146100f257600080fd5b50565b600081359050610104816100de565b92915050565b6000602082840312156101205761011f6100cf565b5b600061012e848285016100f5565b91505092915050565b6000819050919050565b600061015c610157610152846100d4565b610137565b6100d4565b9050919050565b61016c81610141565b82525050565b60006020820190506101876000830184610163565b92915050565b7f4e487b7100000000000000000000000000000000000000000000000000000000600052601160045260246000fd5b60006101c7826100d4565b91506101d2836100d4565b9250827f7fffffffffffffffffffffffffffffffffffffffffffffffffffffffffffffff04821160008413600084131616156102115761021061018d565b5b817f8000000000000000000000000000000000000000000000000000000000000000058312600084126000841316161561024e5761024d61018d565b5b827f8000000000000000000000000000000000000000000000000000000000000000058212600084136000841216161561028b5761028a61018d565b5b827f7fffffffffffffffffffffffffffffffffffffffffffffffffffffffffffffff05821260008412600084121616156102c8576102c761018d565b5b828202905092915050565b7f4e487b7100000000000000000000000000000000000000000000000000000000600052601260045260246000fd5b600061030d826100d4565b9150610318836100d4565b925082610328576103276102d3565b5b600160000383147f8000000000000000000000000000000000000000000000000000000000000000831416156103615761036061018d565b5b82820590509291505056fea264697066735822122003f5c3fcb7da4a6ecd1c23bea38880e799ea88b4cec263b848930b85a671327b64736f6c634300080f0033",
  "devdoc": {
    "kind": "dev",
    "methods": {},
    "version": 1
  },
  "userdoc": {
    "kind": "user",
    "methods": {},
    "version": 1
  },
  "storageLayout": {
    "storage": [],
    "types": null
  }
}